:020000040800F2
:10000000D009002065020008D51900088D190008E4
:10001000D119000811040008B920000800000000F0
:10002000000000000000000000000000491A000865
:100030001504000800000000D91900084D1A000836
:100040007F0200087F0200087F0200087F0200088C
:100050007F0200087F0200087F0200087F0200087C
:100060007F0200087F0200087F0200087F0200086C
:100070007F0200087F0200087F0200087F0200085C
:100080007F0200087F0200087F0200087F0200084C
:100090007F0200087F0200087F0200087F0200083C
:1000A0007F020008291B00087F0200087F02000869
:1000B0007F0200087F0200087F0200087F0200081C
:1000C0007F0200087F0200087F0200087F0200080C
:1000D0007F0200087F0200086D1E0008891E0008CC
:1000E0007F0200087F0200087F0200087F020008EC
:1000F0007F0200087F0200087F0200087F020008DC
:100100007F0200087F0200087F0200087F020008CB
:100110007F0200087F0200087F0200087F020008BB
:100120007F0200087F0200087F0200087F020008AB
:100130007F02000800000000000000007F020008AD
:100140007F0200087F0200087F0200087F0200088B
:100150007F0200087F0200087F0200087F0200087B
:100160007F0200087F0200087F0200087F0200086B
:100170007F0200087F0200087F02000800000000E4
:10018000000000007F0200080000000000000000E6
:100190007F02000800000000000000007F0200084D
:1001A0000000000000000000000000007F020008C6
:1001B0007F0200087F0200087F0200087F0200081B
:1001C0007F02000800F002F800F03CF80AA090E876
:1001D000000C82448344AAF10107DA4501D100F002
:1001E00031F8AFF2090EBAE80F0013F0010F18BF93
:1001F000FB1A43F001031847A0200000C0200000B4
:10020000103A24BF78C878C1FAD8520724BF30C842
:1002100030C144BF04680C60704700000023002414
:1002200000250026103A28BF78C1FBD8520728BF06
:1002300030C148BF0B6070471FB502F013F81FBDF7
:1002400010B510BD00F0A9F81146FFF7F5FF01F059
:1002500035FF00F0C7F803B4FFF7F2FF03BC00F06E
:10026000CFF800000948804709480047FEE7FEE74D
:10027000FEE7FEE7FEE7FEE7FEE7FEE7FEE7FEE756
:1002800004480549054A064B70470000151B000845
:10029000C5010008D0030020D0090020D0050020AF
:1002A000D005002053EA020C00F069802DE9F04BE4
:1002B0004FF00006002B1FBFB3FA83F503FA05F4D5
:1002C00024FA05F65E4012BF1643B2FA82F502FA2E
:1002D00005F4C5F120051EBF22FA05FC44EA0C0412
:1002E000203556EA044C4FEA144418BF641C4FF002
:1002F00000084FF00009904271EB030C39D300293C
:1003000019BFB1FA81F701FA07F6B0FA80F700FADF
:1003100007F6C7F120071EBF20FA07FC46EA0C06C5
:100320002037B6FBF4FCA7EB0507103F07F01F0BC7
:10033000CBF120062CFA06F60CFA0BFB44BFB346B1
:100340000026202FA4BF5E464FF0000B5BEA060C90
:1003500008BF4FF0010B19EB0B0948EB0608ABFB8C
:10036000027C06FB02CC0BFB03CCC01B71EB0C0127
:10037000C1E70B46024641464846BDE8F08B13B53F
:10038000084318BF4FF0FF300146AFF30080BDE8CF
:100390001C407047704770477047754600F02CF856
:1003A000AE4605006946534620F00700854618B062
:1003B00020B5FFF765FFBDE820404FF000064FF085
:1003C00000074FF000084FF0000BAC46ACE8C00946
:1003D000ACE8C009ACE8C009ACE8C00921F00701ED
:1003E0008D46704710B50446AFF300802046BDE847
:1003F0001040FFF730BF0000004870471000002099
:1004000001491820ABBEFEE726000200704700003D
:10041000FEE700007047000070B5866D044600F0EE
:100420002FF994F83510022928D105462068216C4F
:10043000026822F016020260426922F080024261E4
:1004400009B9A16C19B1016821F0080101600168C6
:1004500021F00101016000BF20680068C00715D0CD
:1004600000F00EF9401B0628F6D32020606503201B
:1004700084F83500002184F8341070BD8020606558
:100480000120002184F8341070BD00BFE06D3F21D1
:1004900001FA00F0B060012084F83500002000214E
:1004A00084F8341070BD000090F83510022909D18D
:1004B000052180F835100068016821F00101016014
:1004C0000020704780214165012070472DE9F04FE1
:1004D00082B000F13E4241F6000502F1FF77C4F21E
:1004E0000205072243F6004E4FEAB726A84208BF8E
:1004F0000622C4F2010E062E38BF4FEAB7220125AC
:10050000002600274FF00008009208E008F10108DB
:100510000437B8F1100F06F1020600F0A7800C684E
:1005200005FA08F914EA090FF0D0D1F804B0032253
:100530000BF0030CACF10104B240012C6FEA020A8B
:1005400010D88268CC6802EA0A02B4402243826072
:100550004268CBF3001422EA090204FA08F42243A9
:10056000426005E0BCF1030F02D14FF0030C20E024
:10057000C2688C6802EA0A02B4402243BCF1020F4E
:10058000C26016D16FF0030202EA58020244D2F8A8
:1005900020C007F01C050F230C69AB402CEA0303B5
:1005A00004FA05F52B431362D1F804B001250BF0D2
:1005B000030C02680CFA06F302EA0A021A431BF45F
:1005C000403F0260A2D0002243F644030192C4F2ED
:1005D00002031A684FF6084C42F480421A601A6807
:1005E000CFF6FF7C02F480420192019A28F00302C8
:1005F000724452F80C3007F00C050F24AC40A343B2
:10060000009C04FA05F52B4342F80C30DEF8082074
:100610004B6842EA090543F60C4CDC0258BF22EA5B
:100620000905CEF80850C4F2010CDCF800209C0249
:1006300042EA090558BF22EA0905CCF80050DEF865
:1006400004209C0342EA090558BF22EA0905CEF8B6
:100650000450DEF80020DB0342EA090558BF22EA15
:100660000905CEF80050012550E700BF02B0BDE8F3
:10067000F08F0000002A08BF090481617047000064
:1006800040F2CC30C2F200000068704740F2000037
:1006900040F2CC31C2F20000C2F2000100780A68D8
:1006A000104408607047000080B543F60040C4F273
:1006B0000200016841F400710160016841F4806149
:1006C0000160016841F480710160032000F08AF844
:1006D000002000F005F800F027F8002080BD0000A1
:1006E00070B540F20006C2F2000640F2080132780E
:1006F000C2F200014FF47A730968B3FBF2F20446C8
:10070000B1FBF2F1084600F04BFC0F2C4FF0010555
:1007100008D838B94FF0FF3021460022002500F0FC
:1007200035F87460284670BD82B0002043F6400161
:100730000190C4F202014A6842F480424A604A6869
:1007400002F480420192019A0090086840F08050C3
:100750000860086800F0805000900098072002B000
:1007600000F040B8002848BF7047C1B200F01F0039
:10077000012202FA00F04EF20012CEF2000242EA2A
:10078000D10121F0030108607047000010B54EF65A
:100790000C5CCEF2000CDCF80030C3F3022E8EF0BD
:1007A0000704042C28BF0424BEF103034FF0FF3ECE
:1007B0000EFA04F438BF0023A14399400EFA03F364
:1007C0009A43114300F00F0200F160430901043A1B
:1007D00003F564436244002848BF02F10C0319701A
:1007E00010BD00004EF60C51CEF200010A684FF623
:1007F000FF031A4060F30A2242F0806040F0FD706F
:100800000860704770B582B00020019043F6400048
:10081000C4F202000168402641F080510160006886
:10082000C4F20E2600F080500190019847F20405B2
:100830000120C4F200053060FFF722FF044600BF2C
:100840002868C00306D4FFF71BFF001BB0F57A7FB2
:10085000F6D90EE001207060FFF712FF044600BFDA
:100860002868800308D4FFF70BFF001BB0F57A7FE0
:10087000F6D9032002B070BD002002B070BD0000A8
:100880002DE9F041002800F08B8043F60808C4F2FF
:1008900002080446D8F8F8030D4600F00F0088421D
:1008A00007D288F8F853D8F8F80300F00F00A842F0
:1008B00076D12068810717D5410705D5D8F80010F3
:1008C00041F4E051C8F80010010705D5D8F8001030
:1008D00041F46041C8F80010D8F80010A26821F077
:1008E000F0011143C8F80010C0073FD1D8F8F80351
:1008F00000F00F00A84207D988F8F853D8F8F80399
:1009000000F00F00A8424BD12068410707D5D8F866
:100910000010E26821F4E0511143C8F8001000070C
:1009200008D5D8F80000216920F4604040EAC100F1
:10093000C8F8000000F07CF8D8F8001042F27E22DF
:10094000C1F30311C0F60002515C40F2080220FA24
:1009500001F140F20400C2F200000068C2F200029D
:100960001160FFF7BDFE0020BDE8F0816068811EC8
:10097000022907D258F8081C89015CBF0120BDE894
:10098000F08111E0012807D158F8081C89035CBFE9
:100990000120BDE8F08107E058F8081C890703D45E
:1009A0000120BDE8F08100BFD8F8001021F003015C
:1009B0000843C8F80000FFF763FE064641F2883797
:1009C000D8F80000616800F00C00B0EB810F8DD00A
:1009D000FFF756FE801BB842F2D90320BDE8F08134
:1009E00040F2080043F60801C2F20000C4F202011E
:1009F0000068096842F28E22C1F38221C0F600022B
:100A0000515CC8407047000040F2080043F60801FE
:100A1000C2F20000C4F202010068096842F28E22AC
:100A2000C1F34231C0F60002515CC840704700007B
:100A300010B543F60404C4F202046068C0F38101F7
:100A400042F20040C0F2F400DFE801F0440208186E
:100A500041F20020C0F27A0010BD00BF216801F011
:100A60003F02216823684902C3F3881116D4A1FB11
:100A700000010023FFF716FC17E000BF216801F01A
:100A80003F02216823684902C3F3881116D4A1FBF1
:100A900000010023FFF706FC17E000BF41F2002031
:100AA000C0F27A004843B0FBF2F021680222C1F3A1
:100AB000014102EB4101B0FBF1F010BD41F2002019
:100AC000C0F27A004843B0FBF2F02168C1F3027132
:100AD000B0FBF1F010BD00002DE9F04182B000281C
:100AE00000F096800446007843F60006C007C4F282
:100AF00002062BD0B06800F00C00042820D0B068AB
:100B000000F00C00082802D17068400218D4B068C8
:100B100000F00C000C2802D17068400210D460680C
:100B2000B0F5803F07D0B0F5A02F40F03B81306892
:100B300040F480203060306840F4803030603BE129
:100B40003068800302D56068002861D02078800773
:100B500022D5B06810F00C0F11D0B06800F00C0076
:100B6000082802D17068400209D5B06800F00C0076
:100B70000C2840F09F807068400200F19B80306834
:100B8000800702D5E068012842D13068216920F051
:100B9000F80040EAC1003060207800073CD420789B
:100BA000400751D4A56985B3B06800F00C0008284F
:100BB00040F0A880012D2BD07068E16900F480021C
:100BC0008A4225D1216A00F03F028A4220D147F6AD
:100BD000C071626A0140B1EB821F19D1A16A4FF660
:100BE000FF73C903994300F44032A1F580318A4272
:100BF0000ED1E16A00F07062B2EB016F08D1216B97
:100C000000F0E040B0EB017F02D1002034E100BFF2
:100C1000012002B0BDE8F0816069002840F20000C8
:100C2000C4F247205ED00121C0F8801EFFF728FDE6
:100C3000054600BF706F8007B1D4FFF721FD401B50
:100C40000228F7D9C5E000BF306C10F080580AD1F7
:100C500000200190306C40F080503064306C00F027
:100C600080500190019847F20007C4F200073868ED
:100C7000C00511D4386840F480703860FFF700FD7B
:100C8000054600BF3868C00506D4FFF7F9FC401BD5
:100C90000228F7D99DE000BFA068012805D00528EB
:100CA00052D1306F40F004003067306F40F00100E7
:100CB000306753E0E068002860D00020C4F247208D
:100CC00001210160FFF7DCFC054600BF30688007AA
:100CD0003FF55BAFFFF7D4FC401B02284FF0030049
:100CE000F4D9C9E00021C0F8801EFFF7C9FC054611
:100CF000706F80077FF553AFFFF7C2FC401B0228DF
:100D0000F6D966E00027C4F2472700203866FFF7CF
:100D1000B7FC022D05460BD1306880015ED5FFF788
:100D2000AFFC401B02284FF00300F5D9A4E000BF40
:100D3000306880017FF569AFFFF7A2FC401B0228F5
:100D40004FF00300F4D997E0316F002821F0010142
:100D50003167316F21F00401316763D0FFF790FCF8
:100D6000054641F2883700BF306F80076CD4FFF72B
:100D700087FC401BB842F7D92BE000BF0020C4F22B
:100D8000472000210160FFF77BFC054630688007A3
:100D90007FF502AFFFF774FC401B02284FF0030001
:100DA000F4D969E03168002821F48031316031687C
:100DB00021F48021316051D0FFF762FC054600BF6D
:100DC000306880033FF5C2AEFFF75AFC401B642831
:100DD000F6D9032002B0BDE8F08100BF04F11C0584
:100DE0002FCD246B084340EA8210D9034FF6FF72DF
:100DF0009143A1F5803140EA0560084340EA047060
:100E0000706001203866FFF73BFC044630688001C3
:100E10003FF5FBAEFFF734FC001B02284FF0030048
:100E2000F4D929E0FFF72CFC054641F2883700BFD2
:100E3000306F800708D5FFF723FC401BB8424FF006
:100E40000300F5D918E000BFB8F1000F7FF4AAAE97
:100E5000306C20F080503064A4E600BFFFF710FC37
:100E60000546306880037FF571AEFFF709FC401B33
:100E700064284FF00300F4D902B0BDE8F08100000F
:100E800070B538B10446406A30B10020206104F1E9
:100E9000140007E0012070BD6068B0F5827F03D0C8
:100EA00004F11C00002101600026A66294F85100A4
:100EB00020B9204684F8506000F03CF8022084F805
:100EC000510094E80F0001F48271056802F40442B5
:100ED00025F040050560114403F4006223691144C4
:100EE00003F002026369114403F00102A369E5699A
:100EF000114403F40072114405F03802256A1144CC
:100F000005F08002A56A114305F400521143016007
:100F1000626A042101EA134102F0100211444160A7
:100F2000C16921F40061C1610120666584F8510046
:100F3000304670BD80B586B0016843F20000C4F24F
:100F40000100814202D006B080BD00BF002143F6FF
:100F500030020191C4F20202536900F5504043F49B
:100F600080535361536903F480530193019B0191B2
:100F7000136843F001031360126802F0010201924A
:100F8000019AE02201920222CDE90221032104917B
:100F90000521059101A9FFF799FA06B080BD00006F
:100FA000411E0020B0EB116F1CBF012070474EF2B4
:100FB0001002CEF2000251604EF62351CEF2000133
:100FC000F0230B700721906011607047704700009C
:100FD00070470000002804BF0120704710B5044688
:100FE00090F83D0028B9002084F83C00204600F02D
:100FF0001FF8022084F83D002068211D00F09AFDB2
:10100000012084F8460084F83E0084F83F0084F80C
:10101000400084F8410084F8420084F8430084F8DA
:10102000440084F8450084F83D00002010BD000015
:1010300080B582B0006844F20041C4F201018842E8
:101040001CBF02B080BD0020019043F64400C4F2F2
:1010500002000168002241F40031016000680021B3
:1010600000F40030019001981920FFF78FFB192040
:1010700002B0BDE88040FFF775BB000090F83D105E
:1010800001291CBF01207047022180F83D10006833
:1010900041F2FF72C168C4F20002904241F00101C6
:1010A000C1600DDC40F2FF71C4F20001884215DC22
:1010B000B0F1804F2AD040F20041C4F2000123E099
:1010C00040F2FF31C4F20101884213DC41F6000115
:1010D000C4F20001884219D0002113E040F600015B
:1010E000C4F20001884211D040F60041C4F2000170
:1010F0000AE000BF44F20001C4F20101884205D0B9
:1011000040F20041C4F20101884206D1816801F039
:101110000701062904BF00207047016841F0010162
:1011200001600020704700007047000010B50168A2
:1011300004460869800744BFC8685FEA807039D4F4
:101140000869400744BFC8685FEA40703ED4086938
:10115000000744BFC8685FEA007045D40869C0064C
:1011600044BFC8685FEAC0604AD40869C0071CBFB2
:10117000C8685FEAC07051D10869000644BFC868FA
:101180005FEA006052D40869400644BFC8685FEA5D
:10119000406053D40869800646BFC8685FEA806033
:1011A00010BD6FF0200220460A61BDE81040FFF735
:1011B0000FBF00BF6FF0020008610120207788692F
:1011C000800743D02046FFF7AFFF45E06FF00400F3
:1011D000086102202077886910F4407F40D02046C3
:1011E000FFF7A2FF42E000BF6FF008000861042093
:1011F0002077C86980073DD02046FFF795FF3FE084
:101200006FF01000086108202077C86910F4407F53
:101210003AD02046FFF788FF3CE000BF6FF00100A6
:101220000861204600F03EF82168A5E76FF08000D5
:1012300008612046FFF7CAFE2168A4E76FF040006E
:101240000861204600F030F82168A3E7204600F04E
:1012500025F8204600F024F82168002020776FE769
:10126000204600F01BF8204600F01AF82168002004
:1012700020776CE7204600F011F8204600F010F8C7
:1012800021680020207769E7204600F007F8204613
:1012900000F006F821680020207766E7704700001C
:1012A0007047000070470000704700007047000062
:1012B00070470000B0B582B0044600680168C3689A
:1012C000426901F02F05202D03F0200506D12DB134
:1012D000204602B0BDE8B04000F0D0BC5FEA017C1F
:1012E0001EBF02F0010E03F4907212EB0E0253D1F6
:1012F000226B012A05D111F0100218BF13F0100261
:1013000036D10A0622D513F080021FD094F83D1082
:1013100021293FD1A168B1F5805F03D1216900295E
:1013200000F07282216A4A1C226209784160E18CD5
:1013300001390A04E1842DD1C16821F08001C16026
:10134000C16841F04001C16002B0B0BD490621D57D
:1013500013F040011ED0C16821F04001C16020217E
:10136000204684F83D1002B0BDE8B04000F00CBB50
:101370000021019101680191416801910199406941
:10138000400613D4A08DE18DE28D002A18BF88425B
:1013900040F0BE8102B0B0BDCA0718BF13F480721E
:1013A00040F0BA804A0700F1BD80C2E0A16B086836
:1013B000426893B2002BEDD0A08D8342EAD2E28541
:1013C000C969B1F5807F00F09D80206850E8030F67
:1013D000216820F4807041E80302DAB1206850E807
:1013E000030F216820F4807041E8030292B1206865
:1013F00050E8030F216820F4807041E803024AB1ED
:10140000206850E8030F216820F4807041E803024F
:10141000002ADAD1206850E8050F216820F0010089
:1014200041E80502DAB1206850E8050F216820F094
:10143000010041E8050292B1206850E8050F2168DB
:1014400020F0010041E805024AB1206850E8050F8C
:10145000216820F0010041E80502002ADAD1206865
:1014600050E8050F216820F0400041E80502DAB19C
:10147000206850E8050F216820F0400041E805028F
:1014800092B1206850E8050F216820F0400041E843
:1014900005024AB1206850E8050F216820F040009D
:1014A00041E80502002ADAD1202084F83E0000201D
:1014B0002063206850E8030F216820F0100041E805
:1014C0000302DAB1206850E8030F216820F0100011
:1014D00041E8030292B1206850E8030F216820F030
:1014E000100041E803024AB1206850E8030F216868
:1014F00020F0100041E80302002ADAD1A06BFEF7C9
:101500008BFFA08DE18D401A81B2204602B0BDE86C
:10151000B040FFF7CBBE00BF226C42F00102226454
:101520004A0706D5BEF1000F03D0226C42F002023A
:1015300022648A0706D5BEF1000F03D0226C42F068
:1015400004022264BCF1000F09D545EA0E02B2FA8A
:1015500082F2520903D1226C42F008022264226C0A
:10156000002A3FF417AF11F0200118BF002D03D05F
:10157000204600F083FB20684069216C00F04000A9
:1015800001F00801401800F0B58000BF206850E865
:10159000030F216820F4907041E80302BAB3206879
:1015A00050E8030F216820F4907041E8030272B301
:1015B000206850E8030F216820F4907041E803028E
:1015C0002AB3206850E8030F216820F4907041E8A6
:1015D0000302002ADAD11AE0206850E8050F2168DA
:1015E00020F0010041E80502DAB1206850E8050F5B
:1015F000216820F0010041E8050292B1206850E81E
:10160000050F216820F0010041E805024AB1206879
:1016100050E8050F216820F0010041E80502002A8A
:10162000DAD1206B012824D1206850E8030F21680B
:1016300020F0100041E80302DAB1206850E8030FFF
:10164000216820F0100041E8030292B1206850E8C0
:10165000030F216820F0100041E803024AB120681E
:1016600050E8030F216820F0100041E80302002A2F
:10167000DAD1202084F83E000020206320684069F1
:1016800040063FD5206850E8050F216820F0400053
:1016900041E80502DAB1206850E8050F216820F022
:1016A000400041E8050292B1206850E8050F21682A
:1016B00020F0400041E805024AB1206850E8050FDB
:1016C000216820F0400041E80502002ADAD1A06B31
:1016D000C0B141F67141C0F600010165FEF7E4FEBC
:1016E00000283FF457AEA06B016D02B0BDE8B040DA
:1016F000084700BF2046FFF7DBFD0020206402B052
:10170000B0BD00BF204602B0BDE8B040FFF7D0BD7D
:10171000401A216851E8031F226821F4907142E8C1
:101720000313DBB1216851E8031F226821F4907193
:1017300042E8031393B1216851E8031F226821F4A2
:10174000907142E803134BB1216851E8031F2268EE
:1017500021F4907142E80313002BDAD1216851E89B
:10176000051F226821F0010142E80513DBB1216861
:1017700051E8051F226821F0010142E8051393B1E9
:10178000216851E8051F226821F0010142E8051394
:101790004BB1216851E8051F226821F0010142E8A0
:1017A0000513002BDAD1202184F83E10002121639B
:1017B000216851E8031F226821F0100142E8031359
:1017C000002B3FF4A1AE216851E8031F226821F0ED
:1017D000100142E80313002B3FF496AE216851E854
:1017E000031F226821F0100142E80313002B3FF48D
:1017F0008BAE216851E8031F226821F0100142E8F6
:101800000313002BD4D17FE6216A31F8022B6FF34A
:101810005F22426021628AE5002804BF01207047F0
:1018200010B5044690F83D0028B9002084F83C002B
:10183000204600F021F8242084F83D002068C1688B
:1018400021F40051C160204600F098FA2068016937
:1018500021F490410161416921F02A014161C1688F
:1018600041F40051C16000202021206484F83D1023
:1018700084F83E1010BD0000F0B587B0006844F653
:101880000001C4F2000100248842CDE90544CDE9FD
:10189000034402942AD044F20041C4F20001884279
:1018A0006DD1002043F630010190C4F202010A69B3
:1018B000262442F400320A610A6902F400320192DD
:1018C000019A01900A6842F001020A60096801F079
:1018D0000101019101990C2102910221CDE903102E
:1018E000032005900020C4F202003BE043F63000E4
:1018F0000194C4F202000169002741F480210161D2
:101900000169C4F2020701F4802101910199019457
:101910000168022541F0040101600168032601F01D
:101920000401019101990194016841F002010160F3
:10193000006802A900F002000190019820200290A6
:101940000720069007F50060CDE903540596FEF7E1
:10195000BDFD4FF48060CDE90205CDE9044607F5F1
:10196000806027240721069102A9FEF7AFFD2046DB
:1019700000210022FEF70AFF2046FEF7F3FE07B023
:10198000F0BD00007047000070470000FEE7000057
:1019900040F22411C2F20001884240F27001C2F20A
:1019A00000010BD040F26812C2F2000290421CBF4C
:1019B0004FF0FF30704701F10C0000E0081D006897
:1019C000D0F88010D0F88400081A00F07F0070472B
:1019D000FEE70000FEE700007047000040F27000E4
:1019E000C2F200000021017040F2AC11C2F200010D
:1019F000416040F2241140F2BC2240F2342340F214
:101A0000443CC2F20001C2F20002C2F20003C2F280
:101A1000000C09688260C360C0F810C0486940F0DB
:101A20000100486140F26810C2F20000006842699B
:101A300042F001024261CA6842F02002CA60C168F5
:101A400041F02001C160704770470000FEF71EBEE4
:101A500080B594B0002043F640010C90CDE90A0017
:101A6000CDE908000690CDE90400CDE9020001901F
:101A7000C4F202010A6842F080520A60096801F06B
:101A800080510191019947F200010190C4F20001D7
:101A90000A6842F440420A600968012201F44041A8
:101AA000019101990221CDE90D1008200F90B42079
:101AB0000A921022CDE9100107A807910B92CDE9F7
:101AC0001211FFF709F828B1EFF3108072B600BFCA
:101AD000FEE700BFFEF796FE20B1EFF3108072B66E
:101AE000FEE700BF0F200290022003900020049028
:101AF0004FF4A05005904FF48050069002A80521A5
:101B0000FEF7BEFE20B1EFF3108072B6FEE700BF15
:101B100014B080BD4EF68850CEF20000016841F44A
:101B2000700101607047000040F2DC00C2F200006A
:101B3000FFF7FCBA10B540F6FF3E0368C4F2000E92
:101B400040F2004C7045C4F2010C27DCB0F1804F2C
:101B500031D040F20042C4F2000290422BD040F655
:101B60000002C4F20002904225D041F6FF72C4F296
:101B70000002904229DC70453CDCB0F1804F5FD020
:101B800040F20042C4F20002904259D040F60002F6
:101B9000C4F20002904253D056E000BF40F600422B
:101BA000C4F20002904206D0604504D00022C4F284
:101BB00001029042D9D14A6823F07003134341F6E1
:101BC000FF72C4F200029042D5DD43F6FF72C4F208
:101BD0000102904222DC42F20002C4F20002904272
:101BE0002ED00022C4F20102904229D0604527D0B5
:101BF0002AE000BF40F60042C4F2000290421FD02B
:101C000041F60002C4F20002904219D041F60042AF
:101C1000C4F20002904213D016E000BF44F200026A
:101C2000C4F2010290420BD044F60002C4F2010259
:101C3000904205D044F20042C4F20102904203D126
:101C4000CA6823F44073134323F080024B69D1F830
:101C500000E08C681A430260C46240F48062C0F8FD
:101C600028E0624504BF096901630121416110BD9B
:101C7000806B0021C185C184FFF71ABB81B090F849
:101C80003E10222921D183680246B3F5805F09D135
:101C900052F8281F52F8183C002B63D003685B6889
:101CA0000AE000BF52F8281F13B90369002BF5D0D2
:101CB00003685B6803F07F030B70116801311160EA
:101CC000C18D01390A04C18502D001B0704700BF3F
:101CD0000168CA6822F02002CA60CA6822F48072D1
:101CE000CA604A6922F001024A61202180F83E1050
:101CF000016B01293ED10021016300BF016851E859
:101D0000031F026821F0100142E80313DBB10168F0
:101D100051E8031F026821F0100142E8031393B158
:101D2000016851E8031F026821F0100142E8031323
:101D30004BB1016851E8031F026821F0100142E82D
:101D40000313002BDAD101680A68D20606D50022F7
:101D500000920A680092496800910099818D01B053
:101D6000FFF7A4BA026852686FF35F2221F8022BD2
:101D70008162A5E701B0FFF705BE000010B504467B
:101D80000068D4E902C22369016921F4405111437A
:101D90000161626943EA0C01E3691143C2681943B6
:101DA00049F20C639A431143C1604169A26921F46D
:101DB000407141F20043114340F48062C4F20103D8
:101DC0009A42416102D1FEF71FFE01E0FEF708FED4
:101DD000E16963681922B1F5004FA0FB020123D12C
:101DE0005A00DB0FFEF75EFA48F21F51C5F2EB1105
:101DF000A0FB01235A094FF69C73C0F6FF7303F151
:101E0000805302FB0300322303EBC000A0FB01015F
:101E10004FF4F87000EA111000EB0210C1F3421108
:101E200008442168886010BD9A009B0FFEF73AFABB
:101E300048F21F51C5F2EB11A0FB01235A094FF6DE
:101E40009C73C0F6FF7302FB0300322303EB001008
:101E5000A0FB0101F02000EA511000EB0210C1F3D9
:101E6000431108442168886010BD000010B540F29D
:101E70002414C2F20004204600F014F82046BDE805
:101E80001040FFF717BA000010B540F26814C2F214
:101E90000004204600F006F82046BDE81040FFF799
:101EA00009BA000002681368D2F80CC099061FD561
:101EB0001CF020011CD01168516840F22412C2F2BB
:101EC0000002904236D040F26812C2F20002904204
:101ED0003ED140F27000C2F20000C068D0F880200D
:101EE000D0F88430013202F07F029A4230D031E0E3
:101EF00019062DD51CF080012AD040F22411C2F21F
:101F0000000188422CD040F26811C2F200018842E0
:101F100018BF704740F24430C2F20000D0F8802071
:101F2000D0F884309A4225D10868C16821F0800138
:101F3000C160704740F27000C2F200004068D0F803
:101F40008020D0F88430013202F07F029A4201D121
:101F5000704700BFD0F88030C154C0F8802070476F
:101F600040F2BC20C2F20000D0F88020D0F88430CB
:101F70009A42D9D0D0F88420825CD0F884300133E2
:101F800003F07F03C0F8843008680168426070473E
:101F900040F22411C2F20001884213D040F26811CD
:101FA000C2F2000188420AD140F27000C2F2000081
:101FB000C168D1F88000D1F88420904210D14FF050
:101FC000FF30704740F27000C2F200004168D1F863
:101FD0008000D1F88420904204BF4FF0FF3070475A
:101FE000D1F88400085CD1F88420013202F07F022D
:101FF000C1F884207047000080B500285BD440F20F
:102000002412C2F20002914228D040F26812C2F2B9
:102010000002914218BF80BD40F27003C2F200037B
:10202000196940F2681CD1F8802003F1100E0132CA
:1020300002F07F02C2F2000CD1F884309A422DD116
:10204000D1F884309A4229D1D1F884309A4225D1EE
:10205000D1F884309A42EFD020E000BF40F2700304
:10206000C2F20003996840F2241CD1F8802003F1E9
:10207000080E013202F07F02C2F2000CD1F8843067
:102080009A420BD1D1F884309A4207D1D1F88430EA
:102090009A4203D1D1F884309A42EFD0D1F88030FF
:1020A000C854DEF80000C0F88020DCF80000C168E9
:1020B00041F08001C16080BDFEE7000086B00024D1
:1020C000C4F20204FEF7F0FAFFF7C2FC002643F662
:1020D0003000CDE904660096C4F2020001680022D7
:1020E00041F00401016001684FF0020801F00401B1
:1020F000009100990096016841F08001016001683B
:1021000001F08001009100990096016841F0010101
:102110000160016801F001010091009900960168D9
:1021200041F0020101600068022100F0020000900D
:1021300000982046FEF79EFA4FF4005001904FF4AD
:10214000041001ADCDE9020604F500602946FEF752
:10215000BDF9012720462946CDF80480CDE9027655
:102160000496FEF7B3F940F22410A4F5DE31C2F272
:1021700000000C234FF4E13280E84600C0E903661A
:10218000C0E90536C661FFF747FB28B1EFF31080C1
:1021900072B600BFFEE700BF40F28400A4F55041D4
:1021A000C2F200004FF482724FF40073282580E8D9
:1021B00046000A21C0E90368C0E90573C561C0E9AA
:1021C0000866C0E90A61FEF75BFE28B1EFF31080F4
:1021D00072B600BFFEE700BF40F2DC00A4F53C4150
:1021E000C2F2000044F24F62002580E82600C0E9F8
:1021F00003258561FEF7EEFE20B1EFF3108072B685
:10220000FEE700BF40F26810A4F5DC31C2F2000026
:102210000C234FF4E13280E82600C0E90355C0E901
:102220000535C561FFF7F8FA20B1EFF3108072B6FB
:10223000FEE700BFFFF7D2FB40F2DC00C2F2000075
:10224000FEF71CFF40F26814C2F200042046FFF7BC
:102250009FFB0028FAD02046FFF79AFE2146FFF7A1
:10226000CBFEF3E7F1EE100A4FF6FF71C0F2C0317A
:1022700020EA010040F04070E1EE100A70470000D3
:102280000000000000000102030406070809000026
:102290000000010203040000B82200080000002032
:1022A0001000000000020008C822000810000020F2
:1022B000C00900001C02000801000000100000001E
:0822C0000024F40000000000FE
:04000005080001C529
:00000001FF
