:020000040802F0
:10000000C009002085020208551A02084D1A02088C
:10001000511A0208ED0B0208092002080000000036
:10002000000000000000000000000000C91A0208E3
:10003000F10B020800000000591A0208CD1A02084C
:100040009F0202089F0202089F0202089F02020804
:100050009F0202089F0202089F0202089F020208F4
:100060009F0202089F0202089F0202089F020208E4
:100070009F0202089F0202089F0202089F020208D4
:100080009F0202089F0202089F0202089F020208C4
:100090009F0202089F0202089F0202089F020208B4
:1000A0009F020208B11B02089F0202089F02020879
:1000B0009F0202089F0202089F0202089F02020894
:1000C0009F0202089F0202089F0202089F02020884
:1000D0009F020208FD1D02089F020208091E020875
:1000E0009F0202089F0202089F0202089F02020864
:1000F0009F0202089F0202089F0202089F02020854
:100100009F0202089F0202089F0202089F02020843
:100110009F0202089F0202089F0202089F02020833
:100120009F0202089F0202089F0202089F02020823
:100130009F02020800000000000000009F02020869
:100140009F0202089F0202089F0202089F02020803
:100150009F0202089F0202089F0202089F020208F3
:100160009F0202089F0202089F0202089F020208E3
:100170009F0202089F0202089F020208000000007E
:10018000000000009F0202080000000000000000C4
:100190009F02020800000000000000009F02020809
:1001A0000000000000000000000000009F020208A4
:1001B0009F0202089F0202089F0202089F02020893
:1001C0009F02020800F002F800F04CF80AA090E844
:1001D000000C82448344AAF10107DA4501D100F002
:1001E00041F8AFF2090EBAE80F0013F0010F18BF83
:1001F000FB1A43F0010318479C280000BC280000AC
:10020000103A24BF78C878C1FAD8520724BF30C842
:1002100030C144BF04680C60704700000023002414
:1002200000250026103A28BF78C1FBD8520728BF06
:1002300030C148BF0B607047662902F0D283642941
:1002400000F0B880002070471FB502F0BDFB00F041
:100250005BFB04000020002102F0A0FBE0601FBD5A
:1002600010B510BD00F04CFC1146FFF7EDFF01F09A
:10027000CDFE00F06AFC03B4FFF7F2FF03BC00F010
:10028000ADFC00000948804709480047FEE7FEE74B
:10029000FEE7FEE7FEE7FEE7FEE7FEE7FEE7FEE736
:1002A00004480549054A064B70470000951B0208A3
:1002B000C5010208C0030020C0090020C0050020BD
:1002C000C005002053EA020C00F069802DE9F04BD4
:1002D0004FF00006002B1FBFB3FA83F503FA05F4B5
:1002E00024FA05F65E4012BF1643B2FA82F502FA0E
:1002F00005F4C5F120051EBF22FA05FC44EA0C04F2
:10030000203556EA044C4FEA144418BF641C4FF0E1
:1003100000084FF00009904271EB030C39D300291B
:1003200019BFB1FA81F701FA07F6B0FA80F700FABF
:1003300007F6C7F120071EBF20FA07FC46EA0C06A5
:100340002037B6FBF4FCA7EB0507103F07F01F0BA7
:10035000CBF120062CFA06F60CFA0BFB44BFB34691
:100360000026202FA4BF5E464FF0000B5BEA060C70
:1003700008BF4FF0010B19EB0B0948EB0608ABFB6C
:10038000027C06FB02CC0BFB03CCC01B71EB0C0107
:10039000C1E70B46024641464846BDE8F08B13B51F
:1003A000084318BF4FF0FF300146AFF30080BDE8AF
:1003B0001C4070472DE9F04106460024106875295D
:1003C000314616A510D0AFF30080002802DA404273
:1003D00013A507E031688A0701D512A502E0490795
:1003E00004D511A5012401E0AFF3008000210A2209
:1003F00006F1240709E0B0FBF2FCB0FBF2F302FBCC
:100400001C00303078541846491C0028F3D123468C
:100410002A463046BDE8F04100F00BB8000000006D
:100420002D0000002B0000002000000070477047E6
:1004300070472DE9F0470D4699469246044600F173
:1004400024080168880604D5E06921F010012160C4
:1004500000E00120A84201DD471B00E00027A16960
:100460007A1902EB0900081AA0612078C00602D4AC
:100470002046AFF30080002608E0D4E901211AF8F5
:1004800006009047206A401C761C20624E45F4DB33
:100490002078C0060AD52046AFF3008006E0D4E9F4
:1004A000012130209047206A401C2062381EA7F1AD
:1004B0000107F4DC07E0D4E9012118F805009047B2
:1004C000206A401C2062281EA5F10105F3DC2046AD
:1004D000AFF300802078000602D50220BDE8F08747
:1004E0000120FBE72DE9FF4F0C461E464FF0FF377A
:1004F0008BB0D2E90001DDF860800A908A46C1F332
:100500000A5505B93D46002108464FF00000BAF1F2
:10051000000F00F4400005DA00EB80004FF44001CA
:1005200001EA50004FEA9059B9F1010F00DDB946D8
:100530000A9850EA4A000ED044F61050A5F2FF3552
:1005400045432F14B8F1000F1ED07542291E1EDD41
:10055000C9F100021CE0B8F1010F4FF0000001D01A
:10056000302103E0F24305E02154401CB042FBDBA4
:1005700030460022002121540B99C1F80880C1E9BE
:1005800000200FB0BDE8F08FBD1B6D1CDEE74A46B2
:1005900000DA694206A800F041FA06AB93E80700CA
:1005A00003AB83E8070050460A9901F017FE8DE877
:1005B0000700A0F500501F3800900398002D0ADDB9
:1005C00042F21F014A460844002303A903906846EB
:1005D00002F080F809E0A0F500504A461F380023D9
:1005E00003A90390684602F08AF88DE8070000042A
:1005F000000C03D04FF0FF30410800E01046B8F186
:10060000000F03D00022009215461EE0751E05D48F
:1006100000F07EF9303262556D1EF9D5B3460122E5
:10062000084302D000227F1C04E02078302801D14A
:1006300000227F1E002A099784D01DE0112D07DAC1
:1006400000F066F9303262556D1C50EA0102F5D1B6
:10065000084302D00098C8B10EE00021681E05E0F2
:10066000235C625C63542254401E491C8142F7DBC8
:10067000AB46A81B401E0990002004F80B000B9805
:10068000099AC0F80880C0E9002B7AE711264FF0DC
:10069000000857E72DE9F04F88460446D21D22F0A6
:1006A000070191B0D1E90001CDE90A0102F05EF93C
:1006B00002460B98C00F01D02D2007E0206881076B
:1006C00001D52B2002E0202101EAC000032A099075
:1006D00001D0072A05DB03464146204600F05EF9BB
:1006E0000BE12078800601D5E06900E00620B8F132
:1006F000650F814606D0B8F1660F18D0B8F1670FC4
:1007000070D131E00020B9F1110F009001DB11230D
:1007100001E009F101030AAA01A90CA8FFF7E2FE12
:10072000DDE90C70002609F10105834647E0012050
:100730004B4600904FF000470AAA01A90CA8FFF70A
:10074000D1FEDDE90DB00C995D46002610B909F126
:1007500001000D18B9EB050003D4C0F1FF3609F113
:100760000105A5EB09002BE0B9F1010F01DA4FF00B
:1007700001090020B9F1110F0090484601DD112355
:1007800000E003460AAA01A90CA8FFF7ABFEDDE9C9
:100790000C704D4600268346207800070AD4AB45EE
:1007A00000DA5D4601A8012D04DD411911F8011C94
:1007B000302907D04F4502DA17F1040F04DA01207F
:1007C00082460FE06D1EEEE7002F02DCED1B3E447B
:1007D00003E0781CA84200DD7D1CB81B00F1010A73
:1007E0004FF000472078000703D4AA4501DB4FF003
:1007F000FF3A0021B7F1004F0DF143088DF8431087
:1008000024D002202B23002F01DA7F422D230A213E
:10081000021EA0F1010000DC5FB197FBF1FC97FB29
:10082000F1F201FB1C7C17460CF1300C08F801CDED
:10083000EEE7A8F1010003702188090501D54521E3
:1008400000E06521A0F1010800F8011C09980FA93A
:10085000A1EB0807FF1D00B10120411901EBEA706F
:10086000A1693844081A401EA0612078C00602D44D
:100870002046AFF30080099828B1D4E901219047C0
:10088000206A401C20622078C00622D52046AFF3A3
:1008900000801EE0002E04DBB34502DD01A8805D70
:1008A00000E03020D4E901219047206A401C2062FA
:1008B000761CAAF101005FEA000A0AD100F024F8D0
:1008C000C0680168405CD4E901219047206A401C5F
:1008D0002062281EA5F10105DCDC07E0D4E9012136
:1008E00018F8010B9047206A401C2062381EA7F1BF
:1008F0000107F3DC2046AFF30080032011B041E68E
:100900000048704710000020004870473000002069
:1009100030B5B0F10A0271F100034FEA900E4EEAD1
:10092000817EB0EB0E0061EB91014FEA101E4EEAA2
:10093000017E10EB0E0041EB11114FEA102E4EEA32
:10094000016E10EB0E0041EB11214FEA104E4EEA02
:10095000014E10EB0E0041EB1141401841F1000136
:100960004FEAD00040EA41704FEAD1014FEA8104DA
:1009700044EA907410EB800544EB01046D1944EBDC
:100980000404521BA3414FF0000348BF0A3200D5B4
:1009900030BD401C41F1000130BD00002DE9F041A7
:1009A0001F46044603260168072A01F4006004DBA1
:1009B00008B116A505E016A503E008B115A500E0ED
:1009C00015A521F010002060A069C01EA0610FB124
:1009D000401EA0612046AFF300804FB1D4E9012151
:1009E00038469047206A401C2062C01C206206E006
:1009F000206AFAE7D4E9012115F8010B9047761E29
:100A0000F8D22046AFF30080BDE8F0814E414E00A1
:100A10006E616E00494E4600696E66002DE9F04732
:100A2000814616468AB0354878440DC88DE80D00D9
:100A300032487844801C03AC0DC884E80D0041F6B0
:100A40009B300844372190FBF1F290FBF1F5A5F1C2
:100A5000800501FB12041B3C02D56442012000E02A
:100A60000020DFF898A080460027FA44AAF1BE0AC9
:100A70000EE0E0070AD03246684607EB4701012343
:100A80000AEB810101F03BFE8DE8070064107F1C3A
:100A9000002CEED1194F7F44AE3F19E0E80715D086
:100AA00007EB04100DF1180A90E80E008AE80E001A
:100AB000C068F04201D1981908903246012306A976
:100AC00003A801F01CFE03AB83E807006D10641C53
:100AD000002DE3D14FF0010332466946B8F1000F13
:100AE00003A802D001F0F6FD01E001F008FEC9E91B
:100AF0000001C9F808200AB0BDE8F08738200000DE
:100B00007546FFF7FDFEAE4605006946534620F0E8
:100B10000700854618B020B5FFF7C2FBBDE82040AE
:100B20004FF000064FF000074FF000084FF0000BA9
:100B3000AC46ACE8C009ACE8C009ACE8C009ACE818
:100B4000C00921F007018D46704710B50446AFF388
:100B500000802046BDE81040FFF78DBB000000007C
:100B600030B44FF0013C50F8042B51F8043BCCFA60
:100B700052F4D51A20D1FCB950F8042B51F8043B9B
:100B8000CCFA52F4D51A17D1B4B950F8042B51F855
:100B9000043BCCFA52F4D51A0ED16CB950F8042BA0
:100BA00051F8043BCCFA52F4D51A05D1002CDAD016
:100BB00030BC4FF00000704729BAB1FA81F111F052
:100BC0001801D1F120008440F2D1CA40CB4012F08C
:100BD000FF0213F0FF0330BCD01A70470149182000
:100BE000ABBEFEE72600020070470000FEE70000F3
:100BF000704700002DE9F04F82B000F13E4241F60F
:100C0000000502F1FF77C4F20205072243F6004E09
:100C10004FEAB726A84208BF0622C4F2010E062EEC
:100C200038BF4FEAB7220125002600274FF0000801
:100C3000009208E008F101080437B8F1100F06F13E
:100C4000020600F0A7800C6805FA08F914EA090FFB
:100C5000F0D0D1F804B003220BF0030CACF1010486
:100C6000B240012C6FEA020A10D88268CC6802EA0E
:100C70000A02B440224382604268CBF3001422EAA5
:100C8000090204FA08F42243426005E0BCF1030FB4
:100C900002D14FF0030C20E0C2688C6802EA0A021D
:100CA000B4402243BCF1020FC26016D16FF00302C0
:100CB00002EA58020244D2F820C007F01C050F23B4
:100CC0000C69AB402CEA030304FA05F52B431362CD
:100CD000D1F804B001250BF0030C02680CFA06F3FE
:100CE00002EA0A021A431BF4403F0260A2D000222B
:100CF00043F644030192C4F202031A684FF6084C0B
:100D000042F480421A601A68CFF6FF7C02F48042F7
:100D10000192019A28F00302724452F80C3007F055
:100D20000C050F24AC40A343009C04FA05F52B43AB
:100D300042F80C30DEF808204B6842EA090543F619
:100D40000C4CDC0258BF22EA0905CEF80850C4F268
:100D5000010CDCF800209C0242EA090558BF22EA97
:100D60000905CCF80050DEF804209C0342EA09058E
:100D700058BF22EA0905CEF80450DEF80020DB0354
:100D800042EA090558BF22EA0905CEF800500125BC
:100D900050E700BF02B0BDE8F08F0000426902EAF0
:100DA0000103914341EA034181617047002A08BF72
:100DB000090481617047000040F2BC30C2F20000BB
:100DC0000068704740F2000040F2BC31C2F20000FF
:100DD000C2F2000100780A68104408607047000001
:100DE00080B543F60040C4F20200016841F400718E
:100DF0000160016841F480610160016841F4807123
:100E00000160032000F08AF8002000F005F800F0EF
:100E100027F8002080BD000070B540F20006C2F245
:100E2000000640F208013278C2F200014FF47A73F2
:100E30000968B3FBF2F20446B1FBF2F1084600F098
:100E4000BBFB0F2C4FF0010508D838B94FF0FF302D
:100E500021460022002500F035F87460284670BD58
:100E600082B0002043F640010190C4F202014A68BA
:100E700042F480424A604A6802F480420192019A38
:100E80000090086840F080500860086800F08050CA
:100E900000900098072002B000F040B8002848BF3A
:100EA0007047C1B200F01F00012202FA00F04EF2BA
:100EB0000012CEF2000242EAD10121F003010860E3
:100EC0007047000010B54EF60C5CCEF2000CDCF85A
:100ED0000030C3F3022E8EF00704042C28BF042434
:100EE000BEF103034FF0FF3E0EFA04F438BF0023B7
:100EF000A14399400EFA03F39A43114300F00F0205
:100F000000F160430901043A03F564436244002898
:100F100048BF02F10C03197010BD00004EF60C51D1
:100F2000CEF200010A684FF6FF031A4060F30A226E
:100F300042F0806040F0FD700860704770B582B08C
:100F40000020019043F64000C4F2020001684026F0
:100F500041F0805101600068C4F20E2600F080501C
:100F60000190019847F204050120C4F200053060A9
:100F7000FFF722FF044600BF2868C00306D4FFF72E
:100F80001BFF001BB0F57A7FF6D90EE001207060E0
:100F9000FFF712FF044600BF2868800308D4FFF75C
:100FA0000BFF001BB0F57A7FF6D9032002B070BDAD
:100FB000002002B070BD00002DE9F041002800F0D3
:100FC0008B8043F60808C4F202080446D8F8F803F8
:100FD0000D4600F00F00884207D288F8F853D8F881
:100FE000F80300F00F00A84276D12068810717D5DA
:100FF000410705D5D8F8001041F4E051C8F80010B9
:10100000010705D5D8F8001041F46041C8F8001078
:10101000D8F80010A26821F0F0011143C8F80010C0
:10102000C0073FD1D8F8F80300F00F00A84207D955
:1010300088F8F853D8F8F80300F00F00A8424BD115
:101040002068410707D5D8F80010E26821F4E05184
:101050001143C8F80010000708D5D8F8000021692E
:1010600020F4604040EAC100C8F8000000F07CF8BD
:10107000D8F8001042F67C22C1F30311C0F6020238
:10108000515C40F2080220FA01F140F20400C2F281
:1010900000000068C2F200021160FFF7BDFE0020F0
:1010A000BDE8F0816068811E022907D258F8081C4B
:1010B00089015CBF0120BDE8F08111E0012807D162
:1010C00058F8081C89035CBF0120BDE8F08107E0E7
:1010D00058F8081C890703D40120BDE8F08100BF3F
:1010E000D8F8001021F003010843C8F80000FFF70A
:1010F00063FE064641F28837D8F80000616800F0C8
:101100000C00B0EB810F8DD0FFF756FE801BB8426C
:10111000F2D90320BDE8F08140F2080043F608014F
:10112000C2F20000C4F202010068096842F68C2293
:10113000C1F38221C0F60202515CC8407047000032
:1011400040F2080043F60801C2F20000C4F20201B6
:101150000068096842F68C22C1F34231C0F60202EF
:10116000515CC8407047000010B543F60404C4F257
:1011700002046068C0F3810142F20040C0F2F40052
:10118000DFE801F04402081841F20020C0F27A00C2
:1011900010BD00BF216801F03F02216823684902A9
:1011A000C3F3881116D4A1FB00010023FFF78AF8CE
:1011B00017E000BF216801F03F022168236849025F
:1011C000C3F3881116D4A1FB00010023FFF77AF8BE
:1011D00017E000BF41F20020C0F27A004843B0FBA4
:1011E000F2F021680222C1F3014102EB4101B0FBA0
:1011F000F1F010BD41F20020C0F27A004843B0FB8C
:10120000F2F02168C1F30271B0FBF1F010BD0000F3
:101210002DE9F04182B0002800F096800446007865
:1012200043F60006C007C4F202062BD0B06800F0F7
:101230000C00042820D0B06800F00C00082802D16F
:101240007068400218D4B06800F00C000C2802D17D
:101250007068400210D46068B0F5803F07D0B0F5E8
:10126000A02F40F03B81306840F48020306030682F
:1012700040F4803030603BE13068800302D5606824
:10128000002861D02078800722D5B06810F00C0FBC
:1012900011D0B06800F00C00082802D1706840023C
:1012A00009D5B06800F00C000C2840F09F807068F1
:1012B000400200F19B803068800702D5E068012879
:1012C00042D13068216920F0F80040EAC100306066
:1012D000207800073CD42078400751D4A56985B315
:1012E000B06800F00C00082840F0A880012D2BD039
:1012F0007068E16900F480028A4225D1216A00F019
:101300003F028A4220D147F6C071626A0140B1EBC8
:10131000821F19D1A16A4FF6FF73C903994300F4E4
:101320004032A1F580318A420ED1E16A00F070624C
:10133000B2EB016F08D1216B00F0E040B0EB017F10
:1013400002D1002034E100BF012002B0BDE8F081ED
:101350006069002840F20000C4F247205ED00121FD
:10136000C0F8801EFFF728FD054600BF706F80079C
:10137000B1D4FFF721FD401B0228F7D9C5E000BF1B
:10138000306C10F080580AD100200190306C40F091
:1013900080503064306C00F080500190019847F22A
:1013A0000007C4F200073868C00511D4386840F45B
:1013B00080703860FFF700FD054600BF3868C00543
:1013C00006D4FFF7F9FC401B0228F7D99DE000BFC7
:1013D000A068012805D0052852D1306F40F00400E4
:1013E0003067306F40F00100306753E0E06800285C
:1013F00060D00020C4F2472001210160FFF7DCFC2F
:10140000054600BF306880073FF55BAFFFF7D4FCAF
:10141000401B02284FF00300F4D9C9E00021C0F8B6
:10142000801EFFF7C9FC0546706F80077FF553AF3C
:10143000FFF7C2FC401B0228F6D966E00027C4F281
:10144000472700203866FFF7B7FC022D05460BD171
:10145000306880015ED5FFF7AFFC401B02284FF0DB
:101460000300F5D9A4E000BF306880017FF569AFC3
:10147000FFF7A2FC401B02284FF00300F4D997E0CD
:10148000316F002821F001013167316F21F0040133
:10149000316763D0FFF790FC054641F2883700BF03
:1014A000306F80076CD4FFF787FC401BB842F7D938
:1014B0002BE000BF0020C4F2472000210160FFF7AD
:1014C0007BFC0546306880077FF502AFFFF774FCB0
:1014D000401B02284FF00300F4D969E0316800286E
:1014E00021F480313160316821F48021316051D0A4
:1014F000FFF762FC054600BF306880033FF5C2AECF
:10150000FFF75AFC401B6428F6D9032002B0BDE85F
:10151000F08100BF04F11C052FCD246B084340EA85
:101520008210D9034FF6FF729143A1F5803140EA52
:101530000560084340EA0470706001203866FFF7D8
:101540003BFC0446306880013FF5FBAEFFF734FCFE
:10155000001B02284FF00300F4D929E0FFF72CFC10
:10156000054641F2883700BF306F800708D5FFF786
:1015700023FC401BB8424FF00300F5D918E000BF30
:10158000B8F1000F7FF4AAAE306C20F080503064C8
:10159000A4E600BFFFF710FC0546306880037FF526
:1015A00071AEFFF709FC401B64284FF00300F4D92B
:1015B00002B0BDE8F0810000411E0020B0EB116FC9
:1015C0001CBF012070474EF21002CEF200025160A3
:1015D0004EF62351CEF20001F0230B7007219060EC
:1015E000116070477047000070470000002804BF7A
:1015F0000120704710B5044690F83D0028B900203E
:1016000084F83C00204600F01FF8022084F83D00DA
:101610002068211D00F0DCFA012084F8460084F8DF
:101620003E0084F83F0084F8400084F8410084F8CC
:10163000420084F8430084F8440084F8450084F8AC
:101640003D00002010BD000080B582B0006844F26B
:101650000041C4F2010188421CBF02B080BD0020DD
:10166000019043F64400C4F202000168002241F4F4
:10167000003101600068002100F400300190019801
:101680001920FFF71FFC192002B0BDE88040FFF7CA
:1016900005BC000090F83D1001291CBF01207047D7
:1016A000022180F83D10006841F2FF72C168C4F267
:1016B0000002904241F00101C1600DDC40F2FF7177
:1016C000C4F20001884215DCB0F1804F2AD040F20C
:1016D0000041C4F2000123E040F2FF31C4F20101F5
:1016E000884213DC41F60001C4F20001884219D09F
:1016F000002113E040F60001C4F20001884211D03D
:1017000040F60041C4F200010AE000BF44F20001CB
:10171000C4F20101884205D040F20041C4F2010147
:10172000884206D1816801F00701062904BF002024
:101730007047016841F0010101600020704700001E
:101740007047000010B5016804460869800744BF6F
:10175000C8685FEA807039D40869400744BFC86828
:101760005FEA40703ED40869000744BFC8685FEA7A
:10177000007045D40869C00644BFC8685FEAC0600D
:101780004AD40869C0071CBFC8685FEAC07051D15D
:101790000869000644BFC8685FEA006052D408695F
:1017A000400644BFC8685FEA406053D408698006B9
:1017B00046BFC8685FEA806010BD6FF02002204617
:1017C0000A61BDE81040FFF70FBF00BF6FF00200D5
:1017D0000861012020778869800743D02046FFF701
:1017E000AFFF45E06FF004000861022020778869B0
:1017F00010F4407F40D02046FFF7A2FF42E000BF38
:101800006FF00800086104202077C86980073DD088
:101810002046FFF795FF3FE06FF0100008610820B9
:101820002077C86910F4407F3AD02046FFF788FF40
:101830003CE000BF6FF001000861204600F03EF878
:101840002168A5E76FF0800008612046FFF7CAFE17
:101850002168A4E76FF040000861204600F03CF8E2
:101860002168A3E7204600F025F8204600F024F880
:101870002168002020776FE7204600F01BF8204603
:1018800000F01AF82168002020776CE7204600F06D
:1018900011F8204600F010F821680020207769E751
:1018A000204600F007F8204600F006F821680020E6
:1018B000207766E7704700007047000040F2CC01D7
:1018C000C2F20001884218BF70470020C4F2020033
:1018D0002021FFF763BA000070470000002804BF12
:1018E0000120704710B5044690F83D0028B900204B
:1018F00084F83C00204600F021F8242084F83D00C4
:101900002068C16821F40051C160204600F0FEF952
:101910002068016921F490410161416921F02A01A7
:101920004161C16841F40051C16000202021206460
:1019300084F83D1084F83E1010BD0000F0B587B06B
:10194000006844F60001C4F2000100248842CDE999
:101950000544CDE9034402942CD041F20001C4F2C5
:10196000010188426FD1002043F630010190C4F29A
:1019700002014A69252442F010024A614A6902F0D4
:1019800010020192019A01900A6842F001020A6075
:10199000096801F00101019101994FF4C0610291C0
:1019A0000221CDE90310032005900020C4F20200BB
:1019B0003CE000BF43F630000194C4F2020001692C
:1019C000002741F4802101610169C4F2020701F49A
:1019D00080210191019901940168022541F00401DF
:1019E00001600168032601F004010191019901944D
:1019F000016841F002010160006802A900F00200E4
:101A000001900198202002900720069007F50060C1
:101A1000CDE903540596FFF7EDF84FF48060CDE96A
:101A20000205CDE9044607F58060272407210691C9
:101A300002A9FFF7DFF8204600210022FFF742FA53
:101A40002046FFF72BFA07B0F0BD0000FEE70000CC
:101A5000FEE70000FEE700007047000040F2700063
:101A6000C2F200000021017040F29C11C2F200019C
:101A7000416040F2141140F2AC2240F2242340F2C3
:101A8000343CC2F20001C2F20002C2F20003C2F210
:101A9000000C09688260C360C0F810C0486940F05B
:101AA0000100486140F25810C2F20000006842692B
:101AB00042F001024261CA6842F02002CA60C16875
:101AC00041F02001C160704770470000FFF77AB90C
:101AD00080B594B0002043F640010C90CDE90A0097
:101AE000CDE908000690CDE90400CDE9020001909F
:101AF000C4F202010A6842F080520A60096801F0EB
:101B000080510191019947F200010190C4F2000156
:101B10000A6842F440420A600968012201F4404127
:101B2000019101990221CDE90D1008200F90B420F8
:101B30000A921022CDE9100107A807910B92CDE976
:101B40001211FFF765FB28B1EFF3108072B600BFEA
:101B5000FEE700BFFFF7F2F920B1EFF3108072B695
:101B6000FEE700BF0F2002900220039000200490A7
:101B70004FF4A05005904FF48050069002A8052124
:101B8000FFF71AFA20B1EFF3108072B6FEE700BF3C
:101B900014B080BD4EF68850CEF20000016841F4CA
:101BA000700101600021C0F6020140F8801C7047FE
:101BB00080B540F28400C2F20000FFF7C3FD40F29E
:101BC000CC00C2F20000BDE88040FFF7BBBD0000C2
:101BD00010B540F6FF3E0368C4F2000E40F2004C20
:101BE0007045C4F2010C27DCB0F1804F31D040F2D7
:101BF0000042C4F2000290422BD040F60002C4F230
:101C00000002904225D041F6FF72C4F200029042D9
:101C100029DC70453CDCB0F1804F5FD040F20042DF
:101C2000C4F20002904259D040F60002C4F2000211
:101C3000904253D056E000BF40F60042C4F200028A
:101C4000904206D0604504D00022C4F201029042C6
:101C5000D9D14A6823F07003134341F6FF72C4F2EE
:101C600000029042D5DD43F6FF72C4F201029042B9
:101C700022DC42F20002C4F2000290422ED0002286
:101C8000C4F20102904229D0604527D02AE000BF6B
:101C900040F60042C4F2000290421FD041F600021A
:101CA000C4F20002904219D041F60042C4F2000290
:101CB000904213D016E000BF44F20002C4F20102C9
:101CC00090420BD044F60002C4F20102904205D0CB
:101CD00044F20042C4F20102904203D1CA6823F4E4
:101CE0004073134323F080024B69D1F800E08C6805
:101CF0001A430260C46240F48062C0F828E0624582
:101D000004BF096901630121416110BD10B504469A
:101D10000068D4E902C22369016921F440511143EA
:101D20000161626943EA0C01E3691143C268194326
:101D300049F20C639A431143C1604169A26921F4DD
:101D4000407141F20043114340F48062C4F2010348
:101D50009A42416102D1FFF7F3F901E0FFF7DCF9A4
:101D6000E16963681922B1F5004FA0FB020123D19C
:101D70005A00DB0FFEF7A6FA48F21F51C5F2EB112D
:101D8000A0FB01235A094FF69C73C0F6FF7303F1C1
:101D9000805302FB0300322303EBC000A0FB0101D0
:101DA0004FF4F87000EA111000EB0210C1F3421179
:101DB00008442168886010BD9A009B0FFEF782FAE4
:101DC00048F21F51C5F2EB11A0FB01235A094FF64F
:101DD0009C73C0F6FF7302FB0300322303EB001079
:101DE000A0FB0101F02000EA511000EB0210C1F34A
:101DF000431108442168886010BD000040F21410AF
:101E0000C2F2000000F006B840F25810C2F2000022
:101E1000AFF3008002681368D2F80CC099061FD592
:101E20001CF020011CD01168516840F21412C2F25B
:101E30000002904236D040F25812C2F200029042A4
:101E40003ED140F27000C2F20000C068D0F880209D
:101E5000D0F88430013202F07F029A4230D031E073
:101E600019062DD51CF080012AD040F21411C2F2BF
:101E7000000188422CD040F25811C2F20001884281
:101E800018BF704740F23430C2F20000D0F8802012
:101E9000D0F884309A4225D10868C16821F08001C9
:101EA000C160704740F27000C2F200004068D0F894
:101EB0008020D0F88430013202F07F029A4201D1B2
:101EC000704700BFD0F88030C154C0F88020704700
:101ED00040F2AC20C2F20000D0F88020D0F884306C
:101EE0009A42D9D0D0F88420825CD0F88430013373
:101EF00003F07F03C0F884300868016842607047CF
:101F000010B50278002A00F07D8040F2141EC2F263
:101F1000000E714516D040F2581EC2F2000E7145F7
:101F200040D0023010F8011C00296BD00178002944
:101F300068D04178002965D081780430002908BF35
:101F400010BDEFE740F2700CC2F2000CDCF8081094
:101F500011E000BFD1F880400A55DCF80810C1F844
:101F60008030DEF80020D36843F08003D36010F89F
:101F7000012F002A46D0D1F88030013303F07F03CF
:101F8000D1F88440A342E5D1D1F88440A342E1D105
:101F9000D1F88440A342DDD1D1F88440A342EFD0F0
:101FA000D8E700BF40F2700CC2F2000CDCF8101051
:101FB00010E000BFD1F880400A55DCF81010C1F8DD
:101FC0008030DEF80020D36843F08003D36010F83F
:101FD000012FBAB1D1F88030013303F07F0300BF85
:101FE000D1F88440A342E5D1D1F88440A342E1D1A5
:101FF000D1F88440A342DDD1D1F88440A342EFD090
:10200000D8E700BF10BD0000FEE7000086B040F634
:102010000008C4F20208FEF7E3FEFFF759FD0024B2
:1020200043F63000CDE904440094C4F20200016894
:10203000002241F00401016001684FF4807B01F04F
:102040000401009100990094016841F08001016051
:10205000016801F08001009100990094016841F04D
:1020600001010160016801F00101009100990094F3
:10207000016841F00201016000684FF4807100F0D6
:102080000200009000984046FEF790FEA8F580659B
:10209000284620210022FEF789FE4FF400500190CF
:1020A0004FF4041001AECDE9020440463146FEF77C
:1020B000A1FD0C2001900220CDE902040720A8F523
:1020C00000674FF00309059038463146CDF810906F
:1020D000FEF790FD602001904FF0010A384631462E
:1020E000CDE902A40494FEF785FD40463146CDE9D2
:1020F00001BACDE90344FEF77DFD2020CDE9010AB8
:1021000028463146CDE90349FEF774FD40F2CC0084
:10211000A8F54441C2F2000044F24F6280E8160084
:10212000C0E903248461FFF761FA28B1EFF310805E
:1021300072B600BFFEE700BF40F25810A8F5E031CC
:10214000C2F200004FF4E135C0E900150C21C0E9EE
:1021500002440461C0E90514C461FFF7BFFB28B164
:10216000EFF3108072B600BFFEE700BF40F214101C
:10217000A8F57841C2F2000000220C23C0E9001546
:10218000C0E90222C0E90423C0E90622FFF7A6FB4A
:1021900020B1EFF3108072B6FEE700BFFFF75EFCE0
:1021A00040F2CC00C2F20000FFF774FA40F258117E
:1021B00003A0C2F20001FFF7A3FE00BFFEE700BFCD
:1021C00077656C636F6D6520746F20757365722021
:1021D0006170706C636174696F6E00005FEA400C3F
:1021E00008BF91F0000F4FEA8C234FEAC12243EA67
:1021F00051514FEA1C5018BF00F5F0404FEA300033
:1022000018BF41F000415FEA6C5C00F02980BCF12E
:10221000FF3F08BF40F080407047130C06BF120418
:102220004FF0100C4FF0000C130E04BF12020CF113
:10223000080C130F04BF12010CF1040C930F04BF20
:1022400092000CF1020CD30F04BF52000CF1010CF0
:1022500011464FF00002A0F11F00A0EB0C007047E8
:1022600011F0004F08BF704731F000413FF4D5AF87
:102270000B0C06BF09044FF0100C4FF0000C0B0EB6
:1022800004BF09020CF1080C0B0F04BF09010CF18B
:10229000040C8B0F04BF89000CF1020CCB0F04BFA0
:1022A00049000CF1010CCCF1200322FA03F341EABE
:1022B000030102FA0CF2A0EB0C0000F101007047E0
:1022C00023F07F4720F07F4C80EA030000F00040BD
:1022D000ACEB070303F57C5303F1FF032DE98049C1
:1022E00009B44FEA144324EA03484FEA154B25EAA0
:1022F0000B4E0FF2042606EB13273E7803FB06670E
:10230000C7F5000707FB06F64FEAD64606F10206B8
:102310004FEA543707FB066CCCF1005C4FEA1C47D0
:102320002CEA074C0CFB06F507FB06F404EB1546FC
:102330004FEA961649085FEA320234BF00204FF098
:1023400000404FEAD13706FB07FC4FEA1C4C0CFB60
:102350000BF7D21B03FB0CF761EB07010CFB0EF72D
:10236000B0EB074072EB17420CFB08F734BFA2EB4F
:102370000742B2EB074261EB17414FEA0C444FEAC8
:10238000910706FB07FC4FEA1C4C0CFB0BF7B0EB6C
:10239000C74072EB573203FB0CF734BFA2EBC742C6
:1023A000B2EBC74261EB57310CFB0EF7B0EBC70045
:1023B00072EB57720CFB08F734BFA2EBC702B2EB0B
:1023C000C70261EB57714FEA816141EA92114FEA0E
:1023D000826242EA90124FEA806004EBCC04039FD1
:1023E0004FEAD13706FB07FC4FEA1C4C0CFB0BF7FE
:1023F000D21B03FB0CF761EB07010CFB0EF7B0EBF4
:10240000074072EB17420CFB08F734BFA2EB074200
:10241000B2EB074261EB17414FEA8C5504EB9C2469
:102420004FEA910706FB07FC4FEA1C4C0CFB0BF72D
:10243000B0EBC74072EB573203FB0CF734BFA2EB93
:10244000C742B2EBC74261EB57310CFB0EF7B0EB62
:10245000C70072EB57720CFB08F734BFA2EBC70240
:10246000B2EBC70261EB57714FEA816141EA921109
:102470004FEA826242EA90124FEA806015EB4C25E7
:1024800044F100044FEAD13706FB07FC4FEA1C4C2D
:102490000CFB0BF7D21B03FB0CF761EB07010CFBEA
:1024A0000EF7B0EB074072EB17420CFB08F734BF96
:1024B000A2EB0742B2EB074261EB17414FEA8131D1
:1024C00041EA92414FEA823242EA90424FEA80303A
:1024D0004FEA0C7615EB1C1544F1000448EA03435F
:1024E0004EEA0B484FF0000EB2EB080C71EB0307FD
:1024F00024BF624639464EEB0E0E4FF0000B00181B
:10250000524149414BEB0B0BB2EB080C71EB03074B
:102510007BF1000B24BF624639464EEB0E0E4FF0A6
:10252000000B0018524149414BEB0B0BB2EB080C6E
:1025300071EB03077BF1000B24BF624639464EEB7B
:102540000E0E51EA020718BF46F0010616EB0E7692
:1025500055F1000254F1000103D5BDE88901BDE841
:102560000088BDE88901BDE80048B619524141EB39
:102570000101A3F10103704780807F7E7D7C7B7A1F
:102580007978777676757473727171706F6E6E6D1F
:102590006C6C6B6A6A6968686766666564646363C5
:1025A00062616160605F5F5E5E5D5D5C5C5B5B5A4B
:1025B0005A595958585757565655555554545353B8
:1025C00052525251515050504F4F4F4E4E4D4D4D13
:1025D0004C4C4C4B4B4B4A4A4A494949484848475E
:1025E000474747464646454545444444444343439C
:1025F00043424242424141419C46002B30D4770045
:102600002BD04FEA37071CB503B44FF010004FF042
:102610001001BAF1000F06D0BCF1000FDCBF40F092
:10262000080040F008014FF000000FBCBDE810406A
:102630000BF1010BBBF1010F08BF5FEA170722BFC7
:1026400012F1010211F101014FF0004143F10003C9
:1026500000F0004043EA00007047F9D35708D0E784
:1026600046EA06464FEA164613F1400F1FDD13F106
:10267000200FDFBF16430A46002120335B42BED045
:10268000C3F1200746EA06464FEA164602FA07F764
:1026900046EA070622FA03F2C3F1200701FA07F718
:1026A00042EA070221FA03F14FF00003A7E746EAE6
:1026B000020646EA06464FEA164646EA0106BCBF4F
:1026C00046EA0646360C4FF000034FF000024FF08A
:1026D000000194E72DE9804C70B49A46934691E846
:1026E000380007C831EA400C48BF34EA430C03D530
:1026F000FFF7E6FDFFF780FFF0BCBDE8008C2DE999
:10270000804C70B49A46934691E8380007C810F0A0
:10271000804F08BF13F0804F03D100F005F8FFF79A
:102720006BFFF0BCBDE8008C20F07F4723F07F4CAE
:1027300080EA030000F0004007EB0C03A3F57C5394
:10274000A3F1FE0392F0000F00F0B38095F0000FAC
:1027500000F077802DE901494FEA114021EA004855
:102760004FEA144624EA064700FB06FC08FB06F67F
:1027700007FB08F818EB06484CEB164C00FB07F774
:1027800018EB07484CEB17404FEA124B22EA0B4E6E
:102790004FEA154625EA06470BFB06FC0EFB06F63C
:1027A00007FB0EFE1EEB064E4CEB164C0BFB07F721
:1027B0001EEB074E4CEB174B18EB0B0840F10000DB
:1027C00018EB0E0B58EB000840F100008F1A4FF089
:1027D00000014FF000063CBFC943661B14BFB5EBB8
:1027E000040C00213CBFC943F61B4FEA174427EAFB
:1027F00004454FEA1C472CEA074C04FB076205FB23
:1028000007F70CFB05F616EB074642EB174204FBF5
:102810000CFC16EB0C4642EB1C421BEB060658EB7D
:10282000020241414EEA8E0E46EA9E0601D5BDE8FF
:102830000189B619524141EB0101A3F10103BDE841
:1028400001894FEA144524EA05464FEA114721EA77
:10285000074C05FB07F406FB07F70CFB06F111EB31
:10286000074144EB174405FB0CFC11EB0C4144EB16
:102870001C444FEA124722EA074C05FB07F206FB0D
:1028800007F70CFB06F616EB074642EB174205FB73
:102890000CFC16EB0C4642EB1C456A1854F1000187
:1028A00048BF7047B619524141EB0101A3F1010342
:1028B000704795F0000F37D04FEA114221EA0246E7
:1028C0004FEA144724EA074C02FB07F106FB07F71F
:1028D0000CFB06F414EB074441EB174102FB0CFC24
:1028E00014EB0C4441EB1C414FEA154725EA074C19
:1028F00002FB07F506FB07F70CFB06F616EB07468F
:1029000045EB174502FB0CFC16EB0C4645EB1C4255
:10291000121951F1000148BF7047B619524141EBFD
:102920000101A3F1010370474FEA144524EA05466B
:102930004FEA114721EA074C05FB07F106FB07F7B1
:102940000CFB06F212EB074241EB174105FB0CFCB6
:1029500012EB0C4251EB1C414FF0000648BF704790
:10296000921841EB0101A3F10103704703B40198F0
:102970004100009850EAC12018BF04204A0D18BF3A
:1029800040F0010040F2FF72B2EB515F08BF40F02F
:102990000200012808BF052002B0704710B50029C9
:1029A0000AD00878002807D005487844FEF7D8F800
:1029B000002801D0002010BD0248784410BD00005E
:1029C0000A01000002010000F1EE100A4FF6FF714B
:1029D000C0F2C03120EA010040F04070E1EE100A80
:1029E0007047FDF757BE000002400000000000A045
:1029F0000000000005400000000000C800000000CA
:102A00000C4000000000409C000000001940000045
:102A10000020BCBE0000000034400000BFC91B8E77
:102A200000000004B5400000504BCFD06607E2CF55
:102A3000010000006C4100003E8251AADFEEA73485
:102A400001000000D9420000DCB5A0E23A301F9737
:102A5000FFFFFFFFB4450000FD25A0C8E9A3C14F5B
:102A6000FFFFFFFFFF3F00000000008000000000AC
:102A7000FF3F000000000080000000000000000098
:102A8000000000000102030406070809000000001E
:102A900001020304D02A02080000002010000000F8
:102AA00000020208E02A020810000020B00900001D
:102AB0001C0202081C00000043000000F8FFFFFF9A
:102AC0000C0000000E0000000F0000002E000000AF
:102AD00001000000100000000024F40000000000CD
:04000005080201C527
:00000001FF
