:020000040800F2
:10000000B80A0020850200080D250008C524000854
:1000100009250008ED0B0008D92A0008000000009F
:100020000000000000000000000000008125000822
:10003000F10B0008000000001125000885250008CC
:100040009F0200089F0200089F0200089F0200080C
:100050009F0200089F0200089F0200089F020008FC
:100060009F0200089F0200089F0200089F020008EC
:100070009F0200089F0200089F0200089F020008DC
:100080009F0200089F0200089F0200089F020008CC
:100090009F0200089F0200089F0200089F020008BC
:1000A0009F020008612600089F0200089F020008C6
:1000B0009F0200089F0200089F0200089F0200089C
:1000C0009F0200089F0200089F0200089F0200088C
:1000D0009F020008AD2800089F020008B928000808
:1000E0009F0200089F0200089F0200089F0200086C
:1000F0009F0200089F0200089F0200089F0200085C
:100100009F0200089F0200089F0200089F0200084B
:100110009F0200089F0200089F0200089F0200083B
:100120009F0200089F0200089F0200089F0200082B
:100130009F02000800000000000000009F0200086D
:100140009F0200089F0200089F0200089F0200080B
:100150009F0200089F0200089F0200089F020008FB
:100160009F0200089F0200089F0200089F020008EB
:100170009F0200089F0200089F0200080000000084
:10018000000000009F0200080000000000000000C6
:100190009F02000800000000000000009F0200080D
:1001A0000000000000000000000000009F020008A6
:1001B0009F0200089F0200089F0200089F0200089B
:1001C0009F02000800F002F800F04CF80AA090E846
:1001D000000C82448344AAF10107DA4501D100F002
:1001E00041F8AFF2090EBAE80F0013F0010F18BF83
:1001F000FB1A43F001031847E0340000003500000B
:10020000103A24BF78C878C1FAD8520724BF30C842
:1002100030C144BF04680C60704700000023002414
:1002200000250026103A28BF78C1FBD8520728BF06
:1002300030C148BF0B607047662903F0F481642920
:1002400000F0B880002070471FB503F0DFF900F020
:100250005BFB04000020002103F0C2F9E0601FBD39
:1002600010B510BD00F04CFC1146FFF7EDFF02F099
:1002700035FC00F06AFC03B4FFF7F2FF03BC00F0AA
:10028000ADFC00000948804709480047FEE7FEE74B
:10029000FEE7FEE7FEE7FEE7FEE7FEE7FEE7FEE736
:1002A00004480549054A064B704700004D260008E2
:1002B000C5010008B8040020B80A0020B8060020D4
:1002C000B806002053EA020C00F069802DE9F04BDB
:1002D0004FF00006002B1FBFB3FA83F503FA05F4B5
:1002E00024FA05F65E4012BF1643B2FA82F502FA0E
:1002F00005F4C5F120051EBF22FA05FC44EA0C04F2
:10030000203556EA044C4FEA144418BF641C4FF0E1
:1003100000084FF00009904271EB030C39D300291B
:1003200019BFB1FA81F701FA07F6B0FA80F700FABF
:1003300007F6C7F120071EBF20FA07FC46EA0C06A5
:100340002037B6FBF4FCA7EB0507103F07F01F0BA7
:10035000CBF120062CFA06F60CFA0BFB44BFB34691
:100360000026202FA4BF5E464FF0000B5BEA060C70
:1003700008BF4FF0010B19EB0B0948EB0608ABFB6C
:10038000027C06FB02CC0BFB03CCC01B71EB0C0107
:10039000C1E70B46024641464846BDE8F08B13B51F
:1003A000084318BF4FF0FF300146AFF30080BDE8AF
:1003B0001C4070472DE9F04106460024106875295D
:1003C000314616A510D0AFF30080002802DA404273
:1003D00013A507E031688A0701D512A502E0490795
:1003E00004D511A5012401E0AFF3008000210A2209
:1003F00006F1240709E0B0FBF2FCB0FBF2F302FBCC
:100400001C00303078541846491C0028F3D123468C
:100410002A463046BDE8F04100F00BB8000000006D
:100420002D0000002B0000002000000070477047E6
:1004300070472DE9F0470D4699469246044600F173
:1004400024080168880604D5E06921F010012160C4
:1004500000E00120A84201DD471B00E00027A16960
:100460007A1902EB0900081AA0612078C00602D4AC
:100470002046AFF30080002608E0D4E901211AF8F5
:1004800006009047206A401C761C20624E45F4DB33
:100490002078C0060AD52046AFF3008006E0D4E9F4
:1004A000012130209047206A401C2062381EA7F1AD
:1004B0000107F4DC07E0D4E9012118F805009047B2
:1004C000206A401C2062281EA5F10105F3DC2046AD
:1004D000AFF300802078000602D50220BDE8F08747
:1004E0000120FBE72DE9FF4F0C461E464FF0FF377A
:1004F0008BB0D2E90001DDF860800A908A46C1F332
:100500000A5505B93D46002108464FF00000BAF1F2
:10051000000F00F4400005DA00EB80004FF44001CA
:1005200001EA50004FEA9059B9F1010F00DDB946D8
:100530000A9850EA4A000ED044F61050A5F2FF3552
:1005400045432F14B8F1000F1ED07542291E1EDD41
:10055000C9F100021CE0B8F1010F4FF0000001D01A
:10056000302103E0F24305E02154401CB042FBDBA4
:1005700030460022002121540B99C1F80880C1E9BE
:1005800000200FB0BDE8F08FBD1B6D1CDEE74A46B2
:1005900000DA694206A800F041FA06AB93E80700CA
:1005A00003AB83E8070050460A9902F039FC8DE856
:1005B0000700A0F500501F3800900398002D0ADDB9
:1005C00042F21F014A460844002303A903906846EB
:1005D00002F0A2FE09E0A0F500504A461F380023B1
:1005E00003A90390684602F0ACFE8DE80700000402
:1005F000000C03D04FF0FF30410800E01046B8F186
:10060000000F03D00022009215461EE0751E05D48F
:1006100000F07EF9303262556D1EF9D5B3460122E5
:10062000084302D000227F1C04E02078302801D14A
:1006300000227F1E002A099784D01DE0112D07DAC1
:1006400000F066F9303262556D1C50EA0102F5D1B6
:10065000084302D00098C8B10EE00021681E05E0F2
:10066000235C625C63542254401E491C8142F7DBC8
:10067000AB46A81B401E0990002004F80B000B9805
:10068000099AC0F80880C0E9002B7AE711264FF0DC
:10069000000857E72DE9F04F88460446D21D22F0A6
:1006A000070191B0D1E90001CDE90A0102F080FF14
:1006B00002460B98C00F01D02D2007E0206881076B
:1006C00001D52B2002E0202101EAC000032A099075
:1006D00001D0072A05DB03464146204600F05EF9BB
:1006E0000BE12078800601D5E06900E00620B8F132
:1006F000650F814606D0B8F1660F18D0B8F1670FC4
:1007000070D131E00020B9F1110F009001DB11230D
:1007100001E009F101030AAA01A90CA8FFF7E2FE12
:10072000DDE90C70002609F10105834647E0012050
:100730004B4600904FF000470AAA01A90CA8FFF70A
:10074000D1FEDDE90DB00C995D46002610B909F126
:1007500001000D18B9EB050003D4C0F1FF3609F113
:100760000105A5EB09002BE0B9F1010F01DA4FF00B
:1007700001090020B9F1110F0090484601DD112355
:1007800000E003460AAA01A90CA8FFF7ABFEDDE9C9
:100790000C704D4600268346207800070AD4AB45EE
:1007A00000DA5D4601A8012D04DD411911F8011C94
:1007B000302907D04F4502DA17F1040F04DA01207F
:1007C00082460FE06D1EEEE7002F02DCED1B3E447B
:1007D00003E0781CA84200DD7D1CB81B00F1010A73
:1007E0004FF000472078000703D4AA4501DB4FF003
:1007F000FF3A0021B7F1004F0DF143088DF8431087
:1008000024D002202B23002F01DA7F422D230A213E
:10081000021EA0F1010000DC5FB197FBF1FC97FB29
:10082000F1F201FB1C7C17460CF1300C08F801CDED
:10083000EEE7A8F1010003702188090501D54521E3
:1008400000E06521A0F1010800F8011C09980FA93A
:10085000A1EB0807FF1D00B10120411901EBEA706F
:10086000A1693844081A401EA0612078C00602D44D
:100870002046AFF30080099828B1D4E901219047C0
:10088000206A401C20622078C00622D52046AFF3A3
:1008900000801EE0002E04DBB34502DD01A8805D70
:1008A00000E03020D4E901219047206A401C2062FA
:1008B000761CAAF101005FEA000A0AD100F024F8D0
:1008C000C0680168405CD4E901219047206A401C5F
:1008D0002062281EA5F10105DCDC07E0D4E9012136
:1008E00018F8010B9047206A401C2062381EA7F1BF
:1008F0000107F3DC2046AFF30080032011B041E68E
:100900000048704710000020004870473000002069
:1009100030B5B0F10A0271F100034FEA900E4EEAD1
:10092000817EB0EB0E0061EB91014FEA101E4EEAA2
:10093000017E10EB0E0041EB11114FEA102E4EEA32
:10094000016E10EB0E0041EB11214FEA104E4EEA02
:10095000014E10EB0E0041EB1141401841F1000136
:100960004FEAD00040EA41704FEAD1014FEA8104DA
:1009700044EA907410EB800544EB01046D1944EBDC
:100980000404521BA3414FF0000348BF0A3200D5B4
:1009900030BD401C41F1000130BD00002DE9F041A7
:1009A0001F46044603260168072A01F4006004DBA1
:1009B00008B116A505E016A503E008B115A500E0ED
:1009C00015A521F010002060A069C01EA0610FB124
:1009D000401EA0612046AFF300804FB1D4E9012151
:1009E00038469047206A401C2062C01C206206E006
:1009F000206AFAE7D4E9012115F8010B9047761E29
:100A0000F8D22046AFF30080BDE8F0814E414E00A1
:100A10006E616E00494E4600696E66002DE9F04732
:100A2000814616468AB0354878440DC88DE80D00D9
:100A300032487844801C03AC0DC884E80D0041F6B0
:100A40009B300844372190FBF1F290FBF1F5A5F1C2
:100A5000800501FB12041B3C02D56442012000E02A
:100A60000020DFF898A080460027FA44AAF1BE0AC9
:100A70000EE0E0070AD03246684607EB4701012343
:100A80000AEB810102F05DFC8DE8070064107F1C19
:100A9000002CEED1194F7F44AE3F19E0E80715D086
:100AA00007EB04100DF1180A90E80E008AE80E001A
:100AB000C068F04201D1981908903246012306A976
:100AC00003A802F03EFC03AB83E807006D10641C32
:100AD000002DE3D14FF0010332466946B8F1000F13
:100AE00003A802D002F018FC01E002F02AFCC9E9D8
:100AF0000001C9F808200AB0BDE8F0877C2C00008E
:100B00007546FFF7FDFEAE4605006946534620F0E8
:100B10000700854618B020B5FFF7C2FBBDE82040AE
:100B20004FF000064FF000074FF000084FF0000BA9
:100B3000AC46ACE8C009ACE8C009ACE8C009ACE818
:100B4000C00921F007018D46704710B50446AFF388
:100B500000802046BDE81040FFF78DBB000000007C
:100B600030B44FF0013C50F8042B51F8043BCCFA60
:100B700052F4D51A20D1FCB950F8042B51F8043B9B
:100B8000CCFA52F4D51A17D1B4B950F8042B51F855
:100B9000043BCCFA52F4D51A0ED16CB950F8042BA0
:100BA00051F8043BCCFA52F4D51A05D1002CDAD016
:100BB00030BC4FF00000704729BAB1FA81F111F052
:100BC0001801D1F120008440F2D1CA40CB4012F08C
:100BD000FF0213F0FF0330BCD01A70470149182000
:100BE000ABBEFEE72600020070470000FEE70000F3
:100BF0007047000070B581B00022009290F83C2050
:100C0000012A03D10221084601B070BD0E680122FD
:100C10000A2E80F83C2009D3B2B25200D0F800E08E
:100C200012FA86F21E3A0EF10C0305E0D0F800E04D
:100C300006EB46020EF110034FF0070C1D680CFA8C
:100C400002F4A5431D608D681C6805FA02F2224378
:100C50001A60496806290FD801EB81014A1F7146C5
:100C60001F2351F8345F934025EA03030B60B3B2AE
:100C700003FA02F214E000BF01EB81030C29B2B2C7
:100C800004D8714651F8304F233B03E0714651F8C8
:100C90002C4F413B1F259D4024EA05059A400D60DD
:100CA0000B6842F2043CC4F2010C1A43ACF54173E8
:100CB0009E450A6006D0002180F83C10084601B02D
:100CC00070BD00BF1221112EC1F2000118BF8E426B
:100CD0003AD1DCF800208E4222F48002CCF80020C9
:100CE000DCF8002042F40002CCF80020E3D140F20E
:100CF0000801C2F2000109684DF68362C4F21B329A
:100D0000A1FB0212910C01EB8101490000910099B5
:100D10000029D0D000990139009100990029CAD04A
:100D200000990139009100990029C4D00099013936
:100D3000009100990029BED00099013900910099D5
:100D40000029E7D1B7E700BF122EB4D1DCF80010BC
:100D500021F40001CCF80010DCF8001041F480010F
:100D6000CCF80010A7E70000002804BF012070475E
:100D700010B50446006C00283ED0206CC00645D457
:100D8000206C41F202118843023042F204312064A7
:100D9000C4F20101086820F4403008600A6894E851
:100DA00009101A43D4F810E00A604168012321F4C5
:100DB000807141604168C0F6007341EA0E214160D4
:100DC000416821F040714160416841EA0C01416095
:100DD000816821F400618160E1688268114381606B
:100DE000A16A8268994222F070628260826813D19F
:100DF00022F0405119E000BF204600F065F80020C5
:100E0000606484F83C00206CC006B9D50120002144
:100E100084F83C1010BD00BF11438160816821F04F
:100E200040518160E16A826811438160816821F0EC
:100E3000020181608168227E94F8203041EA4201FB
:100E40008160416883B141F40061416041684EF2C4
:100E5000000221F460414160616ACFF6FF7243688D
:100E600002EB4131194301E021F400614160C16AA4
:100E700040F2000C21F47001C162E2696169CFF6B1
:100E8000F07CC36A0CEB02521A43C262826822F4FD
:100E90000072826094F83020836843EA42228260C4
:100EA000826822F480628260826842EA81218160E5
:100EB00000206064216C012262F3010121640021A1
:100EC00084F83C1010BD000080B586B042F20001ED
:100ED0000068C4F20101002288420592049201D008
:100EE00006B080BD43F630000092C4F202004369B0
:100EF00043F480734361436903F480730093009B60
:100F00000092036843F001030360006800F00100F1
:100F1000009000980320CDE9010001F5604001A98F
:100F2000039200F003F806B080BD00002DE9F04FF9
:100F300082B000F13E4241F6000502F1FF77C4F2B3
:100F40000205072243F6004E4FEAB726A84208BF23
:100F50000622C4F2010E062E38BF4FEAB722012541
:100F6000002600274FF00008009208E008F1010871
:100F70000437B8F1100F06F1020600F0A7800C68E4
:100F800005FA08F914EA090FF0D0D1F804B00322E9
:100F90000BF0030CACF10104B240012C6FEA020A21
:100FA00010D88268CC6802EA0A02B4402243826008
:100FB0004268CBF3001422EA090204FA08F422433F
:100FC000426005E0BCF1030F02D14FF0030C20E0BA
:100FD000C2688C6802EA0A02B4402243BCF1020FE4
:100FE000C26016D16FF0030202EA58020244D2F83E
:100FF00020C007F01C050F230C69AB402CEA03034B
:1010000004FA05F52B431362D1F804B001250BF067
:10101000030C02680CFA06F302EA0A021A431BF4F4
:10102000403F0260A2D0002243F644030192C4F282
:1010300002031A684FF6084C42F480421A601A689C
:10104000CFF6FF7C02F480420192019A28F003025D
:10105000724452F80C3007F00C050F24AC40A34347
:10106000009C04FA05F52B4342F80C30DEF808200A
:101070004B6842EA090543F60C4CDC0258BF22EAF1
:101080000905CEF80850C4F2010CDCF800209C02DF
:1010900042EA090558BF22EA0905CCF80050DEF8FB
:1010A00004209C0342EA090558BF22EA0905CEF84C
:1010B0000450DEF80020DB0342EA090558BF22EAAB
:1010C0000905CEF80050012550E700BF02B0BDE889
:1010D000F08F0000002A08BF0904816170470000FA
:1010E00040F2B040C2F200000068704770B5B8B37B
:1010F000044690F83D0028B9002084F83C002046C2
:1011000000F0B0F8242084F83D002068016821F048
:1011100001010160016841F400410160016821F4AE
:101120000041016000F07EFA48F28041C0F21E01E9
:1011300040F60013D4F804E088424FF00001C0F2FA
:101140003D0348F2A16C4FF0000238BF01219842E4
:10115000C0F2010C38BF0122E64538BF0A460AB189
:10116000012070BD4DF68361C4F21B31A0FB01125A
:101170002168950C4B684FF4967623F03F0343EAC1
:101180009243754344F6D3564B60C1F262060B6A34
:10119000A5FB0656B50923F03F03E64538BF950C7D
:1011A0006A1C1A430A62CA6948F2A0664CF6FF73C9
:1011B000C0F20106B64522EA03020BD801384FEA15
:1011C0004E03B0FBF3F001306FF31F30042898BFDB
:1011D00004201EE0A368013863B119230EFB03F35A
:1011E000B0FBF3F001306FF31F3078B100F58040B1
:1011F00008E000BF0EEB4E03B0FBF3F001306FF3DD
:101200001F3028B100F5004003E000BF012000E0DE
:1012100001201043C8610868D4E9072320F0C0000A
:10122000104318430860886848F2FF3204F10C0646
:1012300090434CCE18431043A5698860C86820F0DD
:10124000FF0030432843C860086840F00100086090
:1012500000202021206484F83D10206384F83E00A3
:1012600070BD0000B0B586B0016845F20040C4F220
:101270000000814202D006B0B0BD00BF002443F69A
:1012800030050194C4F20205296800F5D83041F018
:1012900002012960296801F00201019101994FF4CE
:1012A000407101911221CDE902140321049104211E
:1012B000059101A9FFF73AFE0094286940F4001057
:1012C0002861286900F400100090009806B0B0BDB5
:1012D00040F2000040F2B041C2F20000C2F2000150
:1012E00000780A68104408607047000080B543F633
:1012F0000040C4F20200016841F40071016001681D
:1013000041F480610160016841F480710160032053
:1013100000F08AF8002000F005F800F027F800201F
:1013200080BD000070B540F20006C2F2000640F237
:1013300008013278C2F200014FF47A730968B3FBF6
:10134000F2F20446B1FBF2F1084600F071FC0F2CFA
:101350004FF0010508D838B94FF0FF302146002280
:10136000002500F035F87460284670BD82B000207A
:1013700043F640010190C4F202014A6842F48042FF
:101380004A604A6802F480420192019A009008681B
:1013900040F080500860086800F08050009000988D
:1013A000072002B000F040B8002848BF7047C1B223
:1013B00000F01F00012202FA00F04EF20012CEF2FD
:1013C000000242EAD10121F00301086070470000E9
:1013D00010B54EF60C5CCEF2000CDCF80030C3F316
:1013E000022E8EF00704042C28BF0424BEF1030350
:1013F0004FF0FF3E0EFA04F438BF0023A14399409A
:101400000EFA03F39A43114300F00F0200F1604318
:101410000901043A03F564436244002848BF02F11D
:101420000C03197010BD00004EF60C51CEF20001F5
:101430000A684FF6FF031A4060F30A2242F0806008
:1014400040F0FD700860704770B582B000200190D8
:1014500043F64000C4F202000168402641F080518A
:1014600001600068C4F20E2600F0805001900198DF
:1014700047F204050120C4F200053060FFF730FE9A
:10148000044600BF2868C00306D4FFF729FE001BEE
:10149000B0F57A7FF6D90EE001207060FFF720FEEC
:1014A000044600BF2868800308D4FFF719FE001B1C
:1014B000B0F57A7FF6D9032002B070BD002002B0EB
:1014C00070BD00002DE9F041002800F08B8043F64C
:1014D0000808C4F202080446D8F8F8030D4600F0E4
:1014E0000F00884207D288F8F853D8F8F80300F0C4
:1014F0000F00A84276D12068810717D5410705D58E
:10150000D8F8001041F4E051C8F80010010705D5E3
:10151000D8F8001041F46041C8F80010D8F8001065
:10152000A26821F0F0011143C8F80010C0073FD1B4
:10153000D8F8F80300F00F00A84207D988F8F8534C
:10154000D8F8F80300F00F00A8424BD120684107FB
:1015500007D5D8F80010E26821F4E0511143C8F82B
:101560000010000708D5D8F80000216920F4604079
:1015700040EAC100C8F8000000F07CF8D8F800107C
:1015800043F2C062C1F30311C0F60002515C40F2A5
:10159000080220FA01F140F20400C2F200000068E3
:1015A000C2F200021160FFF7BDFE0020BDE8F0812D
:1015B0006068811E022907D258F8081C89015CBFA7
:1015C0000120BDE8F08111E0012807D158F8081C7E
:1015D00089035CBF0120BDE8F08107E058F8081CD2
:1015E000890703D40120BDE8F08100BFD8F80010BE
:1015F00021F003010843C8F80000FFF771FD06461B
:1016000041F28837D8F80000616800F00C00B0EBB8
:10161000810F8DD0FFF764FD801BB842F2D9032003
:10162000BDE8F08140F2080043F60801C2F2000074
:10163000C4F202010068096843F2D062C1F382215A
:10164000C0F60002515CC8407047000040F208003C
:1016500043F60801C2F20000C4F202010068096802
:1016600043F2D062C1F34231C0F60002515CC8407F
:101670007047000010B543F60404C4F20204606829
:10168000C0F3810142F20040C0F2F400DFE801F053
:101690004402081841F20020C0F27A0010BD00BFD9
:1016A000216801F03F02216823684902C3F38811D1
:1016B00016D4A1FB00010023FEF704FE17E000BFD3
:1016C000216801F03F02216823684902C3F38811B1
:1016D00016D4A1FB00010023FEF7F4FD17E000BFC4
:1016E00041F20020C0F27A004843B0FBF2F02168DA
:1016F0000222C1F3014102EB4101B0FBF1F010BD48
:1017000041F20020C0F27A004843B0FBF2F02168B9
:10171000C1F30271B0FBF1F010BD00002DE9F04102
:1017200082B0002800F096800446007843F6000658
:10173000C007C4F202062BD0B06800F00C000428E9
:1017400020D0B06800F00C00082802D17068400278
:1017500018D4B06800F00C000C2802D17068400268
:1017600010D46068B0F5803F07D0B0F5A02F40F0EE
:101770003B81306840F480203060306840F4803035
:1017800030603BE13068800302D56068002861D09A
:101790002078800722D5B06810F00C0F11D0B06807
:1017A00000F00C00082802D17068400209D5B0682A
:1017B00000F00C000C2840F09F807068400200F19F
:1017C0009B803068800702D5E068012842D13068EC
:1017D000216920F0F80040EAC1003060207800075D
:1017E0003CD42078400751D4A56985B3B06800F097
:1017F0000C00082840F0A880012D2BD07068E1690A
:1018000000F480028A4225D1216A00F03F028A4218
:1018100020D147F6C071626A0140B1EB821F19D135
:10182000A16A4FF6FF73C903994300F44032A1F552
:1018300080318A420ED1E16A00F07062B2EB016F32
:1018400008D1216B00F0E040B0EB017F02D1002015
:1018500034E100BF012002B0BDE8F08160690028DA
:1018600040F20000C4F247205ED00121C0F8801E83
:10187000FFF736FC054600BF706F8007B1D4FFF755
:101880002FFC401B0228F7D9C5E000BF306C10F0D8
:1018900080580AD100200190306C40F080503064B4
:1018A000306C00F080500190019847F20007C4F2BC
:1018B00000073868C00511D4386840F4807038607B
:1018C000FFF70EFC054600BF3868C00506D4FFF7D9
:1018D00007FC401B0228F7D99DE000BFA068012843
:1018E00005D0052852D1306F40F004003067306FCA
:1018F00040F00100306753E0E068002860D000202D
:10190000C4F2472001210160FFF7EAFB054600BF52
:10191000306880073FF55BAFFFF7E2FB401B022812
:101920004FF00300F4D9C9E00021C0F8801EFFF792
:10193000D7FB0546706F80077FF553AFFFF7D0FBED
:10194000401B0228F6D966E00027C4F24727002092
:101950003866FFF7C5FB022D05460BD130688001C4
:101960005ED5FFF7BDFB401B02284FF00300F5D901
:10197000A4E000BF306880017FF569AFFFF7B0FBDE
:10198000401B02284FF00300F4D997E0316F002884
:1019900021F001013167316F21F00401316763D01B
:1019A000FFF79EFB054641F2883700BF306F800786
:1019B0006CD4FFF795FB401BB842F7D92BE000BF72
:1019C0000020C4F2472000210160FFF789FB054693
:1019D000306880077FF502AFFFF782FB401B0228CB
:1019E0004FF00300F4D969E03168002821F4803118
:1019F0003160316821F48021316051D0FFF770FBF4
:101A0000054600BF306880033FF5C2AEFFF768FBB4
:101A1000401B6428F6D9032002B0BDE8F08100BF66
:101A200004F11C052FCD246B084340EA8210D90332
:101A30004FF6FF729143A1F5803140EA05600843FB
:101A400040EA0470706001203866FFF749FB0446E5
:101A5000306880013FF5FBAEFFF742FB001B022818
:101A60004FF00300F4D929E0FFF73AFB054641F2B5
:101A7000883700BF306F800708D5FFF731FB401B68
:101A8000B8424FF00300F5D918E000BFB8F1000FDD
:101A90007FF4AAAE306C20F080503064A4E600BF22
:101AA000FFF71EFB0546306880037FF571AEFFF738
:101AB00017FB401B64284FF00300F4D902B0BDE8C7
:101AC000F081000070B538B10446406A30B10020A2
:101AD000206104F1140007E0012070BD6068B0F5DA
:101AE000827F03D004F11C00002101600026A66261
:101AF00094F8510020B9204684F8506000F03CF87A
:101B0000022084F8510094E80F0001F48271056806
:101B100002F4044225F040050560114403F400621C
:101B20002369114403F002026369114403F00102C6
:101B3000A369E569114403F40072114405F0380209
:101B4000256A114405F08002A56A114305F400528C
:101B500011430160626A042101EA134102F010029C
:101B600011444160C16921F40061C16101206665D1
:101B700084F85100304670BD2DE9F04385B040F641
:101B80000004C4F202040068A4F5E831884203D0DE
:101B900005B0BDE8F08300BF002643F63000009694
:101BA000C4F202000169E94641F480410161016922
:101BB000022701F4804100910099009601684FF0DE
:101BC000030841F004010160016801F00401009183
:101BD00000990096016841F00201016000684946E1
:101BE00000F0020000900098072004902046CDE904
:101BF00000770296CDF80C80FFF798F90420CDE924
:101C00000007052520464946CDE902680495FFF7FF
:101C10008DF94FF40050CDE90007A4F580604946E6
:101C2000CDE902680495FFF781F905B0BDE8F083BE
:101C3000411E0020B0EB116F1CBF012070474EF217
:101C40001002CEF2000251604EF62351CEF2000196
:101C5000F0230B70072190601160704770470000FF
:101C600070470000B0B590F83C20012A04BF022064
:101C7000B0BD01F108053CCDD1E900CE23F47C5381
:101C800022F470521A432EF4F0431A432CF4E0432A
:101C90001A4324F4C0431A432A43C96922F48042F8
:101CA000036811435964002180F83C100846B0BD18
:101CB00010B590F83C20012A4FF0020251D080F874
:101CC0003D200268D2F804E0D2F808C00C682EF07B
:101CD0007003234341F2FF74C4F20004A242536034
:101CE0000EDC40F2FF73C4F200039A4216DCB2F13C
:101CF000804F2BD040F20043C4F2000324E000BF29
:101D000040F2FF33C4F201039A4213DC41F60003B0
:101D1000C4F200039A4219D0002313E040F60003F6
:101D2000C4F200039A4211D040F60043C4F200030B
:101D30000AE000BF44F20003C4F201039A4205D056
:101D400040F20043C4F201039A4204D149682CF0E6
:101D50008003194391600121002280F83D1080F832
:101D60003C20104610BD0000002804BF0120704731
:101D700010B5044690F83D0028B9002084F83C00D6
:101D8000204600F01FF8022084F83D002068211D45
:101D900000F076FC012084F8460084F83E0084F8C8
:101DA0003F0084F8400084F8410084F8420084F841
:101DB000430084F8440084F8450084F83D00002086
:101DC00010BD000080B582B0006844F20041C4F24A
:101DD000010188421CBF02B080BD0020019043F683
:101DE0004400C4F202000168002241F400310160A5
:101DF0000068002100F40030019001981920FFF7DD
:101E0000E7FA192002B0BDE88040FFF7CDBA000024
:101E100090F83D1001291CBF01207047022180F875
:101E20003D10006841F2FF72C168C4F200029042A6
:101E300041F00101C1600DDC40F2FF71C4F200010C
:101E4000884215DCB0F1804F2AD040F20041C4F244
:101E5000000123E040F2FF31C4F20101884213DCAB
:101E600041F60001C4F20001884219D0002113E0BC
:101E700040F60001C4F20001884211D040F6004152
:101E8000C4F200010AE000BF44F20001C4F2010103
:101E9000884205D040F20041C4F20101884206D1D7
:101EA000816801F00701062904BF0020704701681E
:101EB00041F0010101600020704700007047000000
:101EC00010B5016804460869800744BFC8685FEA26
:101ED000807039D40869400744BFC8685FEA407021
:101EE0003ED40869000744BFC8685FEA007045D463
:101EF0000869C00644BFC8685FEAC0604AD4086980
:101F0000C0071CBFC8685FEAC07051D108690006ED
:101F100044BFC8685FEA006052D40869400644BF05
:101F2000C8685FEA406053D40869800646BFC86845
:101F30005FEA806010BD6FF0200220460A61BDE8B4
:101F40001040FFF78DBE00BF6FF002000861012056
:101F500020778869800743D02046FFF7AFFF45E030
:101F60006FF00400086102202077886910F4407F38
:101F700040D02046FFF7A2FF42E000BF6FF008000C
:101F8000086104202077C86980073DD02046FFF70C
:101F900095FF3FE06FF01000086108202077C869C6
:101FA00010F4407F3AD02046FFF788FF3CE000BFA6
:101FB0006FF001000861204600F0CCF92168A5E728
:101FC0006FF0800008612046FFF748FE2168A4E713
:101FD0006FF040000861204600F0BEF92168A3E7D9
:101FE000204600F04FF8204600F0B2F921680020AA
:101FF00020776FE7204600F045F8204600F0A8F96A
:102000002168002020776CE7204600F03BF820464E
:1020100000F09EF921680020207769E7204600F053
:1020200031F8204600F094F921680020207766E717
:1020300080B586B001680020C4F20100814201D061
:1020400006B080BD002143F630020191C4F20202C5
:10205000136800F5803043F001031360126802F04A
:1020600001020192019A4FF4807201920222CDE99D
:10207000022104910121059101A9FEF757FF06B045
:1020800080BD0000704700002DE9F04390F83C301F
:10209000012B04BF0220BDE8F0834FEAB202032AFD
:1020A00000F2FC80DFE802F0023E7EBE036840F2F0
:1020B00000471A6A43F4806522F001021A621C6A22
:1020C0001A46D3F804E052F818CF8E6824F00204C0
:1020D000C4F20107BD4244EA060405D1CE6824F0EB
:1020E0000C0426F0040634430E68BD4207D1D1E942
:1020F00005572EF4407E45EA0E0545EA070E2CF002
:1021000073073743C3F804E09F614F6809695F6351
:102110001C629F6947F008079F619F6927F00407C9
:102120009F61B1E0036840F200481A6A43F4806599
:1021300022F010021A621C6A1A46D3F804C052F840
:1021400018EF8F6824F02004C4F20108454544EAE2
:10215000071407D1CF686FF0400624F0C00406EAE8
:1021600007163443D1F80090454506D1D1E905560C
:102170002CF440672E4347EA860C2EF4E64747EAE4
:102180000927C3F804C09F614F6809699F631C62F7
:102190009F6947F400679F619F6927F480679F618B
:1021A00071E000BF036840F200481A6A43F480659A
:1021B00022F480721A621C6A1A46D3F804C052F8DC
:1021C0001CEF8F6824F40074C4F20108454544EA0A
:1021D000072408D1CF6840F2FF463F0224F4406450
:1021E00027EA06063443D1F80090454506D1D1E9E7
:1021F00005562CF440572E4347EA061C2EF0730771
:1022000047EA0907C3F804C0DF614F680969DF6363
:102210001C62DF6947F00807DF61DF6927F0040708
:10222000DF6131E0036840F200451A6A43F48067D9
:1022300022F480521A621A46D3F820C05C6852F821
:102240001CEFD1F800808E68C4F20105AF4204D1C2
:102250004D6924F4804444EA85142CF4005747EA7D
:1022600006372EF4E64646EA08265C60DE614E68D4
:1022700009691E641F62DF6947F40067DF61DF6977
:1022800027F48067DF610902136819431160002198
:10229000002280F83C200846BDE8F083012100229E
:1022A00080F83C200846BDE8F0830000002804BF09
:1022B0000120704710B5044690F83D0028B9002071
:1022C00084F83C00204600F01FF8022084F83D000E
:1022D0002068211D00F0D4F9012084F8460084F81C
:1022E0003E0084F83F0084F8400084F8410084F800
:1022F000420084F8430084F8440084F8450084F8E0
:102300003D00002010BD000080B582B000680021B3
:10231000C4F2010188421CBF02B080BD00200190C0
:1023200043F64400C4F202000168002241F00101BA
:1023300001600068002100F001000190019819205F
:10234000FFF746F8192002B0BDE88040FFF72CB82F
:10235000704700007047000070470000002804BF6D
:102360000120704710B5044690F83D0028B90020C0
:1023700084F83C00204600F021F8242084F83D0039
:102380002068C16821F40051C160204600F016FAAF
:102390002068016921F490410161416921F02A011D
:1023A0004161C16841F40051C160002020212064D6
:1023B00084F83D1084F83E1010BD0000F0B587B0E1
:1023C000006844F6000140F20044C4F20001C4F287
:1023D000020400258842CDE90555CDE90355029553
:1023E00028D041F20001C4F20101884267D10020E7
:1023F00043F630010190C4F202014A69252542F0FA
:1024000010024A614A6902F010020192019A019099
:102410000A6842F002020A60096801F002010191B3
:102420000199C02102910221CDE9031003200590FA
:1024300037E000BF43F630000195C4F202000169A5
:10244000022641F4802101610169032701F4802102
:10245000019101990195016841F004010160016851
:1024600001F00401019101990195016841F0020117
:102470000160006802A900F002000190019820208C
:1024800002900720069004F58060CDE9036505976A
:10249000FEF74CFD4FF48060CDE904572725CDE9C8
:1024A00002060720069002A92046FEF73FFD2846B7
:1024B00000210022FEF78CFF2846FEF775FF07B0CB
:1024C000F0BD0000FEE7000040F20821C2F200016A
:1024D000884240F27001C2F200010BD040F24C225F
:1024E000C2F2000290421CBF4FF0FF30704701F172
:1024F0000C0000E0081D0068D0F88010D0F88400BF
:10250000081A00F07F007047FEE70000FEE70000B9
:102510007047000040F27000C2F20000002101701C
:1025200040F29021C2F20001416040F2082140F2E5
:10253000A03240F2183340F2284CC2F20001C2F23D
:102540000002C2F20003C2F2000C09688260C3609C
:10255000C0F810C0486940F00100486140F24C20CA
:10256000C2F200000068426942F001024261CA689A
:1025700042F02002CA60C16841F02001C16070478A
:1025800070470000FEF7A4BE80B594B0002043F66B
:1025900040010C90CDE90A00CDE908000690CDE994
:1025A0000400CDE902000190C4F202010A6842F081
:1025B00080520A60096801F080510191019947F247
:1025C00000010190C4F200010A6842F440420A602E
:1025D0000968012201F44041019101990221CDE9EC
:1025E0000D1008200F90B4200A921022CDE910019E
:1025F00007A807910B92CDE91211FFF78FF828B1C8
:10260000EFF3108072B600BFFEE700BFFEF71CFFBD
:1026100020B1EFF3108072B6FEE700BF0F200290EA
:1026200002200390002004904FF4A05005904FF436
:102630008050069002A80521FEF744FF20B1EFF379
:10264000108072B6FEE700BF14B080BD4EF6885011
:10265000CEF20000016841F4700101607047000093
:1026600080B540F27810C2F20000FFF729FC40F27A
:10267000C010C2F20000BDE88040FFF721BC00009E
:1026800010B540F6FF3E0368C4F2000E40F2004C65
:102690007045C4F2010C27DCB0F1804F31D040F21C
:1026A0000042C4F2000290422BD040F60002C4F275
:1026B0000002904225D041F6FF72C4F2000290421F
:1026C00029DC70453CDCB0F1804F5FD040F2004225
:1026D000C4F20002904259D040F60002C4F2000257
:1026E000904253D056E000BF40F60042C4F20002D0
:1026F000904206D0604504D00022C4F2010290420C
:10270000D9D14A6823F07003134341F6FF72C4F233
:1027100000029042D5DD43F6FF72C4F201029042FE
:1027200022DC42F20002C4F2000290422ED00022CB
:10273000C4F20102904229D0604527D02AE000BFB0
:1027400040F60042C4F2000290421FD041F600025F
:10275000C4F20002904219D041F60042C4F20002D5
:10276000904213D016E000BF44F20002C4F201020E
:1027700090420BD044F60002C4F20102904205D010
:1027800044F20042C4F20102904203D1CA6823F429
:102790004073134323F080024B69D1F800E08C684A
:1027A0001A430260C46240F48062C0F828E06245C7
:1027B00004BF096901630121416110BD10B50446E0
:1027C0000068D4E902C22369016921F44051114330
:1027D0000161626943EA0C01E3691143C26819436C
:1027E00049F20C639A431143C1604169A26921F423
:1027F000407141F20043114340F48062C4F201038E
:102800009A42416102D1FEF721FF01E0FEF70AFF83
:10281000E16963681922B1F5004FA0FB020123D1E1
:102820005A00DB0FFDF74EFD48F21F51C5F2EB11C8
:10283000A0FB01235A094FF69C73C0F6FF7303F106
:10284000805302FB0300322303EBC000A0FB010115
:102850004FF4F87000EA111000EB0210C1F34211BE
:1028600008442168886010BD9A009B0FFDF72AFD7F
:1028700048F21F51C5F2EB11A0FB01235A094FF694
:102880009C73C0F6FF7302FB0300322303EB0010BE
:10289000A0FB0101F02000EA511000EB0210C1F38F
:1028A000431108442168886010BD000040F20820F0
:1028B000C2F2000000F006B840F24C20C2F2000064
:1028C000AFF3008002681368D2F80CC099061FD5D8
:1028D0001CF020011CD01168516840F20822C2F29D
:1028E0000002904236D040F24C22C2F200029042E6
:1028F0003ED140F27000C2F20000C068D0F88020E3
:10290000D0F88430013202F07F029A4230D031E0B8
:1029100019062DD51CF080012AD040F20821C2F200
:10292000000188422CD040F24C21C2F200018842C2
:1029300018BF704740F22840C2F20000D0F8802053
:10294000D0F884309A4225D10868C16821F080010E
:10295000C160704740F27000C2F200004068D0F8D9
:102960008020D0F88430013202F07F029A4201D1F7
:10297000704700BFD0F88030C154C0F88020704745
:1029800040F2A030C2F20000D0F88020D0F88430AD
:102990009A42D9D0D0F88420825CD0F884300133B8
:1029A00003F07F03C0F88430086801684260704714
:1029B00040F20821C2F20001884213D040F24C21BB
:1029C000C2F2000188420AD140F27000C2F2000057
:1029D000C168D1F88000D1F88420904210D14FF026
:1029E000FF30704740F27000C2F200004168D1F839
:1029F0008000D1F88420904204BF4FF0FF30704730
:102A0000D1F88400085CD1F88420013202F07F0202
:102A1000C1F884207047000080B500285BD440F2E4
:102A20000822C2F20002914228D040F24C22C2F2A7
:102A30000002914218BF80BD40F27003C2F2000351
:102A4000196940F24C2CD1F8802003F1100E0132AC
:102A500002F07F02C2F2000CD1F884309A422DD1EC
:102A6000D1F884309A4229D1D1F884309A4225D1C4
:102A7000D1F884309A42EFD020E000BF40F27003DA
:102A8000C2F20003996840F2082CD1F8802003F1CB
:102A9000080E013202F07F02C2F2000CD1F884303D
:102AA0009A420BD1D1F884309A4207D1D1F88430C0
:102AB0009A4203D1D1F884309A42EFD0D1F88030D5
:102AC000C854DEF80000C0F88020DCF80000C168BF
:102AD00041F08001C16080BDFEE7000092B040F689
:102AE0000004C4F20204FEF701FCFFF74DFD0026CE
:102AF00043F63000CDE904660996C4F2020001688D
:102B0000002241F00401016001684FF4807701F078
:102B10000401099109990996016841F08001016059
:102B2000016801F08001099109990996016841F055
:102B300001010160016801F00101099109990996FB
:102B4000016841F00201016000684FF4807100F0FB
:102B50000200099009982046FEF7BCFA4FF4005095
:102B600001904FF4041001ADCDE90206204629463C
:102B7000FEF7DCF90C2001900220CDE902060320CB
:102B8000049007200590A4F500602946FEF7CEF9D1
:102B90000197012720462946CDE902760496FEF7E3
:102BA000C5F940F284000123A4F56841C2F2000097
:102BB000C0F6007304964FF48032067680F82060E9
:102BC000C0E90A36C76180F8306080E84600C0E995
:102BD00003664761FEF7C8F820B1EFF3108072B6C4
:102BE000FEE700BF40F28400C2F2000001A9CDE977
:102BF00001670396FDF7FEFF20B1EFF3108072B678
:102C0000FEE700BF40F2C010A4F54441C2F200004C
:102C100044F24F62002580E82600C0E90325856163
:102C2000FFF7A2F820B1EFF3108072B6FEE700BF05
:102C300040F24C20A4F5E031C2F200000C234FF426
:102C4000E13280E82600C0E90355C0E90535C561D9
:102C5000FFF784FB20B1EFF3108072B6FEE700BFF0
:102C600040F20800C2F2000000684EF22F318009E5
:102C7000C0F2BE01A0FB010140F278104FF0FF3717
:102C80000022A4F58433C2F2000007EBD12140F208
:102C9000E737CDE910220792C0E90031C0E90227E9
:102CA000C0E904228261FFF701FB28B1EFF3108035
:102CB00072B600BFFEE700BF40F27810C2F200001B
:102CC00010A9FEF7F5FF28B1EFF3108072B600BF30
:102CD000FEE700BF602009904FF4FA700A9040F2BE
:102CE00078100025C2F2000009A90022CDE90B5599
:102CF000CDE90D550F95FFF7C7F928B1EFF3108017
:102D000072B600BFFEE700BF4FF40050069040F2DD
:102D10007810C2F2000001A90595CDE90355CDE96F
:102D200001550895FEF79EFF20B1EFF3108072B6B3
:102D3000FEE700BF40F27810C2F20000FFF778F91A
:102D400040F2CC00A4F5DA31C2F2000048F2A062F1
:102D500000254FF48043C0F2010280E82600C0E95C
:102D60000353C0E90555C0E90755FEF7BFF928B17F
:102D7000EFF3108072B600BFFEE700BF40F20820FC
:102D8000A4F57841C2F200000C234FF4E13280E850
:102D90002600C0E90355C0E90535C561FFF7DEFA35
:102DA00020B1EFF3108072B6FEE700BFFFF7B2FB71
:102DB00040F22010A4F5E831C2F200004FF4827214
:102DC0000023022701264FF40075282480E80E0016
:102DD0000A21C0E90337C0E90565C461C0E90833C9
:102DE000C0E90A31FEF76EFE20B1EFF3108072B633
:102DF000FEE700BF40F2C010C2F20000FFF708F883
:102E000040F24C24C2F200042046FFF75DFB00288C
:102E1000FAD02046FFF7CCFD2146FFF7FDFDF3E792
:102E20005FEA400C08BF91F0000F4FEA8C234FEA95
:102E3000C12243EA51514FEA1C5018BF00F5F0403F
:102E40004FEA300018BF41F000415FEA6C5C00F0CF
:102E50002980BCF1FF3F08BF40F080407047130C51
:102E600006BF12044FF0100C4FF0000C130E04BFFD
:102E700012020CF1080C130F04BF12010CF1040C28
:102E8000930F04BF92000CF1020CD30F04BF520049
:102E90000CF1010C11464FF00002A0F11F00A0EB55
:102EA0000C00704711F0004F08BF704731F000412F
:102EB0003FF4D5AF0B0C06BF09044FF0100C4FF0D8
:102EC000000C0B0E04BF09020CF1080C0B0F04BF21
:102ED00009010CF1040C8B0F04BF89000CF1020CEA
:102EE000CB0F04BF49000CF1010CCCF1200322FAF6
:102EF00003F341EA030102FA0CF2A0EB0C0000F12B
:102F00000100704723F07F4720F07F4C80EA0300E8
:102F100000F00040ACEB070303F57C5303F1FF0323
:102F20002DE9804909B44FEA144324EA03484FEAE3
:102F3000154B25EA0B4E0FF2042606EB13273E78BD
:102F400003FB0667C7F5000707FB06F64FEAD64600
:102F500006F102064FEA543707FB066CCCF1005C21
:102F60004FEA1C472CEA074C0CFB06F507FB06F45E
:102F700004EB15464FEA961649085FEA320234BF61
:102F800000204FF000404FEAD13706FB07FC4FEA24
:102F90001C4C0CFB0BF7D21B03FB0CF761EB07017E
:102FA0000CFB0EF7B0EB074072EB17420CFB08F777
:102FB00034BFA2EB0742B2EB074261EB17414FEA85
:102FC0000C444FEA910706FB07FC4FEA1C4C0CFB34
:102FD0000BF7B0EBC74072EB573203FB0CF734BF73
:102FE000A2EBC742B2EBC74261EB57310CFB0EF7C5
:102FF000B0EBC70072EB57720CFB08F734BFA2EBC3
:10300000C702B2EBC70261EB57714FEA816141EA37
:1030100092114FEA826242EA90124FEA806004EB1A
:10302000CC04039F4FEAD13706FB07FC4FEA1C4C48
:103030000CFB0BF7D21B03FB0CF761EB07010CFB3E
:103040000EF7B0EB074072EB17420CFB08F734BFEA
:10305000A2EB0742B2EB074261EB17414FEA8C55F6
:1030600004EB9C244FEA910706FB07FC4FEA1C4C3B
:103070000CFB0BF7B0EBC74072EB573203FB0CF7BE
:1030800034BFA2EBC742B2EBC74261EB57310CFB36
:103090000EF7B0EBC70072EB57720CFB08F734BFAA
:1030A000A2EBC702B2EBC70261EB57714FEA816135
:1030B00041EA92114FEA826242EA90124FEA80603E
:1030C00015EB4C2544F100044FEAD13706FB07FC11
:1030D0004FEA1C4C0CFB0BF7D21B03FB0CF761EB0C
:1030E00007010CFB0EF7B0EB074072EB17420CFB2D
:1030F00008F734BFA2EB0742B2EB074261EB17417E
:103100004FEA813141EA92414FEA823242EA9042EB
:103110004FEA80304FEA0C7615EB1C1544F10004A1
:1031200048EA03434EEA0B484FF0000EB2EB080C9E
:1031300071EB030724BF624639464EEB0E0E4FF08B
:10314000000B0018524149414BEB0B0BB2EB080C42
:1031500071EB03077BF1000B24BF624639464EEB4F
:103160000E0E4FF0000B0018524149414BEB0B0B78
:10317000B2EB080C71EB03077BF1000B24BF624636
:1031800039464EEB0E0E51EA020718BF46F0010613
:1031900016EB0E7655F1000254F1000103D5BDE89F
:1031A0008901BDE80088BDE88901BDE80048B6197D
:1031B000524141EB0101A3F10103704780807F7E02
:1031C0007D7C7B7A7978777676757473727171709D
:1031D0006F6E6E6D6C6C6B6A6A696868676666654F
:1031E0006464636362616160605F5F5E5E5D5D5CDD
:1031F0005C5B5B5A5A59595858575756565555554E
:103200005454535352525251515050504F4F4F4EAD
:103210004E4D4D4D4C4C4C4B4B4B4A4A4A494949FB
:10322000484848474747474646464545454444443D
:103230004443434343424242424141419C46002B66
:1032400030D477002BD04FEA37071CB503B44FF0CA
:1032500010004FF01001BAF1000F06D0BCF1000FC2
:10326000DCBF40F0080040F008014FF000000FBC48
:10327000BDE810400BF1010BBBF1010F08BF5FEA85
:10328000170722BF12F1010211F101014FF00041B5
:1032900043F1000300F0004043EA00007047F9D317
:1032A0005708D0E746EA06464FEA164613F1400FA4
:1032B0001FDD13F1200FDFBF16430A460021203324
:1032C0005B42BED0C3F1200746EA06464FEA1646E7
:1032D00002FA07F746EA070622FA03F2C3F12007CB
:1032E00001FA07F742EA070221FA03F14FF000035F
:1032F000A7E746EA020646EA06464FEA164646EAC7
:103300000106BCBF46EA0646360C4FF000034FF0FC
:1033100000024FF0000194E72DE9804C70B49A460A
:10332000934691E8380007C831EA400C48BF34EAB8
:10333000430C03D5FFF7E6FDFFF780FFF0BCBDE8C7
:10334000008C2DE9804C70B49A46934691E8380081
:1033500007C810F0804F08BF13F0804F03D100F072
:1033600005F8FFF76BFFF0BCBDE8008C20F07F474D
:1033700023F07F4C80EA030000F0004007EB0C03D1
:10338000A3F57C53A3F1FE0392F0000F00F0B3808D
:1033900095F0000F00F077802DE901494FEA1140C8
:1033A00021EA00484FEA144624EA064700FB06FCDF
:1033B00008FB06F607FB08F818EB06484CEB164C22
:1033C00000FB07F718EB07484CEB17404FEA124B8E
:1033D00022EA0B4E4FEA154625EA06470BFB06FC90
:1033E0000EFB06F607FB0EFE1EEB064E4CEB164CD4
:1033F0000BFB07F71EEB074E4CEB174B18EB0B08BC
:1034000040F1000018EB0E0B58EB000840F10000F3
:103410008F1A4FF000014FF000063CBFC943661BF6
:1034200014BFB5EB040C00213CBFC943F61B4FEAA7
:10343000174427EA04454FEA1C472CEA074C04FBD3
:10344000076205FB07F70CFB05F616EB074642EB98
:10345000174204FB0CFC16EB0C4642EB1C421BEB28
:10346000060658EB020241414EEA8E0E46EA9E06DF
:1034700001D5BDE80189B619524141EB0101A3F123
:103480000103BDE801894FEA144524EA05464FEAE5
:10349000114721EA074C05FB07F406FB07F70CFB75
:1034A00006F111EB074144EB174405FB0CFC11EB53
:1034B0000C4144EB1C444FEA124722EA074C05FB3F
:1034C00007F206FB07F70CFB06F616EB074642EB86
:1034D000174205FB0CFC16EB0C4642EB1C456A1828
:1034E00054F1000148BF7047B619524141EB010148
:1034F000A3F10103704795F0000F37D04FEA114256
:1035000021EA02464FEA144724EA074C02FB07F17E
:1035100006FB07F70CFB06F414EB074441EB1741DD
:1035200002FB0CFC14EB0C4441EB1C414FEA154729
:1035300025EA074C02FB07F506FB07F70CFB06F62E
:1035400016EB074645EB174502FB0CFC16EB0C4649
:1035500045EB1C42121951F1000148BF7047B619E2
:10356000524141EB0101A3F1010370474FEA1445B9
:1035700024EA05464FEA114721EA074C05FB07F10B
:1035800006FB07F70CFB06F212EB074241EB174173
:1035900005FB0CFC12EB0C4251EB1C414FF00006FA
:1035A00048BF7047921841EB0101A3F10103704736
:1035B00003B401984100009850EAC12018BF0420CC
:1035C0004A0D18BF40F0010040F2FF72B2EB515FAC
:1035D00008BF40F00200012808BF052002B0704774
:1035E00010B500290AD00878002807D0054878448B
:1035F000FDF7B6FA002801D0002010BD024878443B
:1036000010BD00000A01000002010000F1EE100AE6
:103610004FF6FF71C0F2C03120EA010040F0407067
:10362000E1EE100A7047FDF735B8000002400000D7
:10363000000000A00000000005400000000000C8DD
:10364000000000000C4000000000409C0000000052
:10365000194000000020BCBE000000003440000003
:10366000BFC91B8E00000004B5400000504BCFD0F6
:103670006607E2CF010000006C4100003E8251AAC3
:10368000DFEEA73401000000D9420000DCB5A0E263
:103690003A301F97FFFFFFFFB4450000FD25A0C88B
:1036A000E9A3C14FFFFFFFFFFF3F000000000080C4
:1036B00000000000FF3F000000000080000000004C
:1036C00000000000000000000102030406070809D2
:1036D0000000000001020304183700080000002069
:1036E0001000000000020008283700081000002029
:1036F000A80A00001C0200081C0000004300000093
:10370000F8FFFFFF0C0000000E0000000F0000009B
:103710002E0000000000000001000000100000006A
:083720000024F4000000000089
:04000005080001C529
:00000001FF
