:020000040800F2
:10000000E80A002085020008F52D0008ED2D000803
:10001000F12D0008A50D00088D3600080000000035
:100020000000000000000000000000004D2F00084C
:10003000A90D000800000000F92D0008512F00084C
:100040009F0200089F0200089F0200089F0200080C
:100050009F0200089F0200089F0200089F020008FC
:100060009F0200089F0200089F0200089F020008EC
:100070009F0200089F0200089F0200089F020008DC
:100080009F0200089F0200089F0200089F020008CC
:100090009F0200089F0200089F0200089F020008BC
:1000A0009F0200082D3000089F0200089F020008F0
:1000B0009F0200089F0200089F0200089F0200089C
:1000C0009F0200089F0200089F0200089F0200088C
:1000D0009F020008813400089F0200088D34000848
:1000E0009F0200089F0200089F0200089F0200086C
:1000F0009F0200089F0200089F0200089F0200085C
:100100009F0200089F0200089F0200089F0200084B
:100110009F0200089F0200089F0200089F0200083B
:100120009F0200089F0200089F0200089F0200082B
:100130009F02000800000000000000009F0200086D
:100140009F0200089F0200089F0200089F0200080B
:100150009F0200089F0200089F0200089F020008FB
:100160009F0200089F0200089F0200089F020008EB
:100170009F0200089F0200089F0200080000000084
:10018000000000009F0200080000000000000000C6
:100190009F02000800000000000000009F0200080D
:1001A0000000000000000000000000009F020008A6
:1001B0009F0200089F0200089F0200089F0200089B
:1001C0009F02000800F002F800F04CF80AA090E846
:1001D000000C82448344AAF10107DA4501D100F002
:1001E00041F8AFF2090EBAE80F0013F0010F18BF83
:1001F000FB1A43F0010318474C5500006C550000F2
:10020000103A24BF78C878C1FAD8520724BF30C842
:1002100030C144BF04680C60704700000023002414
:1002200000250026103A28BF78C1FBD8520728BF06
:1002300030C148BF0B607047662905F0D281642940
:1002400000F0CC80002070471FB505F0B8F900F031
:1002500039FC04000020002104F0C6FBE0601FBD53
:1002600010B510BD00F02AFD1146FFF7EDFF03F0B9
:10027000DBFA00F048FD03B4FFF7F2FF03BC00F027
:1002800089FD00000948804709480047FEE7FEE76E
:10029000FEE7FEE7FEE7FEE7FEE7FEE7FEE7FEE736
:1002A00004480549054A064B70470000193000080C
:1002B000C5010008E8040020E80A0020E806002044
:1002C000E806002053EA020C00F069802DE9F04BAB
:1002D0004FF00006002B1FBFB3FA83F503FA05F4B5
:1002E00024FA05F65E4012BF1643B2FA82F502FA0E
:1002F00005F4C5F120051EBF22FA05FC44EA0C04F2
:10030000203556EA044C4FEA144418BF641C4FF0E1
:1003100000084FF00009904271EB030C39D300291B
:1003200019BFB1FA81F701FA07F6B0FA80F700FABF
:1003300007F6C7F120071EBF20FA07FC46EA0C06A5
:100340002037B6FBF4FCA7EB0507103F07F01F0BA7
:10035000CBF120062CFA06F60CFA0BFB44BFB34691
:100360000026202FA4BF5E464FF0000B5BEA060C70
:1003700008BF4FF0010B19EB0B0948EB0608ABFB6C
:10038000027C06FB02CC0BFB03CCC01B71EB0C0107
:10039000C1E70B46024641464846BDE8F08B13B51F
:1003A000084318BF4FF0FF300146AFF30080BDE8AF
:1003B0001C4070470FB41CB5074B06AA7B44694626
:1003C0000090059800F061FB0020694600F070FB8A
:1003D0001CBC5DF814FB0000F10600002DE9F041A3
:1003E0000646002410687529314616A510D0AFF3D3
:1003F0000080002802DA404213A507E031688A072E
:1004000001D512A502E0490704D511A5012401E098
:10041000AFF3008000210A2206F1240709E0B0FBB7
:10042000F2FCB0FBF2F302FB1C00303078541846AB
:10043000491C0028F3D123462A463046BDE8F04146
:1004400000F0B7B8000000002D0000002B000000F5
:10045000200000002DE9F05F894604464FF0000AB5
:10046000DFF824B1FB44C0F820A02046E1688847AB
:1004700000287DD0252806D0D4E901219047206AA4
:10048000401C2062F1E700255F462046E16888476E
:100490002028064607DB312E05D2B81910F8200CAB
:1004A00008B10543F1E7A80701D525F00405C4F814
:1004B0001CA00027C4F818A02A2E09D0304604F04A
:1004C00077FA38B304EB8708303EC8F8186019E0B3
:1004D00059F8041B204604EB87029161E1688847C4
:1004E000012F064618D1E069002820DA25F0200502
:1004F0001DE0D8F8180000EB800006EB4000303813
:10050000C8F818002046E1688847064604F050FA0B
:100510000028EED1012F0AD02E2E08D12046E16806
:1005200088477F1C0646022F45F02005C4DBA069E2
:10053000002803DA404245F00105A061E80701D038
:1005400025F01005A6B1A6F14100192802D82036E1
:1005500045F400654A463146204625604D46FFF782
:100560006BFE60B1012807D0ED1D25F0070000E00B
:1005700007E000F1080978E705F1040975E730465E
:100580007AE7206ABDE8F09F7E510000704770470F
:1005900070470000004870471000002010B5FFF7BA
:1005A000F9FF006810BD10B50446FFF7F3FF0460C3
:1005B00010BD2DE9F0470D4699469246044600F1DC
:1005C00024080168880604D5E06921F01001216043
:1005D00000E00120A84201DD471B00E00027A169DF
:1005E0007A1902EB0900081AA0612078C00602D42B
:1005F0002046AFF30080002608E0D4E901211AF874
:1006000006009047206A401C761C20624E45F4DBB1
:100610002078C0060AD52046AFF3008006E0D4E972
:10062000012130209047206A401C2062381EA7F12B
:100630000107F4DC07E0D4E9012118F80500904730
:10064000206A401C2062281EA5F10105F3DC20462B
:10065000AFF300802078000602D50220BDE8F087C5
:100660000120FBE72DE9FF4F0C461E464FF0FF37F8
:100670008BB0D2E90001DDF860800A908A46C1F3B0
:100680000A5505B93D46002108464FF00000BAF171
:10069000000F00F4400005DA00EB80004FF4400149
:1006A00001EA50004FEA9059B9F1010F00DDB94657
:1006B0000A9850EA4A000ED044F61050A5F2FF35D1
:1006C00045432F14B8F1000F1ED07542291E1EDDC0
:1006D000C9F100021CE0B8F1010F4FF0000001D099
:1006E000302103E0F24305E02154401CB042FBDB23
:1006F00030460022002121540B99C1F80880C1E93D
:1007000000200FB0BDE8F08FBD1B6D1CDEE74A4630
:1007100000DA694206A800F05FFA06AB93E807002A
:1007200003AB83E8070050460A9903F012FA8DE8FC
:100730000700A0F500501F3800900398002D0ADD37
:1007400042F21F014A460844002303A90390684669
:1007500003F07CFC09E0A0F500504A461F38002356
:1007600003A90390684603F086FC8DE807000004A7
:10077000000C03D04FF0FF30410800E01046B8F104
:10078000000F03D00022009215461EE0751E05D40E
:1007900000F09CF9303262556D1EF9D5B346012246
:1007A000084302D000227F1C04E02078302801D1C9
:1007B00000227F1E002A099784D01DE0112D07DA40
:1007C00000F084F9303262556D1C50EA0102F5D117
:1007D000084302D00098C8B10EE00021681E05E071
:1007E000235C625C63542254401E491C8142F7DB47
:1007F000AB46A81B401E0990002004F80B000B9884
:10080000099AC0F80880C0E9002B7AE711264FF05A
:10081000000857E72DE9F04F88460446D21D22F024
:10082000070191B0D1E90001CDE90A0103F05AFDB9
:1008300002460B98C00F01D02D2007E020688107E9
:1008400001D52B2002E0202101EAC000032A0990F3
:1008500001D0072A05DB03464146204600F07CF91B
:100860000BE12078800601D5E06900E00620B8F1B0
:10087000650F814606D0B8F1660F18D0B8F1670F42
:1008800070D131E00020B9F1110F009001DB11238C
:1008900001E009F101030AAA01A90CA8FFF7E2FE91
:1008A000DDE90C70002609F10105834647E00120CF
:1008B0004B4600904FF000470AAA01A90CA8FFF789
:1008C000D1FEDDE90DB00C995D46002610B909F1A5
:1008D00001000D18B9EB050003D4C0F1FF3609F192
:1008E0000105A5EB09002BE0B9F1010F01DA4FF08A
:1008F00001090020B9F1110F0090484601DD1123D4
:1009000000E003460AAA01A90CA8FFF7ABFEDDE947
:100910000C704D4600268346207800070AD4AB456C
:1009200000DA5D4601A8012D04DD411911F8011C12
:10093000302907D04F4502DA17F1040F04DA0120FD
:1009400082460FE06D1EEEE7002F02DCED1B3E44F9
:1009500003E0781CA84200DD7D1CB81B00F1010AF1
:100960004FF000472078000703D4AA4501DB4FF081
:10097000FF3A0021B7F1004F0DF143088DF8431005
:1009800024D002202B23002F01DA7F422D230A21BD
:10099000021EA0F1010000DC5FB197FBF1FC97FBA8
:1009A000F1F201FB1C7C17460CF1300C08F801CD6C
:1009B000EEE7A8F1010003702188090501D5452162
:1009C00000E06521A0F1010800F8011C09980FA9B9
:1009D000A1EB0807FF1D00B10120411901EBEA70EE
:1009E000A1693844081A401EA0612078C00602D4CC
:1009F0002046AFF30080099828B1D4E9012190473F
:100A0000206A401C20622078C00622D52046AFF321
:100A100000801EE0002E04DBB34502DD01A8805DEE
:100A200000E03020D4E901219047206A401C206278
:100A3000761CAAF101005FEA000A0AD100F042F830
:100A4000C0680168405CD4E901219047206A401CDD
:100A50002062281EA5F10105DCDC07E0D4E90121B4
:100A600018F8010B9047206A401C2062381EA7F13D
:100A70000107F3DC2046AFF30080032011B041E60C
:100A800001694A1C02610878704700B58FB0CDE952
:100A900001310021059105497944CDE90310114642
:100AA0006846FFF7D7FC0FB000BD0000E5FFFFFF71
:100AB0000A6802F8010B0A6070470000004870479E
:100AC00010000020004870473000002030B5B0F121
:100AD0000A0271F100034FEA900E4EEA817EB0EBFC
:100AE0000E0061EB91014FEA101E4EEA017E10EB01
:100AF0000E0041EB11114FEA102E4EEA016E10EB81
:100B00000E0041EB11214FEA104E4EEA014E10EB60
:100B10000E0041EB1141401841F100014FEAD000B5
:100B200040EA41704FEAD1014FEA810444EA9074EF
:100B300010EB800544EB01046D1944EB0404521BD7
:100B4000A3414FF0000348BF0A3200D530BD401C1E
:100B500041F1000130BD00002DE9F0411F4604467F
:100B600003260168072A01F4006004DB08B116A51A
:100B700005E016A503E008B115A500E015A521F0D4
:100B800010002060A069C01EA0610FB1401EA061CE
:100B90002046AFF300804FB1D4E901213846904799
:100BA000206A401C2062C01C206206E0206AFAE72E
:100BB000D4E9012115F8010B9047761EF8D22046A2
:100BC000AFF30080BDE8F0814E414E006E616E00D3
:100BD000494E4600696E66002DE9F047814616468B
:100BE0008AB0354878440DC88DE80D003248784405
:100BF000801C03AC0DC884E80D0041F69B3008440E
:100C0000372190FBF1F290FBF1F5A5F1800501FB96
:100C100012041B3C02D56442012000E00020DFF8F2
:100C200098A080460027FA44AAF1BE0A0EE0E00729
:100C30000AD03246684607EB470101230AEB8101DF
:100C400003F019FA8DE8070064107F1C002CEED128
:100C5000194F7F44AE3F19E0E80715D007EB0410A9
:100C60000DF1180A90E80E008AE80E00C068F04204
:100C700001D1981908903246012306A903A803F070
:100C8000FAF903AB83E807006D10641C002DE3D173
:100C90004FF0010332466946B8F1000F03A802D0B5
:100CA00003F0D4F901E003F0E6F9C9E90001C9F85D
:100CB00008200AB0BDE8F0872C4B00007546FFF70E
:100CC000FDFEAE4605006946534620F00700854606
:100CD00018B020B5FFF7E4FABDE820404FF0000659
:100CE0004FF000074FF000084FF0000BAC46ACE8A7
:100CF000C009ACE8C009ACE8C009ACE8C00921F003
:100D000007018D46704710B50446AFF300802046BA
:100D1000BDE81040FFF7AFBA30B44FF0013C50F8D7
:100D2000042B51F8043BCCFA52F4D51A20D1FCB96B
:100D300050F8042B51F8043BCCFA52F4D51A17D1D1
:100D4000B4B950F8042B51F8043BCCFA52F4D51A3C
:100D50000ED16CB950F8042B51F8043BCCFA52F484
:100D6000D51A05D1002CDAD030BC4FF00000704706
:100D700029BAB1FA81F111F01801D1F120008440B3
:100D8000F2D1CA40CB4012F0FF0213F0FF0330BC97
:100D9000D01A704701491820ABBEFEE726000200BA
:100DA00070470000FEE700007047000070B581B09A
:100DB0000022009290F83C20012A03D1022108462B
:100DC00001B070BD0E6801220A2E80F83C2009D3C4
:100DD000B2B25200D0F800E012FA86F21E3A0EF1DA
:100DE0000C0305E0D0F800E006EB46020EF110031C
:100DF0004FF0070C1D680CFA02F4A5431D608D68C6
:100E00001C6805FA02F222431A60496806290FD8C5
:100E100001EB81014A1F71461F2351F8345F934053
:100E200025EA03030B60B3B203FA02F214E000BF39
:100E300001EB81030C29B2B204D8714651F8304F4E
:100E4000233B03E0714651F82C4F413B1F259D4049
:100E500024EA05059A400D600B6842F2043CC4F296
:100E6000010C1A43ACF541739E450A6006D000217F
:100E700080F83C10084601B070BD00BF1221112E51
:100E8000C1F2000118BF8E423AD1DCF800208E4238
:100E900022F48002CCF80020DCF8002042F40002AA
:100EA000CCF80020E3D140F20801C2F20001096849
:100EB0004DF68362C4F21B32A1FB0212910C01EBCE
:100EC00081014900009100990029D0D00099013991
:100ED000009100990029CAD0009901390091009928
:100EE0000029C4D000990139009100990029BED091
:100EF00000990139009100990029E7D1B7E700BFB7
:100F0000122EB4D1DCF8001021F40001CCF800104E
:100F1000DCF8001041F48001CCF80010A7E70000D5
:100F2000002804BF0120704710B50446006C00285B
:100F30003ED0206CC00645D4206C41F2021188439B
:100F4000023042F204312064C4F20101086820F446
:100F5000403008600A6894E809101A43D4F810E099
:100F60000A604168012321F4807141604168C0F644
:100F7000007341EA0E214160416821F040714160F7
:100F8000416841EA0C014160816821F4006181609F
:100F9000E168826811438160A16A8268994222F007
:100FA00070628260826813D122F0405119E000BF64
:100FB000204600F065F80020606484F83C00206C56
:100FC000C006B9D50120002184F83C1010BD00BF37
:100FD00011438160816821F040518160E16A82683B
:100FE00011438160816821F0020181608168227E65
:100FF00094F8203041EA42018160416883B141F4B4
:101000000061416041684EF2000221F4604141609C
:10101000616ACFF6FF72436802EB4131194301E088
:1010200021F400614160C16A40F2000C21F47001BA
:10103000C162E2696169CFF6F07CC36A0CEB0252CF
:101040001A43C262826822F40072826094F83020EF
:10105000836843EA42228260826822F4806282606E
:10106000826842EA8121816000206064216C012253
:1010700062F301012164002184F83C1010BD0000DE
:1010800080B586B042F200010068C4F2010100227E
:1010900088420592049201D006B080BD43F630002C
:1010A0000092C4F20200436943F4807343614369D0
:1010B00003F480730093009B0092036843F00103E4
:1010C0000360006800F00100009000980320CDE963
:1010D000010001F5604001A9039200F003F806B099
:1010E00080BD00002DE9F04F82B000F13E4241F694
:1010F000000502F1FF77C4F20205072243F6004E15
:101100004FEAB726A84208BF0622C4F2010E062EF7
:1011100038BF4FEAB7220125002600274FF000080C
:10112000009208E008F101080437B8F1100F06F149
:10113000020600F0A7800C6805FA08F914EA090F06
:10114000F0D0D1F804B003220BF0030CACF1010491
:10115000B240012C6FEA020A10D88268CC6802EA19
:101160000A02B440224382604268CBF3001422EAB0
:10117000090204FA08F42243426005E0BCF1030FBF
:1011800002D14FF0030C20E0C2688C6802EA0A0228
:10119000B4402243BCF1020FC26016D16FF00302CB
:1011A00002EA58020244D2F820C007F01C050F23BF
:1011B0000C69AB402CEA030304FA05F52B431362D8
:1011C000D1F804B001250BF0030C02680CFA06F309
:1011D00002EA0A021A431BF4403F0260A2D0002236
:1011E00043F644030192C4F202031A684FF6084C16
:1011F00042F480421A601A68CFF6FF7C02F4804203
:101200000192019A28F00302724452F80C3007F060
:101210000C050F24AC40A343009C04FA05F52B43B6
:1012200042F80C30DEF808204B6842EA090543F624
:101230000C4CDC0258BF22EA0905CEF80850C4F273
:10124000010CDCF800209C0242EA090558BF22EAA2
:101250000905CCF80050DEF804209C0342EA090599
:1012600058BF22EA0905CEF80450DEF80020DB035F
:1012700042EA090558BF22EA0905CEF800500125C7
:1012800050E700BF02B0BDE8F08F0000002A08BFA1
:10129000090481617047000040F2E440C2F200009E
:1012A0000068704770B5B8B3044690F83D0028B99F
:1012B000002084F83C00204600F0B0F8242084F898
:1012C0003D002068016821F001010160016841F4DE
:1012D00000410160016821F40041016000F07EFAE4
:1012E00048F28041C0F21E0140F60013D4F804E039
:1012F00088424FF00001C0F23D0348F2A16C4FF06C
:10130000000238BF01219842C0F2010C38BF01220F
:10131000E64538BF0A460AB1012070BD4DF683612B
:10132000C4F21B31A0FB01122168950C4B684FF4ED
:10133000967623F03F0343EA9243754344F6D3562F
:101340004B60C1F262060B6AA5FB0656B50923F095
:101350003F03E64538BF950C6A1C1A430A62CA6906
:1013600048F2A0664CF6FF73C0F20106B64522EAC9
:1013700003020BD801384FEA4E03B0FBF3F0013003
:101380006FF31F30042898BF04201EE0A3680138C3
:1013900063B119230EFB03F3B0FBF3F001306FF3DD
:1013A0001F3078B100F5804008E000BF0EEB4E031F
:1013B000B0FBF3F001306FF31F3028B100F50040AF
:1013C00003E000BF012000E001201043C86108686D
:1013D000D4E9072320F0C000104318430860886850
:1013E00048F2FF3204F10C0690434CCE18431043F0
:1013F000A5698860C86820F0FF0030432843C860B2
:10140000086840F00100086000202021206484F872
:101410003D10206384F83E0070BD0000B0B586B07A
:10142000016845F20040C4F20000814202D006B0DB
:10143000B0BD00BF002443F630050194C4F202059C
:10144000296800F5D83041F002012960296801F0CF
:101450000201019101994FF4407101911221CDE9EE
:101460000214032104910421059101A9FFF73AFE1A
:101470000094286940F400102861286900F40010E5
:101480000090009806B0B0BD40F2000040F2E44188
:10149000C2F20000C2F2000100780A68104408603D
:1014A0007047000080B543F60040C4F202000168B6
:1014B00041F400710160016841F4806101600168DC
:1014C00041F480710160032000F08AF8002000F0F0
:1014D00005F800F027F8002080BD000070B540F24C
:1014E0000006C2F2000640F208013278C2F20001A2
:1014F0004FF47A730968B3FBF2F20446B1FBF2F1E0
:10150000084601F021F80F2C4FF0010508D838B932
:101510004FF0FF3021460022002500F035F87460BE
:10152000284670BD82B0002043F640010190C4F20D
:1015300002014A6842F480424A604A6802F48042EA
:101540000192019A0090086840F080500860086895
:1015500000F0805000900098072002B000F040B8E2
:10156000002848BF7047C1B200F01F00012202FAF4
:1015700000F04EF20012CEF2000242EAD10121F058
:10158000030108607047000010B54EF60C5CCEF207
:10159000000CDCF80030C3F3022E8EF00704042C9C
:1015A00028BF0424BEF103034FF0FF3E0EFA04F4FB
:1015B00038BF0023A14399400EFA03F39A43114325
:1015C00000F00F0200F160430901043A03F564439F
:1015D0006244002848BF02F10C03197010BD0000DE
:1015E0004EF60C51CEF200010A684FF6FF031A4086
:1015F00060F30A2242F0806040F0FD70086070479E
:1016000070B582B00020019043F64000C4F20200A1
:101610000168402641F0805101600068C4F20E2646
:1016200000F080500190019847F204050120C4F2B7
:1016300000053060FFF730FE044600BF2868C00395
:1016400006D4FFF729FE001BB0F57A7FF6D90EE02D
:1016500001207060FFF720FE044600BF2868800369
:1016600008D4FFF719FE001BB0F57A7FF6D90320E6
:1016700002B070BD002002B070BD00002DE9F04145
:10168000002800F08B8043F60808C4F202080446E4
:10169000D8F8F8030D4600F00F00884207D288F80A
:1016A000F853D8F8F80300F00F00A84276D120686C
:1016B000810717D5410705D5D8F8001041F4E0514E
:1016C000C8F80010010705D5D8F8001041F46041B2
:1016D000C8F80010D8F80010A26821F0F0011143FA
:1016E000C8F80010C0073FD1D8F8F80300F00F0089
:1016F000A84207D988F8F853D8F8F80300F00F008B
:10170000A8424BD12068410707D5D8F80010E268FD
:1017100021F4E0511143C8F80010000708D5D8F8AB
:101720000000216920F4604040EAC100C8F80000D0
:1017300000F07CF8D8F8001045F22C72C1F30311C8
:10174000C0F60002515C40F2080220FA01F140F2BA
:101750000400C2F200000068C2F200021160FFF74C
:10176000BDFE0020BDE8F0816068811E022907D21D
:1017700058F8081C89015CBF0120BDE8F08111E028
:10178000012807D158F8081C89035CBF0120BDE877
:10179000F08107E058F8081C890703D40120BDE850
:1017A000F08100BFD8F8001021F003010843C8F809
:1017B0000000FFF771FD064641F28837D8F80000B7
:1017C000616800F00C00B0EB810F8DD0FFF764FD75
:1017D000801BB842F2D90320BDE8F08140F2080036
:1017E00043F60801C2F20000C4F202010068096871
:1017F00045F23C72C1F38221C0F60002515CC84040
:101800007047000040F2080043F60801C2F20000F1
:10181000C4F202010068096845F23C72C1F342312A
:10182000C0F60002515CC8407047000010B543F696
:101830000404C4F202046068C0F3810142F2004073
:10184000C0F2F400DFE801F04402081841F2002081
:10185000C0F27A0010BD00BF216801F03F0221688C
:1018600023684902C3F3881116D4A1FB00010023A9
:10187000FEF728FD17E000BF216801F03F02216854
:1018800023684902C3F3881116D4A1FB0001002389
:10189000FEF718FD17E000BF41F20020C0F27A0009
:1018A0004843B0FBF2F021680222C1F3014102EB90
:1018B0004101B0FBF1F010BD41F20020C0F27A000E
:1018C0004843B0FBF2F02168C1F30271B0FBF1F0C4
:1018D00010BD00002DE9F04182B0002800F0968094
:1018E0000446007843F60006C007C4F202062BD077
:1018F000B06800F00C00042820D0B06800F00C00A4
:10190000082802D17068400218D4B06800F00C00BA
:101910000C2802D17068400210D46068B0F5803F96
:1019200007D0B0F5A02F40F03B81306840F4802014
:101930003060306840F4803030603BE130688003D4
:1019400002D56068002861D02078800722D5B06871
:1019500010F00C0F11D0B06800F00C00082802D174
:101960007068400209D5B06800F00C000C2840F007
:101970009F807068400200F19B803068800702D52C
:10198000E068012842D13068216920F0F80040EA7F
:10199000C1003060207800073CD42078400751D443
:1019A000A56985B3B06800F00C00082840F0A88055
:1019B000012D2BD07068E16900F480028A4225D1A4
:1019C000216A00F03F028A4220D147F6C071626A64
:1019D0000140B1EB821F19D1A16A4FF6FF73C90311
:1019E000994300F44032A1F580318A420ED1E16A78
:1019F00000F07062B2EB016F08D1216B00F0E040A3
:101A0000B0EB017F02D1002034E100BF012002B021
:101A1000BDE8F0816069002840F20000C4F2472070
:101A20005ED00121C0F8801EFFF736FC054600BFDE
:101A3000706F8007B1D4FFF72FFC401B0228F7D945
:101A4000C5E000BF306C10F080580AD10020019032
:101A5000306C40F080503064306C00F08050019069
:101A6000019847F20007C4F200073868C00511D496
:101A7000386840F480703860FFF70EFC054600BF00
:101A80003868C00506D4FFF707FC401B0228F7D9C9
:101A90009DE000BFA068012805D0052852D1306F15
:101AA00040F004003067306F40F00100306753E0D1
:101AB000E068002860D00020C4F2472001210160C6
:101AC000FFF7EAFB054600BF306880073FF55BAFD4
:101AD000FFF7E2FB401B02284FF00300F4D9C9E0F6
:101AE0000021C0F8801EFFF7D7FB0546706F800706
:101AF0007FF553AFFFF7D0FB401B0228F6D966E015
:101B00000027C4F2472700203866FFF7C5FB022DE7
:101B100005460BD1306880015ED5FFF7BDFB401B49
:101B200002284FF00300F5D9A4E000BF306880011F
:101B30007FF569AFFFF7B0FB401B02284FF00300B1
:101B4000F4D997E0316F002821F001013167316F3E
:101B500021F00401316763D0FFF79EFB054641F297
:101B6000883700BF306F80076CD4FFF795FB401BB0
:101B7000B842F7D92BE000BF0020C4F24720002173
:101B80000160FFF789FB0546306880077FF502AFEB
:101B9000FFF782FB401B02284FF00300F4D969E0F5
:101BA0003168002821F480313160316821F48021CE
:101BB000316051D0FFF770FB054600BF30688003ED
:101BC0003FF5C2AEFFF768FB401B6428F6D903203F
:101BD00002B0BDE8F08100BF04F11C052FCD246BDD
:101BE000084340EA8210D9034FF6FF729143A1F5F2
:101BF000803140EA0560084340EA047070600120CB
:101C00003866FFF749FB0446306880013FF5FBAEBC
:101C1000FFF742FB001B02284FF00300F4D929E034
:101C2000FFF73AFB054641F2883700BF306F800767
:101C300008D5FFF731FB401BB8424FF00300F5D940
:101C400018E000BFB8F1000F7FF4AAAE306C20F0AE
:101C500080503064A4E600BFFFF71EFB05463068E5
:101C600080037FF571AEFFF717FB401B64284FF030
:101C70000300F4D902B0BDE8F081000070B538B1BE
:101C80000446406A30B10020206104F1140007E0EE
:101C9000012070BD6068B0F5827F03D004F11C00A4
:101CA000002101600026A66294F8510020B9204668
:101CB00084F8506000F03CF8022084F8510094E869
:101CC0000F0001F48271056802F4044225F040051A
:101CD0000560114403F400622369114403F0020219
:101CE0006369114403F00102A369E569114403F437
:101CF0000072114405F03802256A114405F0800293
:101D0000A56A114305F4005211430160626A04217F
:101D100001EA134102F0100211444160C16921F44B
:101D20000061C1610120666584F85100304670BDD4
:101D30002DE9F04385B040F60004C4F202040068C7
:101D4000A4F5E831884203D005B0BDE8F08300BFB8
:101D5000002643F630000096C4F202000169E9460D
:101D600041F4804101610169022701F48041009141
:101D70000099009601684FF0030841F004010160EA
:101D8000016801F00401009100990096016841F09A
:101D9000020101600068494600F0020000900098CE
:101DA000072004902046CDE900770296CDF80C80FC
:101DB000FFF798F90420CDE900070525204649469C
:101DC000CDE902680495FFF78DF94FF40050CDE995
:101DD0000007A4F580604946CDE902680495FFF745
:101DE00081F905B0BDE8F0832DE9F04381B00446E8
:101DF00040681D461746B0F5827F0E4601D1A068A7
:101E0000E0B394F85000012804D1022001B0BDE8ED
:101E1000F08300BF4FF0010984F85090FFF73CFABF
:101E200094F85110012927D18046002E4FF001006F
:101E300018BF002F00F0C9800420002184F8510051
:101E40006165A663A787E7872163A186E186A2680B
:101E50002068B2F5004F216461644BD001684906E7
:101E600053D5E168E08F002957D0002800F0868024
:101E7000681C1CD12DE000BF0220A6E0042084F8DD
:101E800051002046314632463B46009500F0D0F9DD
:101E900001B0BDE8F08300BFC068A16B21F8020B60
:101EA000A163E08F0138E087E08F002866D02068CA
:101EB0008168C907F0D1FFF7EFF9A0EB0800A8424D
:101EC000F2D3032081E000BFFFF7E6F9E08F00289E
:101ED00054D020688168C907F6D0C068A16B21F88A
:101EE000020BA163E08F0138E087E08F0028F0D17A
:101EF00044E000BF016821F040010160016821F465
:101F00008041016001684906ABD4016841F040019D
:101F10000160E168E08F0029A7D178B3681C0CD17B
:101F20001CE000BF007BA16B0870A06B0130A063B8
:101F3000E08F0138E087E08F00B320688168C9072F
:101F4000F0D1FFF7A9F9A0EB0800A842F3D30320D2
:101F50003BE000BFFFF7A0F9E08F78B1206881680F
:101F6000C907F7D0007BA16B0870A06B0130A0639C
:101F7000E08F0138E087E08F0028EFD16068B0F58E
:101F8000827F0ED1A068B0F5004F02D0B0F5806F0F
:101F90000AD12168B0F5806F0A6822F040020A6019
:101FA00002D12046012101E0204680212A464346F5
:101FB00000F05AFF28B1606D40F0200060652020DD
:101FC0006065606D002818BF0120002184F85190E1
:101FD00084F8501001B0BDE8F08300002DE9F04313
:101FE00083B0044690F85000012803D1022003B0CA
:101FF000BDE8F0834FF001091D4616460F4684F8F0
:102000005090FFF749F994F85110012944D18046C6
:10201000002F4FF0010018BF002E00F0D6800320E3
:10202000002184F8510061652763A686E686A163D6
:10203000A187E187A0682164B0F5004F2068616442
:1020400007D1016821F040010160016841F480413D
:1020500001600168490603D4016841F04001016054
:102060006168731EE268B1FA81F1B3FA83F349093A
:102070005B09B2F5006F41EA03013DD131B137F898
:10208000021BC1602763E08E0138E086E08E0028E5
:102090006CD0681C0DD11EE0022096E0216B31F857
:1020A000022BC2602163E08E0138E086E08E0028BA
:1020B0005CD0206881688907F0D4FFF7EDF8A0EBC9
:1020C0000800A842F2D303207FE000BFFFF7E4F846
:1020D000E08E00284AD0206881688907F6D5216BF8
:1020E00031F8022BC2602163E08E0138E086E08E79
:1020F0000028F0D13AE000BF39B139780173206B84
:1021000001302063E08E0138E086E08E70B3681CF9
:102110000BD11BE0216B09780173206B0130206328
:10212000E08E0138E086E08E00B320688168890780
:10213000F0D4FFF7B1F8A0EB0800A842F3D30320D6
:1021400043E000BFFFF7A8F8E08E78B1206881680F
:102150008907F7D5216B09780173206B0130206363
:10216000E08E0138E086E08E0028EFD140F20800D2
:10217000C2F20000006849F68171C1F25E61A0FB05
:102180000101480D4FF47A71484302906068B0F540
:10219000827F23D1204680212A46434600F064FEF8
:1021A00028B1606D40F02000606520206065A06867
:1021B00038B9002001902068C168019180680190C1
:1021C0000198606D002818BF0120002184F851900B
:1021D00084F8501003B0BDE8F08300BF02980028D7
:1021E000E5D0029801380290206880680006DED5AC
:1021F00002980028DBD0029801380290206880689D
:102200000006D4D502980028D1D002980138029057
:10221000206880680006CAD502980028C7D00298B6
:1022200001380290206880680006D7D4BFE700001C
:102230002DE9F04383B0044690F85000012803D103
:10224000022003B0BDE8F08301201E4615460F466C
:1022500084F85000FFF720F894F8511081460129C6
:1022600040F09880002F4FF0010018BF002D00F0C3
:102270009E80002E00F09B8094F8510000210428DD
:102280001CBF052084F851006165A563E687A68719
:102290002763E6862068A686216461640168490692
:1022A00003D4016841F0400101606168731EE26877
:1022B000B1FA81F1B3FA83F3DDF8288049095B09AB
:1022C000B2F5006F41EA03017AD131B137F8021B50
:1022D000C1602763E08E0138E086012518F1010016
:1022E00031D101E0FEF7D8FFE08E18B9E08F002869
:1022F00000F0D0802068816889070CD5E18E51B14B
:10230000012D08D1216B002531F8022BC260216319
:10231000E18E0139E1868168C907E3D0E18F0029A8
:10232000E0D0C068A16B012521F8020BA163E08F0A
:102330000138E087D6E700BFFEF7AEFFA0EB09004B
:10234000404580F0FD80E08E18B9E08F002800F055
:10235000A1802068816889070CD5E18E51B1012DDB
:1023600008D1216B002531F8022BC2602163E18E78
:102370000139E1868168C907DED0E18F0029DBD011
:10238000C068A16B012521F8020BA163E08F013821
:10239000E087D1E76068B0F5827F07D1A0680028A8
:1023A0004FF0020008BF042901D15BE702200121A0
:1023B00084F85110002184F8501003B0BDE8F08378
:1023C00039B139780173206B01302063E08E013818
:1023D000E086012518F1010033D101E0FEF75CFF32
:1023E000E08E10B9E08F002854D0206881688907FA
:1023F0000ED5E18E61B1012D0AD1216B002509783E
:102400000173216B206801312163E18E0139E1867E
:102410008168C907E2D0E18F0029DFD0C068A16BD5
:1024200001250870A06B0130A063E08F0138E087C0
:10243000D4E700BFFEF730FFA0EB0900404580F075
:102440008180E08E08B9E08F20B320688168890719
:102450000ED5E18E61B1012D0AD1216B00250978DD
:102460000173216B206801312163E18E0139E1861E
:102470008168C907DED0E18F0029DBD0C068A16B7D
:1024800001250870A06B0130A063E08F0138E08760
:10249000D0E700BF40F20800C2F20000006849F631
:1024A0008171C1F25E61A0FB0101480D4FF47A71A8
:1024B000484302906068B0F5827F0FD120468021AA
:1024C00042464B4600F0D0FC60B3606D40F0200007
:1024D000606520206065012069E700BF029808B3AD
:1024E0000298013802902068806800061AD5029888
:1024F000C0B102980138029020688068000611D5AA
:10250000029878B10298013802902068806800062D
:1025100008D5029830B1029801380290206880688E
:102520000006DBD4A06800284FF000007FF43FAF26
:1025300001902168CA68019289680191019936E782
:10254000032034E7032032E7411E0020B0EB116F77
:102550001CBF012070474EF21002CEF20002516003
:102560004EF62351CEF20001F0230B70072190604C
:10257000116070477047000070470000B0B590F8D8
:102580003C20012A04BF0220B0BD01F108053CCD6A
:10259000D1E900CE23F47C5322F470521A432EF476
:1025A000F0431A432CF4E0431A4324F4C0431A4383
:1025B0002A43C96922F48042036811435964002107
:1025C00080F83C100846B0BD10B590F83C20012AB8
:1025D0004FF0020251D080F83D200268D2F804E0AA
:1025E000D2F808C00C682EF07003234341F2FF7448
:1025F000C4F20004A24253600EDC40F2FF73C4F246
:1026000000039A4216DCB2F1804F2BD040F2004317
:10261000C4F2000324E000BF40F2FF33C4F2010320
:102620009A4213DC41F60003C4F200039A4219D027
:10263000002313E040F60003C4F200039A4211D0D5
:1026400040F60043C4F200030AE000BF44F2000376
:10265000C4F201039A4205D040F20043C4F20103E0
:102660009A4204D149682CF08003194391600121FA
:10267000002280F83D1080F83C20104610BD00007C
:10268000002804BF0120704710B5044690F83D00B3
:1026900028B9002084F83C00204600F01FF80220F2
:1026A00084F83D002068211D00F0D0FC012084F852
:1026B000460084F83E0084F83F0084F8400084F827
:1026C000410084F8420084F8430084F8440084F810
:1026D000450084F83D00002010BD000080B582B0A8
:1026E000006844F20041C4F2010188421CBF02B0FC
:1026F00080BD0020019043F64400C4F2020001684E
:10270000002241F4003101600068002100F4003033
:10271000019001981920FEF737FF192002B0BDE89B
:102720008040FEF71DBF000090F83D1001291CBF3E
:1027300001207047022180F83D10006841F2FF72CD
:10274000C168C4F20002904241F00101C1600DDC99
:1027500040F2FF71C4F20001884215DCB0F1804FF5
:102760002AD040F20041C4F2000123E040F2FF31E0
:10277000C4F20101884213DC41F60001C4F20001F9
:10278000884219D0002113E040F60001C4F2000194
:10279000884211D040F60041C4F200010AE000BFB7
:1027A00044F20001C4F20101884205D040F2004128
:1027B000C4F20101884206D1816801F007010629AF
:1027C00004BF00207047016841F001010160002052
:1027D000704700007047000010B5016804460869A2
:1027E000800744BFC8685FEA807039D40869400731
:1027F00044BFC8685FEA40703ED40869000744BF20
:10280000C8685FEA007045D40869C00644BFC8685C
:102810005FEAC0604AD40869C0071CBFC8685FEAA5
:10282000C07051D10869000644BFC8685FEA006003
:1028300052D40869400644BFC8685FEA406053D478
:102840000869800646BFC8685FEA806010BD6FF007
:10285000200220460A61BDE81040FFF78DBE00BF90
:102860006FF002000861012020778869800743D05B
:102870002046FFF7AFFF45E06FF00400086102203B
:102880002077886910F4407F40D02046FFF7A2FFF0
:1028900042E000BF6FF00800086104202077C8699B
:1028A00080073DD02046FFF795FF3FE06FF0100016
:1028B000086108202077C86910F4407F3AD020468C
:1028C000FFF788FF3CE000BF6FF001000861204681
:1028D00000F0CCF92168A5E76FF080000861204680
:1028E000FFF748FE2168A4E76FF04000086120462A
:1028F00000F0C6F92168A3E7204600F04FF8204613
:1029000000F0B2F92168002020776FE7204600F040
:1029100045F8204600F0A8F92168002020776CE7F0
:10292000204600F03BF8204600F09EF92168002088
:10293000207769E7204600F031F8204600F094F94E
:1029400021680020207766E780B586B00168002006
:10295000C4F20100814201D006B080BD002143F6DF
:1029600030020191C4F20202136800F5803043F096
:1029700001031360126802F001020192019A4FF400
:10298000807201920222CDE9022104910121059178
:1029900001A9FEF7A7FB06B080BD0000704700004C
:1029A0002DE9F04390F83C30012B04BF0220BDE834
:1029B000F0834FEAB202032A00F2FC80DFE802F063
:1029C000023E7EBE036840F200471A6A43F4806507
:1029D00022F001021A621C6A1A46D3F804E052F887
:1029E00018CF8E6824F00204C4F20107BD4244EA05
:1029F000060405D1CE6824F00C0426F00406344306
:102A00000E68BD4207D1D1E905572EF4407E45EA54
:102A10000E0545EA070E2CF073073743C3F804E0B0
:102A20009F614F6809695F631C629F6947F00807EF
:102A30009F619F6927F004079F61B1E0036840F23E
:102A400000481A6A43F4806522F010021A621C6A78
:102A50001A46D3F804C052F818EF8F6824F0200407
:102A6000C4F20108454544EA071407D1CF686FF066
:102A7000400624F0C00406EA07163443D1F800905B
:102A8000454506D1D1E905562CF440672E4347EA67
:102A9000860C2EF4E64747EA0927C3F804C09F6175
:102AA0004F6809699F631C629F6947F400679F61D3
:102AB0009F6927F480679F6171E000BF036840F25F
:102AC00000481A6A43F4806522F480721A621C6A14
:102AD0001A46D3F804C052F81CEF8F6824F400742F
:102AE000C4F20108454544EA072408D1CF6840F202
:102AF000FF463F0224F4406427EA06063443D1F837
:102B00000090454506D1D1E905562CF440572E4397
:102B100047EA061C2EF0730747EA0907C3F804C00A
:102B2000DF614F680969DF631C62DF6947F00807EE
:102B3000DF61DF6927F00407DF6131E0036840F2FD
:102B400000451A6A43F4806722F480521A621A46DA
:102B5000D3F820C05C6852F81CEFD1F800808E6872
:102B6000C4F20105AF4204D14D6924F4804444EA23
:102B700085142CF4005747EA06372EF4E64646EA59
:102B800008265C60DE614E6809691E641F62DF69A9
:102B900047F40067DF61DF6927F48067DF610902BE
:102BA0001368194311600021002280F83C20084678
:102BB000BDE8F0830121002280F83C200846BDE8F2
:102BC000F0830000002804BF0120704710B50446C0
:102BD00090F83D0028B9002084F83C00204600F021
:102BE0001FF8022084F83D002068211D00F02EFA15
:102BF000012084F8460084F83E0084F83F0084F801
:102C0000400084F8410084F8420084F8430084F8CE
:102C1000440084F8450084F83D00002010BD000009
:102C200080B582B000680021C4F2010188421CBF57
:102C300002B080BD0020019043F64400C4F20200BF
:102C40000168002241F0010101600068002100F0EC
:102C50000100019001981920FEF796FC192002B09E
:102C6000BDE88040FEF77CBC7047000040F2F411E4
:102C7000C2F20001884218BF704700F059BD000041
:102C800070470000002804BF0120704710B50446BB
:102C900090F83D0028B9002084F83C00204600F060
:102CA00021F8242084F83D002068C16821F40051F7
:102CB000C160204600F06CFB2068016921F490415E
:102CC0000161416921F02A014161C16841F400516B
:102CD000C16000202021206484F83D1084F83E105B
:102CE00010BD0000F0B587B0006844F6000140F266
:102CF0000044C4F20001C4F2020400258842CDE978
:102D00000555CDE90355029528D041F20001C4F2E2
:102D10000101884267D1002043F630010190C4F2DE
:102D200002014A69252542F010024A614A6902F00F
:102D300010020192019A01900A6842F002020A60B0
:102D4000096801F0020101910199C021029102215B
:102D5000CDE903100320059037E000BF43F63000B3
:102D60000195C4F202000169022641F4802101614B
:102D70000169032701F480210191019901950168FE
:102D800041F004010160016801F004010191019921
:102D90000195016841F002010160006802A900F09C
:102DA000020001900198202002900720069004F56F
:102DB0008060CDE903650597FEF794F94FF48060D4
:102DC000CDE904572725CDE902060720069002A980
:102DD0002046FEF787F9284600210022FEF7D4FBA3
:102DE0002846FEF7BDFB07B0F0BD0000FEE700007F
:102DF000FEE70000FEE700007047000040F27000B0
:102E0000C2F200000021017040F2C421C2F20001B0
:102E1000416040F23C2140F2D43240F24C3340F267
:102E20005C4CC2F20001C2F20002C2F20003C2F224
:102E3000000C09688260C360C0F810C0486940F0A7
:102E40000100486140F28020C2F20000006842693F
:102E500042F001024261CA6842F02002CA60C168C1
:102E600041F02001C16070472DE9F04182B01E465B
:102E700090460D460446FEF70FFA301A00EB08079D
:102E8000FEF70AFA40F20801C2F200010968C1F334
:102E9000CB317943019121688A682A40AA4227D11F
:102EA000064618F101001FD0FEF7F6F9801BB84264
:102EB00022D2019801990028A1F101010191216814
:102EC000896808BF074601EA0500A842ECD00FE078
:102ED00088682840A8420BD188682840A84207D1BA
:102EE00088682840A84203D188682840A842EFD0CB
:102EF000002002B0BDE8F081D4E900014268B1F5DC
:102F0000827F22F0E00242600AD1A168B1F5004F51
:102F100002D0B1F5806F03D1016821F0400101605A
:102F2000A16AB1F5005F07D1016821F40051016089
:102F3000016841F400510160012084F85100002033
:102F400084F85000032002B0BDE8F0817047000013
:102F5000FEF79ABA80B594B0002043F640010C9079
:102F6000CDE90A00CDE908000690CDE90400CDE9DD
:102F700002000190C4F202010A6842F080520A6025
:102F8000096801F080510191019947F20001019017
:102F9000C4F200010A6842F440420A600968012252
:102FA00001F44041019101990221CDE90D10082061
:102FB0000F90B4200A921022CDE9100107A80791C2
:102FC0000B92CDE91211FEF785FC28B1EFF31080CA
:102FD00072B600BFFEE700BFFEF712FB20B1EFF3B1
:102FE000108072B6FEE700BF0F200290022003900F
:102FF000002004904FF4A05005904FF480500690AC
:1030000002A80521FEF73AFB20B1EFF3108072B65B
:10301000FEE700BF14B080BD4EF68850CEF200002F
:10302000016841F4700101607047000080B540F212
:10303000AC10C2F20000FFF7CFFB40F2F410C2F276
:103040000000BDE88040FFF7C7BB000010B540F6A8
:10305000FF3E0368C4F2000E40F2004C7045C4F21B
:10306000010C27DCB0F1804F31D040F20042C4F2B5
:10307000000290422BD040F60002C4F200029042BF
:1030800025D041F6FF72C4F20002904229DC70455F
:103090003CDCB0F1804F5FD040F20042C4F200024D
:1030A000904259D040F60002C4F20002904253D040
:1030B00056E000BF40F60042C4F20002904206D043
:1030C000604504D00022C4F201029042D9D14A687E
:1030D00023F07003134341F6FF72C4F200029042E2
:1030E000D5DD43F6FF72C4F20102904222DC42F2C7
:1030F0000002C4F2000290422ED00022C4F201026B
:10310000904229D0604527D02AE000BF40F6004217
:10311000C4F2000290421FD041F60002C4F2000245
:10312000904219D041F60042C4F20002904213D0FE
:1031300016E000BF44F20002C4F2010290420BD03C
:1031400044F60002C4F20102904205D044F200426B
:10315000C4F20102904203D1CA6823F440731343BE
:1031600023F080024B69D1F800E08C681A430260BA
:10317000C46240F48062C0F828E0624504BF096977
:1031800001630121416110BD2DE9F0472DED048B54
:10319000B6B005460068144680F000400F4602F0C5
:1031A0009DF994ED000A97ED001A20EE000A21EE39
:1031B000011A31EE000A41EC180B10EE100A02F071
:1031C0008DF941EC100B01F013FBB0EE401AB0EE9C
:1031D000480AF0EE601AF0EE680A01F009FA51ECC4
:1031E000100B01F023FC8046386802F077F994ED6B
:1031F000000A95ED001A20EE000A21EE011A31EEC8
:10320000000A41EC180B10EE100A02F067F941ECCD
:10321000100B01F0EDFAB0EE401AB0EE480AF0EEF5
:10322000601AF0EE680A01F0E3F951EC100B01F0BE
:10323000FDFB8146286802F051F902460B4601F079
:1032400089FE054638680E4602F048F902460B46EC
:1032500001F080FE02460B462846314601F018FC7C
:1032600041EC100B01F0C4FA2068B0EE408AF0EE99
:10327000608A02F033F941EC110BB0EE480AF0EE2F
:10328000680A01F0B5F951EC100B01F0CFFB824652
:10329000404602F023F99FED300B55EC107B3A4687
:1032A0002B4601F057FE01F0C1FB0646484602F0EE
:1032B00015F93A462B4601F04DFE01F0B7FB0446E6
:1032C00008EE100A504602F009F93A462B4601F082
:1032D00041FE01F0ABFB0546304602F0FFF8064622
:1032E00020460F4602F0FAF841EC190B284602F08E
:1032F000F5F841EC100B04AC19A1204632463B46D0
:103300008DED009B8DED020BFDF754F840F280210E
:10331000C2F20001204600F035F99FED1B0A0020A3
:10332000B4EE408A9FED190AF1EE10FA4FF0000159
:10333000B4EE408AC8BF0121F1EE10FAB8BF0120F7
:10334000084040F2B401C2F20001087036B0BDEC92
:10335000048BBDE8F08700BFF8C1631ADCA54C40C0
:10336000585F4465673D2025302E32662C595F44F6
:1033700065673D2025302E32662C5A5F4465673DD7
:1033800025302E32660000000000B2420000B64236
:1033900010B504460068D4E902C22369016921F42A
:1033A000405111430161626943EA0C01E369114331
:1033B000C268194349F20C639A431143C1604169E1
:1033C000A26921F4407141F20043114340F480624C
:1033D000C4F201039A42416102D1FEF713FA01E0FF
:1033E000FEF7FCF9E16963681922B1F5004FA0FB13
:1033F000020123D15A00DB0FFCF764FF48F21F5192
:10340000C5F2EB11A0FB01235A094FF69C73C0F6DD
:10341000FF7303F1805302FB0300322303EBC00070
:10342000A0FB01014FF4F87000EA111000EB02104C
:10343000C1F3421108442168886010BD9A009B0FB7
:10344000FCF740FF48F21F51C5F2EB11A0FB01232E
:103450005A094FF69C73C0F6FF7302FB0300322338
:1034600003EB0010A0FB0101F02000EA511000EB7B
:103470000210C1F3431108442168886010BD0000A8
:1034800040F23C20C2F2000000F006B840F280207A
:10349000C2F20000AFF3008002681368D2F80CC0DB
:1034A00099061FD51CF020011CD01168516840F20C
:1034B0003C22C2F20002904236D040F28022C2F298
:1034C000000290423ED140F27000C2F20000C0689B
:1034D000D0F88020D0F88430013202F07F029A4286
:1034E00030D031E019062DD51CF080012AD040F2F1
:1034F0003C21C2F2000188422CD040F28021C2F26D
:103500000001884218BF704740F25C40C2F20000E0
:10351000D0F88020D0F884309A4225D10868C1685C
:1035200021F08001C160704740F27000C2F20000DB
:103530004068D0F88020D0F88430013202F07F0259
:103540009A4201D1704700BFD0F88030C154C0F812
:103550008020704740F2D430C2F20000D0F88020C2
:10356000D0F884309A42D9D0D0F88420825CD0F848
:103570008430013303F07F03C0F8843008680168A9
:103580004260704710B50278002A00F07D8040F25A
:103590003C2EC2F2000E714516D040F2802EC2F2CF
:1035A000000E714540D0023010F8011C00296BD08C
:1035B0000178002968D04178002965D081780430ED
:1035C000002908BF10BDEFE740F2700CC2F2000CFA
:1035D000DCF8081011E000BFD1F880400A55DCF893
:1035E0000810C1F88030DEF80020D36843F0800373
:1035F000D36010F8012F002A46D0D1F88030013373
:1036000003F07F03D1F88440A342E5D1D1F8844090
:10361000A342E1D1D1F88440A342DDD1D1F8844066
:10362000A342EFD0D8E700BF40F2700CC2F2000C0A
:10363000DCF8101010E000BFD1F880400A55DCF82B
:103640001010C1F88030DEF80020D36843F080030A
:10365000D36010F8012FBAB1D1F88030013303F0F4
:103660007F0300BFD1F88440A342E5D1D1F8844064
:10367000A342E1D1D1F88440A342DDD1D1F8844006
:10368000A342EFD0D8E700BF10BD0000FEE7000066
:10369000B0B582B040F6000440F27110C4F20204EA
:1036A000ADF8020020464FF480710022FDF7EEFDD8
:1036B00040F25415C2F200050DF102012846022223
:1036C0006423FEF78BFC20464FF480710122FDF746
:1036D000DDFD6D20ADF8040020464FF4807100221E
:1036E000FDF7D4FD01A9284602226423FEF776FCEB
:1036F00020464FF480710122FDF7C8FD40F66D00B1
:10370000ADF8060020464FF480710022FDF7BEFDA3
:103710000DF10601284602226423FEF75FFC2046D5
:103720004FF480710122FDF7B1FD02B0B0BD000081
:103730002DE9F04182B040F60004F220C4F2020408
:103740008DF8070020464FF480710022FDF79EFDA2
:1037500040F25415C2F200050DF10701284601227E
:103760006423FEF73BFC40F29806C2F200062846AE
:10377000314606226423FEF737FB20464FF4807162
:103780000122FDF783FD40F28401B6F90000C2F288
:103790000001B6F90270088040F28601C2F2000111
:1037A000B6F904400F8040F28801C2F200010C809B
:1037B00001F0B8FB9FED1A0B55EC106B32462B460F
:1037C00001F0C8FB01F032F940F28C08C2F20008A7
:1037D000C8F80000384601F0A5FB32462B4601F040
:1037E000B9FB01F023F940F29007C2F200073860FC
:1037F000204601F097FB32462B4601F0ABFB01F06F
:1038000015F940F29402C2F20002106040463946B7
:10381000FFF7BAFC02B0BDE8F08100BF00BF00BFF7
:10382000DE718A8EE4F27F3F92B040F60004C4F26B
:103830000204FDF737FEFFF78DFB002643F630004C
:10384000CDE904660996C4F202000168002241F045
:103850000401016001684FF4807701F004010991CF
:1038600009990996016841F080010160016801F041
:103870008001099109990996016841F001010160EF
:10388000016801F00101099109990996016841F067
:103890000201016000684FF4807100F0020009909D
:1038A00009982046FDF7F2FC4FF4005001904FF4C8
:1038B000041001ADCDE9020620462946FDF712FCB1
:1038C0000C2001900220CDE902060320049007207D
:1038D0000590A4F500602946FDF704FC0197012737
:1038E00020462946CDE902760496FDF7FBFB40F21F
:1038F000B8000123A4F56841C2F20000C0F60073CD
:1039000004964FF48032067680F82060C0E90A36CB
:10391000C76180F8306080E84600C0E9036647610F
:10392000FDF7FEFA20B1EFF3108072B6FEE700BF9C
:1039300040F2B800C2F2000001A9CDE90167039688
:10394000FDF734FA20B1EFF3108072B6FEE700BF46
:1039500040F2F410A4F54441C2F2000044F24F6278
:10396000002580E82600C0E903258561FEF788FE72
:1039700020B1EFF3108072B6FEE700BF40F2802066
:10398000A4F5E031C2F200000C234FF4E13280E8EC
:103990002600C0E90355C0E90535C561FFF772F996
:1039A00020B1EFF3108072B6FEE700BF40F20800CE
:1039B000C2F2000000684EF22F318009C0F2BE0151
:1039C000A0FB010140F2AC104FF0FF370022A4F53C
:1039D0008433C2F2000007EBD12140F2E737CDE992
:1039E00010220792C0E90031C0E90227C0E9042291
:1039F0008261FFF7E7F828B1EFF3108072B600BFDD
:103A0000FEE700BF40F2AC10C2F2000010A9FEF7C2
:103A1000DBFD28B1EFF3108072B600BFFEE700BFF8
:103A2000602009904FF4FA700A9040F2AC10002523
:103A3000C2F2000009A90022CDE90B55CDE90D55D0
:103A40000F95FEF7ADFF28B1EFF3108072B600BFFF
:103A5000FEE700BF4FF40050069040F2AC10C2F2F7
:103A6000000001A90595CDE90355CDE9015508955B
:103A7000FEF784FD20B1EFF3108072B6FEE700BFC1
:103A800040F2AC10C2F20000FEF75EFF40F2001000
:103A9000A4F5DA31C2F2000048F2A06200254FF42A
:103AA0008043C0F2010280E82600C0E90353C0E968
:103AB0000555C0E90755FDF7F5FB28B1EFF3108078
:103AC00072B600BFFEE700BF40F23C20A4F578418B
:103AD000C2F200000C234FF4E13280E82600C0E976
:103AE0000355C0E90535C561FFF7CCF820B1EFF308
:103AF000108072B6FEE700BFFFF780F940F2541065
:103B0000A4F5E831C2F200004FF4827200230227CC
:103B100001264FF40075282480E80E000A21C0E930
:103B20000337C0E90565C461C0E90833C0E90A315B
:103B3000FEF7A4F820B1EFF3108072B6FEE700BFE5
:103B4000FFF7A6FD40F2F410C2F20000FEF7ECFD14
:103B5000FEE75FEA400C08BF91F0000F4FEA8C23AC
:103B60004FEAC12243EA51514FEA1C5018BF00F5F9
:103B7000F0404FEA300018BF41F000415FEA6C5C52
:103B800000F02980BCF1FF3F08BF40F08040704743
:103B9000130C06BF12044FF0100C4FF0000C130E64
:103BA00004BF12020CF1080C130F04BF12010CF138
:103BB000040C930F04BF92000CF1020CD30F04BF4E
:103BC00052000CF1010C11464FF00002A0F11F0051
:103BD000A0EB0C00704711F0004F08BF704731F0A8
:103BE00000413FF4D5AF0B0C06BF09044FF0100C99
:103BF0004FF0000C0B0E04BF09020CF1080C0B0F68
:103C000004BF09010CF1040C8B0F04BF89000CF1F7
:103C1000020CCB0F04BF49000CF1010CCCF12003C6
:103C200022FA03F341EA030102FA0CF2A0EB0C00C2
:103C300000F101007047000023F07F4720F07F4C27
:103C400080EA030000F00040ACEB070303F57C536F
:103C500003F1FF032DE9804909B44FEA144324EA34
:103C600003484FEA154B25EA0B4E0FF2042606EBEC
:103C700013273E7803FB0667C7F5000707FB06F628
:103C80004FEAD64606F102064FEA543707FB066CA8
:103C9000CCF1005C4FEA1C472CEA074C0CFB06F504
:103CA00007FB06F404EB15464FEA961649085FEA4F
:103CB000320234BF00204FF000404FEAD13706FBFC
:103CC00007FC4FEA1C4C0CFB0BF7D21B03FB0CF759
:103CD00061EB07010CFB0EF7B0EB074072EB1742EC
:103CE0000CFB08F734BFA2EB0742B2EB074261EBD3
:103CF00017414FEA0C444FEA910706FB07FC4FEAD5
:103D00001C4C0CFB0BF7B0EBC74072EB573203FBBC
:103D10000CF734BFA2EBC742B2EBC74261EB57319D
:103D20000CFB0EF7B0EBC70072EB57720CFB08F7F9
:103D300034BFA2EBC702B2EBC70261EB57714FEA87
:103D4000816141EA92114FEA826242EA90124FEA9F
:103D5000806004EBCC04039F4FEAD13706FB07FCDD
:103D60004FEA1C4C0CFB0BF7D21B03FB0CF761EB6F
:103D700007010CFB0EF7B0EB074072EB17420CFB90
:103D800008F734BFA2EB0742B2EB074261EB1741E1
:103D90004FEA8C5504EB9C244FEA910706FB07FC85
:103DA0004FEA1C4C0CFB0BF7B0EBC74072EB5732E1
:103DB00003FB0CF734BFA2EBC742B2EBC74261EB87
:103DC00057310CFB0EF7B0EBC70072EB57720CFBD0
:103DD00008F734BFA2EBC702B2EBC70261EB577121
:103DE0004FEA816141EA92114FEA826242EA9012FF
:103DF0004FEA806015EB4C2544F100044FEAD137BF
:103E000006FB07FC4FEA1C4C0CFB0BF7D21B03FB19
:103E10000CF761EB07010CFB0EF7B0EB074072EB00
:103E200017420CFB08F734BFA2EB0742B2EB074284
:103E300061EB17414FEA813141EA92414FEA823208
:103E400042EA90424FEA80304FEA0C7615EB1C159F
:103E500044F1000448EA03434EEA0B484FF0000ED9
:103E6000B2EB080C71EB030724BF624639464EEBF8
:103E70000E0E4FF0000B0018524149414BEB0B0B5B
:103E8000B2EB080C71EB03077BF1000B24BF624619
:103E900039464EEB0E0E4FF0000B001852414941CF
:103EA0004BEB0B0BB2EB080C71EB03077BF1000B38
:103EB00024BF624639464EEB0E0E51EA020718BF88
:103EC00046F0010616EB0E7655F1000254F10001A2
:103ED00003D5BDE88901BDE80088BDE88901BDE8DA
:103EE0000048B619524141EB0101A3F101037047AB
:103EF00080807F7E7D7C7B7A797877767675747327
:103F0000727171706F6E6E6D6C6C6B6A6A696868E5
:103F1000676666656464636362616160605F5F5E7B
:103F20005E5D5D5C5C5B5B5A5A59595858575756F1
:103F30005655555554545353525252515150505056
:103F40004F4F4F4E4E4D4D4D4C4C4C4B4B4B4A4AA8
:103F50004A494949484848474747474646464545EC
:103F60004544444444434343434242424241414125
:103F70009C46002B30D477002BD04FEA37071CB576
:103F800003B44FF010004FF01001BAF1000F06D04B
:103F9000BCF1000FDCBF40F0080040F008014FF01A
:103FA00000000FBCBDE810400BF1010BBBF1010F8D
:103FB00008BF5FEA170722BF12F1010211F10101E8
:103FC0004FF0004143F1000300F0004043EA0000DD
:103FD0007047F9D35708D0E746EA06464FEA164637
:103FE00013F1400F1FDD13F1200FDFBF16430A4608
:103FF000002120335B42BED0C3F1200746EA0646CB
:104000004FEA164602FA07F746EA070622FA03F2D3
:10401000C3F1200701FA07F742EA070221FA03F188
:104020004FF00003A7E746EA020646EA06464FEAD3
:10403000164646EA0106BCBF46EA0646360C4FF075
:1040400000034FF000024FF0000194E72DE9804C8F
:1040500070B49A46934691E8380007C831EA400C9C
:1040600048BF34EA430C03D5FFF7E6FDFFF780FFB6
:10407000F0BCBDE8008C2DE9804C70B49A469346A4
:1040800091E8380007C810F0804F08BF13F0804F48
:1040900003D100F005F8FFF76BFFF0BCBDE8008C22
:1040A00020F07F4723F07F4C80EA030000F00040BF
:1040B00007EB0C03A3F57C53A3F1FE0392F0000F72
:1040C00000F0B38095F0000F00F077802DE90149F2
:1040D0004FEA114021EA00484FEA144624EA064715
:1040E00000FB06FC08FB06F607FB08F818EB064881
:1040F0004CEB164C00FB07F718EB07484CEB17404E
:104100004FEA124B22EA0B4E4FEA154625EA0647C4
:104110000BFB06FC0EFB06F607FB0EFE1EEB064E27
:104120004CEB164C0BFB07F71EEB074E4CEB174BFB
:1041300018EB0B0840F1000018EB0E0B58EB0008D1
:1041400040F100008F1A4FF000014FF000063CBF15
:10415000C943661B14BFB5EB040C00213CBFC94327
:10416000F61B4FEA174427EA04454FEA1C472CEA9E
:10417000074C04FB076205FB07F70CFB05F616EB83
:10418000074642EB174204FB0CFC16EB0C4642EBD5
:104190001C421BEB060658EB020241414EEA8E0E12
:1041A00046EA9E0601D5BDE80189B619524141EBA8
:1041B0000101A3F10103BDE801894FEA144524EA96
:1041C00005464FEA114721EA074C05FB07F406FBB9
:1041D00007F70CFB06F111EB074144EB174405FB15
:1041E0000CFC11EB0C4144EB1C444FEA124722EA51
:1041F000074C05FB07F206FB07F70CFB06F616EB70
:10420000074642EB174205FB0CFC16EB0C4642EB53
:104210001C456A1854F1000148BF7047B619524155
:1042200041EB0101A3F10103704795F0000F37D076
:104230004FEA114221EA02464FEA144724EA074CAA
:1042400002FB07F106FB07F70CFB06F414EB07442F
:1042500041EB174102FB0CFC14EB0C4441EB1C41FD
:104260004FEA154725EA074C02FB07F506FB07F75F
:104270000CFB06F616EB074645EB174502FB0CFC5C
:1042800016EB0C4645EB1C42121951F1000148BFD8
:104290007047B619524141EB0101A3F10103704788
:1042A0004FEA144524EA05464FEA114721EA074C34
:1042B00005FB07F106FB07F70CFB06F212EB0742C2
:1042C00041EB174105FB0CFC12EB0C4251EB1C417E
:1042D0004FF0000648BF7047921841EB0101A3F16F
:1042E0000103704703B401984100009850EAC120CF
:1042F00018BF04204A0D18BF40F0010040F2FF72C1
:10430000B2EB515F08BF40F00200012808BF052052
:1043100002B070470000000070B59B482DED020B05
:104320002DED068B079D25F00044A04218DC974830
:10433000844202DC0AD1069840B19DED060BBDEC2B
:10434000068B02B0BDE8704000F00BBB002DCCBF67
:104350009FED8F0B9FED900BBDEC068B02B070BDF7
:104360008F48A04215DD8F48A042D8BF4FF0FF34E0
:1043700058DD9DED060B51EC100BFFF7B3FF042841
:1043800008BF00F005FB9DED060BBDEC068B02B0EF
:1043900070BD9DED060B51EC100B00F018FBCDE944
:1043A000060181489FED828BA0423CDD8248A042FD
:1043B0001FDD00249FED82AB9DED060B53EC1A2B05
:1043C00051EC100B00F064FB9DED060B41EC190B5A
:1043D00053EC1A2B51EC100B00F0BCFD53EC182BD6
:1043E00000F08EFF53EC192B00F006FCCDE906011E
:1043F00049E09DED060B012453EC182B51EC100BFA
:1044000000F046FB9DED060B41EC190B53EC182B0D
:1044100051EC100B00F074FF53EC192B00F0ECFB87
:10442000CDE906012FE06848A0421FDD02249FED80
:10443000689B9DED060B53EC192B51EC100B00F013
:1044400089FD53EC182B00F023FB9DED060B41EC8E
:10445000180B53EC192B51EC100B00F051FF53ECDF
:10446000182B00F0C9FBCDE906010CE09DED060B11
:10447000032453EC102B9FED580B51EC100B00F064
:10448000BBFBCDE906019DED060B53EC102B51EC67
:10449000100B00F05FFD41EC180B53EC182B00F0F3
:1044A00059FD41EC190B4E480621B0EE490AF0EED9
:1044B000690A784400F0D9F953EC182B51EC100B31
:1044C00000F048FD41EC180B4648B0EE490AF0EE0A
:1044D000690A0521784400F0C8F953EC192B51EC16
:1044E000100B00F037FD41EC100B51EC180B53ECA6
:1044F000102B002C0EDA00F0CBFA9DED061B53ECCE
:10450000112B00F027FD9DED061B53EC112B00F045
:104510001FFE35E000F0BCFA9DED061B53EC112B9D
:1045200000F018FD41EC100B2F48784400EBC4005C
:1045300090ED001B51EC100B53EC112B00F0E0FE42
:104540009DED061B53EC112B00F0DAFE41EC100B35
:104550002648784400EBC40090ED001B51EC100B92
:1045600053EC112B00F0F4FD41EC100B002DA2BF19
:10457000BDEC068B02B070BD51EC100B00F04AFA96
:1045800041EC100B01E70000000010440000F07F38
:10459000182D4454FB21F93F182D4454FB21F9BF39
:1045A0000000DC3F0000203E0000F33F0000000060
:1045B000000000000000F03F0000E63F00000000A7
:1045C00000000000000000400080034000000000E8
:1045D000000000000000F83F000000000000F0BFF5
:1045E000AA11000060110000EA100000A2100000F3
:1045F00070B56F4E2DED040B2DED048B82B0DDF800
:1046000024C0DDE907235C422CF000411C4341EA51
:10461000D474069D22F00040B44205D86C422C436D
:1046200040EAD474B4420BD99DED081B9DED060BF6
:1046300002B0BDEC048B04B0BDE8704000F09BB943
:10464000ACF14054A4F17F641C430BD0022404EA73
:10465000AC7444EAD27405439FED578B9FED582B01
:1046600007D015E09DED060B51EC100B00F0A7F9FB
:1046700042E0002C11BF012C9DED060B02B0BDECF9
:10468000048B04BF04B070BD022C38D0032C3BD087
:104690000B439FED4D1B9FED4E0B0AD0B14218D13D
:1046A000B04209D121F0804120F08040099107906B
:1046B0000FE0002A15DA10E0474B7B44002C08BFBE
:1046C00093ED000B0DD0012C10D0022C17D0032C31
:1046D0001AD0B0421DD1002A03DAB0EE410AF0EE42
:1046E000610A02B0BDEC048B04B070BD93ED000B09
:1046F00051EC100B00F08EF941EC100BF1E7B0EE2D
:10470000480AF0EE680AECE7B0EE420AF0EE620A00
:10471000E7E7401A00159FED329B3C28C8BF8DED9E
:10472000000B17DCBCF1000FBCBF10F13C0F8DED8E
:10473000009B0FDB9DED080B53EC102B9DED060B42
:1047400051EC100B00F058FA00F041F900F037F985
:10475000CDE90001B4B1012C10D0022C9FED220B49
:1047600053EC102B9DED000B51EC100B19D000F009
:10477000C7FD53EC182B00F0C3FDBDE7019880F096
:10478000004001909DED000B53EC192B51EC100BE8
:1047900000F08CFB04BF0220FBF705FF9DED000B32
:1047A0009FE700F0ADFD53EC182B00F0D1FCA3E720
:1047B0000000F07F00000000182D4454FB21094048
:1047C000182D4454FB2109C0182D4454FB21F9BF76
:1047D000182D4454FB21F93FD20F000000000000C7
:1047E0000000000000000000075C143326A6A13C76
:1047F00000B52DED048BB0EE409AF0EE609A83B0D8
:1048000051EC190B00F0B0FC41EC180B18EE100A3B
:1048100018EE901A8DED008B002818BF0120084378
:1048200020F00040C0F17F6000F1E040C00F14D0E4
:1048300019EE101A19EE900A8DED009B002918BF91
:104840000121084320F00040C0F17F6000F1E0400A
:10485000C00F04BF0120FBF7A6FEB0EE480A03B06C
:10486000F0EE680ABDEC048B00BD70B504462DED7A
:10487000028B4D1E00EBC500B0EE408AF0EE608A60
:1048800090ED000B35F0060017D053EC182B51ECCF
:10489000100B00F05FFB41EC100B6D1E04EBC5002C
:1048A00090ED001B51EC100B53EC112B00F0F0F8C5
:1048B00041EC100B35F00600E7D1022D36D0042D67
:1048C0001CD0062D1CBFBDEC028B70BD53EC182B09
:1048D00051EC100B00F03EFB94ED0A1B53EC112B36
:1048E00000F0D6F853EC182B00F034FB94ED081BC5
:1048F00053EC112B00F0CCF841EC100B53EC182BBF
:1049000051EC100B00F026FB94ED061B53EC112B21
:1049100000F0BEF853EC182B00F01CFB94ED040BD8
:1049200053EC102B00F0B4F841EC100B53EC182BA7
:1049300051EC100B00F00EFB94ED021B53EC112B0D
:1049400000F0A6F853EC182B00F004FB94ED001BCC
:1049500053EC112B00F09CF8BDEC028B41EC100BDA
:1049600070BD10B553EC102B51EC100B00F090F80B
:1049700041EC100B10BD10B553EC112B51EC100B8A
:1049800000F086F841EC100B10BD000000000000A4
:104990009FED050B10B553EC102B51EC100B00F0F4
:1049A000D9FA41EC100B10BD00000000000000100F
:1049B00030380A2801D2012070470020704710B516
:1049C00041EC100BFFF7A8FC51EC100B10BD82B0AE
:1049D000CDE9000121F0004001909DED000B02B0F7
:1049E00051EC100B7047000010B500290AD0087870
:1049F000002807D005487844FCF78EF9002801D03C
:104A0000002010BD0248784410BD00006E0D00006B
:104A1000660D000081F00041704780F00040704753
:104A200021F00041704720F00040704721F0004223
:104A300001F00043A2F16052B2F5801F28BFD2F10D
:104A40007F6C0BD95FEA001C43EAC20242EB507054
:104A500018BF704728BF20F001007047B2F5801FD3
:104A6000BCBF184670474FEA410C1CF5001F02D22C
:104A7000084600F0B1BD70B500F016FB00000089DB
:104A8000FFF7F6BF4FF00040A0F580007047000030
:104A900010B591EA030F48BF83F0004300F138845A
:104AA000841A71EB030C05D2121943EB0C03001BA3
:104AB00061EB0C014FEA1154A4EB135CDFF81CE12D
:104AC0001EEA430F18BF9EEA445F00F0748021EA9B
:104AD000045123EA0E0343F48013DCF1200E32D399
:104AE00022FA0CFE10EB0E0023FA0CFE41EB0E0135
:104AF000CCF1200E03FA0EFE10EB0E00CCF1200ECE
:104B000051F10001B1F5801F32D201EB045112FACC
:104B10000EF2BDE8104058BF7047401C38BF5FEA36
:104B2000420218BF7047002814BF20F0010041F175
:104B300000014FEA410313F5001F38BF7047A1F190
:104B4000C04100F0FFBA012A43EB0302ACF1200C94
:104B5000DCF11F0E32BF4FF0000E23FA0CF310EB06
:104B6000030041EB0451B4EB115FD0D0A1EB045131
:104B700001F58011490801EB04515FEA30000ED3C2
:104B800050F1000038BF12FA0EFE08D1BDE8104007
:104B9000C9E7401C38BF5FEA4202CAD1C3E7BDE89B
:104BA00010404FEA410313F5001F38BF7047A1F1D1
:104BB000C04100F0C7BA9EEA445F08D011EA5E0F18
:104BC000BDE8104004BF01F0004100207047BDE87F
:104BD000104070B500F068FA64FBBE3E0000E0FFD4
:104BE000491058BFC1F140415B1058BFC3F1404369
:104BF0008B42EFF3008070472DE9C04130B4DFF8FD
:104C0000A4C23CEA111418BF3CEA131400F0ED8072
:104C10001CEA111481EA030544EAD57418BF1CEAA2
:104C2000131500F0C880A4EB050404F17F7404F5AB
:104C300000344FF0004545EAC12145EAC32341EA6B
:104C4000505143EA52534FEAC0204FEAC2229942E0
:104C500008BF904200F09D804FEA13650FF24416A2
:104C6000765D4FEA134506FB05F7C7F1807706FB33
:104C700007F74FEAD737A7FB03687642A7FB06CEB4
:104C8000C8F5803838BFA8F1010807FB08E6A6FB85
:104C9000028C4FF0000EE6FB03CEDCF1000CCEF1EF
:104CA000004E38BFAEF1010EA6FB0C584FF00007C6
:104CB000E6FB0E87A1FB08C6A0FB07CE16EB0E068F
:104CC0004FF0000545F10005E1FB076515F1E04EE9
:104CD0007EBFA4F580345FEA46066D4116F1800779
:104CE00045F100054FEA172747EA05674FEA152502
:104CF0004FEA0666A6F1DE46B6F1805F20D9384657
:104D000005EBC47124F0010C01EB0C11BCF1FE6F3A
:104D100002D8F0BCBDE8008124425CBF01F5801ED2
:104D20009EEAC47F02D4F0BCBDE80081244200F1B9
:104D30003980A1F1C041F0BCBDE8004100F002BAE9
:104D40004FEAD02040EA41504FEAD1214FEAD22227
:104D500042EA43524FEAD323A7FB028607FB0366CE
:104D600005FB02661EEA0E0F58BFA6EB0056B6EB17
:104D700000564FEA520E4EEAC37E18EB0E0E56EB6B
:104D8000530EBCD518EB02085E417F1C55F100059F
:104D9000B5E74FF480154FF000074FF000064FF0D5
:104DA0000008ACE701F1C04101F000414FF0000004
:104DB000F0BCBDE800810CEA131511EA0C1F00D00D
:104DC0000CE013EA0C1F00F026804FF0000081EA8F
:104DD000030101F00041F0BCBDE80081F0BCBDE87A
:104DE000004181EA030100F0ADB9F0BCBDE800412B
:104DF00070B500F059F900BF097EFC3E00F007B81D
:104E00004FF0000081EA030101F00041704781EAA0
:104E1000030100F097B9F0BCBDE8004122494FF012
:104E200000007047FFFDFBF9F7F5F4F2F0EEEDEB53
:104E3000E9E8E6E4E3E1E0DEDDDBDAD8D7D5D4D398
:104E4000D1D0CFCDCCCBCAC8C7C6C5C4C2C1C0BFE4
:104E5000BEBDBCBBBAB9B8B7B6B5B4B3B2B1B0AFEA
:104E6000AEADACABAAA9A8A8A7A6A5A4A3A3A2A1CE
:104E7000A09F9F9E9D9C9C9B9A9999989797969589
:104E800095949393929191908F8F8E8E8D8C8C8B25
:104E90008B8A8989888887878685858484838382AD
:104EA000828181800000FF070000F87F51EA030C37
:104EB00017D41CF5801F58BFBCF5801F00F1068079
:104EC000994218BF704708BF9042704707D711F545
:104ED000801F58BF13F5801F19D49942704789422B
:104EE00070471CF5801F08D5BCF5801FF7D58B4295
:104EF00018BF704708BF824270474FF4001C1CEB7C
:104F0000410F38BF1CEB430F01D28B42704770B585
:104F100000F0CAF8922449004FF000514FF080533E
:104F2000FFF75EBE10F0004248BF4042B0FA80F387
:104F300010FA03F10AD0C3F11D0303F5806302EBFD
:104F400003524FEA415002EBD12170474FF000006D
:104F50007047000070B5DFF848C11CEA111E1EBF83
:104F60001CEA13159EEA0C0F95EA0C0F00F06F80F7
:104F700081EA03044EEAD47EAE4421EA4C1123EACE
:104F80004C1341F4801143F48013AEF17F7EA1FBFA
:104F9000024CA0FB0365361955EB0C05A1FB034C35
:104FA0004CF10003A0FB021C16EB0C06654153F10B
:104FB0000003094218BF46F0010613F4007F0BD12D
:104FC0004FEA03314FEA053041EA155140EA1650E5
:104FD00034036FF003020AE04FEAC3214FEAC52011
:104FE00041EA555140EA5650F4026FF0020202EBDA
:104FF0002E4201EB025585EACE710AD05FEA440CDD
:1050000018BF24F0004450F1000041F1000120EAF3
:10501000D47040F2FE7C624500D270BDA84214BF3D
:105020004FF080444FF04044002E08BF0024BEF1F2
:10503000806FA8BFA1F1C041BDE8704080F28280BE
:1050400001F1C04101F000414FF0000070470CEA4F
:1050500013159EEA0C0F18BF95EA0C0F06D081EAD3
:10506000030E4FF000000EF0004170BD00F01CF880
:105070008900013E00F007B800F009B84FEA430C80
:105080005FEA5C5C08D081EA030100F05BB84FEA9C
:10509000410C5FEA5C5CF6D102494FF000007047BA
:1050A0000000FF070000F87F0EF1020E2EF0030E45
:1050B0005EF8046B364205D4012A43EB030515F56F
:1050C000001F12D8012841EB010C1CF5001F0CD861
:1050D0000ED14FEAD17C0CEB4C0C0CF1020C15F507
:1050E000001F08BF4CEBD37C04E04FF0080C01E03C
:1050F0004FEAD37C0CEB4C0526FA05F606F00706C2
:10510000B6F1040C06D20EEB860CBDE870404CF0F4
:10511000010C6047DFE80CF0090B02024FF0004180
:10512000A1F500214FF0000070BD1946104601287E
:1051300051EB010418BFD4F5001484BF002001F026
:10514000004170BD0808A0F500114FEA3101704719
:1051500010B591EA030F81F000413FF5A1AC83F057
:10516000004300F0D5B800002DE9F04101F5801CA6
:10517000BCF5001FC0F2A9804FEA115C21EA0C5176
:1051800041F480110CF1FD0C5FEA5C0C0CF5C07C65
:1051900001D340004941890241EA905187022EA47F
:1051A0008E0EA45D0A0C04FB04F602FB06F6C6F1A3
:1051B0004046A4FB0662F60D46EA422606FB06F4CC
:1051C000A4FB01235242C3F1404338BF5B1EA6FB40
:1051D00002420024E6FB0324D20B42EA4446A6FB2B
:1051E0000623A1FB02E2A3FB07E4E3FB6142644266
:1051F000C2F1404E38BFAEF1010EA6FB04234FF0C2
:105200000002E6FB0E32A2FB03463400E2FB6264BE
:10521000A1FB06E6A4FB07E8E4FB61687642C8F15F
:10522000405838BFA8F10108A2FB06E4A3FB08E53B
:10523000E2FB6854A1FB05E6A7FB04E8E1FB6486FA
:1052400018F1200556F10006A80940EA8660B10968
:10525000A8F11B0808F03F08B8F10A0F1CD901EBB0
:105260000C51BDE8F08100BFFCF5EEE8E2DDD8D3DB
:10527000CFCBC7C3C0BDB9B6B4B1AEACA9A7A5A3C7
:10528000A19F9D9B9A9896959392908F8D8C8B89D8
:105290008887868584838281A0FB006800FB01F2F9
:1052A00008EB4208B8EB872807D5341858EB0104FF
:1052B000D5D5401C51F10001D1E7341A78EB010437
:1052C000CDD4401E71F10001C9E75FEA4C0C5FEAE2
:1052D0009C5C0DD105D301F000414FF00000BDE80A
:1052E000F081BDE8F04170B5FFF7DEFE6DDBFFBE7B
:1052F000BDE8F04101494FF0000070470000F87F21
:1053000010B591EA030F48BF83F000433FF5C8ABE7
:10531000841A71EB030C07D28CF0004C121943EB8A
:105320000C03001B61EB0C014FEA1154A4EB135C5E
:10533000DFF8A4E11EEA430F18BF9EEA445F00F0C5
:10534000B48021EA045123EA6E035242C3EB6E0398
:1053500038BF5B1EDCF1200E25D322FA0CFE10EBC9
:105360000E0043FA0CFE41EB0E01CCF1200E03FAC5
:105370000EFE10EB0E00CCF1200E51F1000129D4ED
:1053800001EB045112FA0EF2BDE8104058BF70470D
:10539000401C1CBFB2F1004F704700280CBF491CD5
:1053A00020F00100704712EB020E43EB030218BF1E
:1053B0004FF0010E4EEA4202ACF1200CDCF11E0E61
:1053C00056D943FA0CFE10EB0E00CCF11E0E51F133
:1053D000FF31D5D50EF1010E12FA0EFE404141EB20
:1053E000010101EB445C5FEA5C5C10D901EB045104
:1053F00010EBDE7038BFBEF1004FBDE8104018BFA3
:10540000704700280CBF491C20F00100704734D2BF
:105410004FEAD42C24F4006411F500111BD0B1FA2A
:1054200081F20B3AA41AA41ED2F12003914030FA63
:1054300003F31943904001EBCC7101EB0451002CB4
:10544000BDE81040A8BF704701F1C04101F0004124
:105450004FF000007047B0FA80F310FA03F102D168
:10546000BDE810407047E41A173C4805C90AE2E756
:1054700001EB0451BDE81040704749104FEA30007D
:1054800001EB0451BDE8104002E04FF0000170470D
:105490004A0008BF0042F8D0B2F5001F28BF70478D
:1054A00001F000414FF0000070479EEA445F07D0D2
:1054B00011EA5E0FBDE8104004BF002100207047D4
:1054C000BDE8104070B5FFF7EFFD00BF40DFF63ECE
:1054D000104683F0004170470000E0FF43004FEAB0
:1054E000D30C4FEA3C0C43401FBF40070CF1605106
:1054F00013F0FE4F70471CF0006F03D10CF0004119
:10550000002070470CF0004343EA507040EACC00A2
:1055100010B500F00EF800BF000000924FEA000145
:10552000FFF710BE4FF00041A1F500214FF0000041
:1055300070470EF1020E2EF0030E5EF8044B24426B
:1055400004D44FEA4102B2F17F4F11D84FEA400331
:10555000B3F17F4F0CD80ED14FEAD07C0CEB4C0C42
:105560000CF1020CB2F17F4F08BF4CEBD17C04E090
:105570004FF0080C01E04FEAD17C0CEB4C0324FA0D
:1055800003F404F00704B4F1040C06D20EEB840C0F
:10559000BDE810404CF0010C6047DFE80CF0070854
:1055A00002024FF00040A0F5800010BD0846420006
:1055B00018BFD2F1807288BF00F0004010BDF1EE3C
:1055C000100A4FF6FF71C0F2C03120EA010040F02E
:1055D0004070E1EE100A7047FF2141EAD050C0054B
:1055E0007047FBF717B90400000800000000000036
:1055F00000020001000010004FBB610567ACDD3FF9
:10560000182D4454FB21E93F9BF681D20B73EF3FE9
:10561000182D4454FB21F93FE2652F227F2B7A3C61
:10562000075C143326A6813CBDCBF07A8807703C1A
:10563000075C143326A6913CC4EB98999999C9BF8D
:10564000711623FEC671BCBF6D9A74AFF2B0B3BFC2
:105650009AFDDE522DDEADBF2F6C6A2C44B4A2BF82
:105660000D5555555555D53FFF8300922449C23FEE
:105670006E204CC5CD45B73F513DD0A0660DB13F22
:10568000EB0D76244B7BA93F11DA22E33AAD903F34
:10569000000000000000000002400000000000A028
:1056A0000000000005400000000000C800000000ED
:1056B0000C4000000000409C000000001940000069
:1056C0000020BCBE0000000034400000BFC91B8E9B
:1056D00000000004B5400000504BCFD06607E2CF79
:1056E000010000006C4100003E8251AADFEEA734A9
:1056F00001000000D9420000DCB5A0E23A301F975B
:10570000FFFFFFFFB4450000FD25A0C8E9A3C14F7E
:10571000FFFFFFFFFF3F00000000008000000000CF
:10572000FF3F0000000000800000000000000000BB
:105730000000000001020304060708090000000041
:105740000102030480570008000000201000000040
:10575000000200089057000810000020D80A00003E
:105760001C0200081C00000043000000F8FFFFFFBF
:105770000C0000000E0000000F0000002E000000D2
:1057800001000000100000000024F40000000000F0
:04000005080001C529
:00000001FF
