:020000040800F2
:10000000200E002091020008693E0008013E000811
:10001000653E0008BD1100087145000800000000A1
:10002000000000000000000000000000DD3E0008AD
:1000300035180008000000006D3E0008E13E000891
:10004000AB020008AB020008AB020008AB020008DC
:10005000AB020008AB020008AB020008AB020008CC
:10006000AB020008AB020008AB020008AB020008BC
:10007000AB020008AB020008AB020008AB020008AC
:1000800029180008AB020008AB020008AB02000808
:10009000AB020008AB020008AB020008AB0200088C
:1000A000AB020008BD3F0008AB020008AB0200082D
:1000B000DD3F0008AB020008AB020008AB020008FD
:1000C000AB020008AB020008AB020008AB0200085C
:1000D000AB020008AB0200082543000841430008BA
:1000E000AB020008AB020008AB020008AB0200083C
:1000F000AB020008AB020008AB020008AB0200082C
:10010000AB020008AB020008AB020008AB0200081B
:10011000AB020008AB020008E93F0008AB02000890
:10012000AB020008AB020008AB020008AB020008FB
:10013000AB0200080000000000000000AB02000855
:10014000AB020008AB020008AB020008AB020008DB
:10015000AB020008AB020008AB020008AB020008CB
:10016000AB020008AB020008AB020008AB020008BB
:10017000AB020008AB020008AB0200080000000060
:1001800000000000AB0200080000000000000000BA
:10019000AB0200080000000000000000AB020008F5
:1001A000000000000000000000000000AB0200089A
:1001B000AB020008AB020008AB020008AB0200086B
:1001C000AB02000800F002F800F052F80AA090E834
:1001D000000C82448344AAF10107DA4501D100F002
:1001E00047F8AFF2090EBAE80F0013F0010F18BF7D
:1001F000FB1A43F0010318472C7400004C740000F4
:10020000103A24BF78C878C1FAD8520724BF30C842
:1002100030C144BF04680C60704700000023002414
:1002200000250026103A28BF78C1FBD8520728BF06
:1002300030C148BF0B607047662907F0EC80642925
:1002400000F0D280002070471FB507F0D7F800F00B
:10025000F3FD04000020002106F02CFC401C60602F
:100260000020002106F010FCE0601FBD10B510BD9D
:1002700000F060FF1146FFF7E7FF05F08DF900F091
:100280008CFF03B4FFF7F2FF03BC00F08FFF000008
:100290000948804709480047FEE7FEE7FEE7FEE71A
:1002A000FEE7FEE7FEE7FEE7FEE7FEE70448054956
:1002B000054A064B70470000A93F0008C501000829
:1002C00020080020200E0020200A0020200A002004
:1002D00053EA020C00F069802DE9F04B4FF0000664
:1002E000002B1FBFB3FA83F503FA05F424FA05F6D1
:1002F0005E4012BF1643B2FA82F502FA05F4C5F168
:1003000020051EBF22FA05FC44EA0C04203556EAFB
:10031000044C4FEA144418BF641C4FF000084FF01F
:100320000009904271EB030C39D3002919BFB1FACF
:1003300081F701FA07F6B0FA80F700FA07F6C7F17D
:1003400020071EBF20FA07FC46EA0C062037B6FB42
:10035000F4FCA7EB0507103F07F01F0BCBF12006BD
:100360002CFA06F60CFA0BFB44BFB3460026202FEE
:10037000A4BF5E464FF0000B5BEA060C08BF4FF0CF
:10038000010B19EB0B0948EB0608ABFB027C06FBE3
:1003900002CC0BFB03CCC01B71EB0C01C1E70B467D
:1003A000024641464846BDE8F08B13B5084318BFE6
:1003B0004FF0FF300146AFF30080BDE81C407047AE
:1003C0000FB41CB5074B06AA7B44694600900598FC
:1003D00000F053FC0020694600F062FC1CBC5DF894
:1003E00014FB0000D50800002DE9F041064600246A
:1003F00010687529314616A510D0AFF3008000288B
:1004000002DA404213A507E031688A0701D512A538
:1004100002E0490704D511A5012401E0AFF30080F3
:1004200000210A2206F1240709E0B0FBF2FCB0FB30
:10043000F2F302FB1C00303078541846491C0028A7
:10044000F3D123462A463046BDE8F04100F0A9B971
:10045000000000002D0000002B0000002000000024
:100460002DE9F05F894604464FF0000ADFF824B119
:10047000FB44C0F820A02046E168884700287DD0D2
:10048000252806D0D4E901219047206A401C20622B
:10049000F1E700255F462046E168884720280646A8
:1004A00007DB312E05D2B81910F8200C08B105432E
:1004B000F1E7A80701D525F00405C4F81CA0002722
:1004C000C4F818A02A2E09D0304606F0C9FA38B36D
:1004D00004EB8708303EC8F8186019E059F8041B8F
:1004E000204604EB87029161E1688847012F0646A8
:1004F00018D1E069002820DA25F020051DE0D8F8A1
:10050000180000EB800006EB40003038C8F81800F7
:100510002046E1688847064606F0A2FA0028EED198
:10052000012F0AD02E2E08D12046E16888477F1C73
:100530000646022F45F02005C4DBA069002803DA37
:10054000404245F00105A061E80701D025F0100503
:10055000A6B1A6F14100192802D8203645F400655D
:100560004A463146204625604D46FFF765FE60B19C
:10057000012807D0ED1D25F0070000E007E000F19D
:10058000080978E705F1040975E730467AE7206A3B
:10059000BDE8F09FA66F000070B5064600F0F2F8C7
:1005A0000468054630460A22002100F07EFB2C60DC
:1005B00070BD401ECAB210F8011F8A4202D0002945
:1005C000F9D10020704730B505460B462A4613F88E
:1005D000014B12F8010B08B1A042F8D01CB1002861
:1005E00002D06D1CF1E7284630BD10B5431C02E077
:1005F00010F8011B71B18107FAD14FF0013202C826
:100600008C1A8C4314EAC211F9D0C01A0A0603D01E
:10061000C01E10BDC01A10BD0A0401D0801E10BD3E
:100620000902FCD0401E10BD431A28BF9A4240F276
:10063000748310441144032A40F2268010F0030F03
:100640001EBF11F8013D521E00F8013D10F0030FCE
:100650007FF4F6AF11F0030300F0B783083AC0F05F
:100660000B8051F8043D083A51F804CD40F8043DA0
:1006700040F804CDFFF7F3BF121D5CBF51F8043DF5
:1006800040F8043DAFF30080D20724BF11F8013DCC
:1006900011F801CD48BF11F8012C24BF00F8013D2D
:1006A00000F801CD48BF00F8012C70474FF0000260
:1006B00000B5134694469646203922BFA0E80C5058
:1006C000A0E80C50B1F12001BFF4F7AF090728BF33
:1006D000A0E80C5048BF0CC05DF804EB890028BFAF
:1006E00040F8042B08BF704748BF20F8022B11F0D8
:1006F000804F18BF00F8012B704700000000000079
:1007000030B44FF0013C50F8042B51F8043BCCFAC4
:1007100052F4D51A20D1FCB950F8042B51F8043BFF
:10072000CCFA52F4D51A17D1B4B950F8042B51F8B9
:10073000043BCCFA52F4D51A0ED16CB950F8042B04
:1007400051F8043BCCFA52F4D51A05D1002CDAD07A
:1007500030BC4FF00000704729BAB1FA81F111F0B6
:100760001801D1F120008440F2D1CA40CB4012F0F0
:10077000FF0213F0FF0330BCD01A70477047704778
:1007800070470000004870471000002010B5FFF7C8
:10079000F9FF006810BD10B50446FFF7F3FF0460D1
:1007A00010BD2DE9F0470D4699469246044600F1EA
:1007B00024080168880604D5E06921F01001216051
:1007C00000E00120A84201DD471B00E00027A169ED
:1007D0007A1902EB0900081AA0612078C00602D439
:1007E0002046AFF30080002608E0D4E901211AF882
:1007F00006009047206A401C761C20624E45F4DBC0
:100800002078C0060AD52046AFF3008006E0D4E980
:10081000012130209047206A401C2062381EA7F139
:100820000107F4DC07E0D4E9012118F8050090473E
:10083000206A401C2062281EA5F10105F3DC204639
:10084000AFF300802078000602D50220BDE8F087D3
:100850000120FBE72DE9FF4F0C461E464FF0FF3706
:100860008BB0D2E90001DDF860800A908A46C1F3BE
:100870000A5505B93D46002108464FF00000BAF17F
:10088000000F00F4400005DA00EB80004FF4400157
:1008900001EA50004FEA9059B9F1010F00DDB94665
:1008A0000A9850EA4A000ED044F61050A5F2FF35DF
:1008B00045432F14B8F1000F1ED07542291E1EDDCE
:1008C000C9F100021CE0B8F1010F4FF0000001D0A7
:1008D000302103E0F24305E02154401CB042FBDB31
:1008E00030460022002121540B99C1F80880C1E94B
:1008F00000200FB0BDE8F08FBD1B6D1CDEE74A463F
:1009000000DA694206A800F071FB06AB93E8070025
:1009100003AB83E8070050460A9905F047F88DE8D5
:100920000700A0F500501F3800900398002D0ADD45
:1009300042F21F014A460844002303A90390684677
:1009400005F0B0FA09E0A0F500504A461F38002330
:1009500003A90390684605F0BAFA8DE80700000481
:10096000000C03D04FF0FF30410800E01046B8F112
:10097000000F03D00022009215461EE0751E05D41C
:1009800000F05EFA303262556D1EF9D5B346012291
:10099000084302D000227F1C04E02078302801D1D7
:1009A00000227F1E002A099784D01DE0112D07DA4E
:1009B00000F046FA303262556D1C50EA0102F5D162
:1009C000084302D00098C8B10EE00021681E05E07F
:1009D000235C625C63542254401E491C8142F7DB55
:1009E000AB46A81B401E0990002004F80B000B9892
:1009F000099AC0F80880C0E9002B7AE711264FF069
:100A0000000857E72DE9F04F88460446D21D22F032
:100A1000070191B0D1E90001CDE90A0105F08EFB93
:100A200002460B98C00F01D02D2007E020688107F7
:100A300001D52B2002E0202101EAC000032A099001
:100A400001D0072A05DB03464146204600F03EFA66
:100A50000BE12078800601D5E06900E00620B8F1BE
:100A6000650F814606D0B8F1660F18D0B8F1670F50
:100A700070D131E00020B9F1110F009001DB11239A
:100A800001E009F101030AAA01A90CA8FFF7E2FE9F
:100A9000DDE90C70002609F10105834647E00120DD
:100AA0004B4600904FF000470AAA01A90CA8FFF797
:100AB000D1FEDDE90DB00C995D46002610B909F1B3
:100AC00001000D18B9EB050003D4C0F1FF3609F1A0
:100AD0000105A5EB09002BE0B9F1010F01DA4FF098
:100AE00001090020B9F1110F0090484601DD1123E2
:100AF00000E003460AAA01A90CA8FFF7ABFEDDE956
:100B00000C704D4600268346207800070AD4AB457A
:100B100000DA5D4601A8012D04DD411911F8011C20
:100B2000302907D04F4502DA17F1040F04DA01200B
:100B300082460FE06D1EEEE7002F02DCED1B3E4407
:100B400003E0781CA84200DD7D1CB81B00F1010AFF
:100B50004FF000472078000703D4AA4501DB4FF08F
:100B6000FF3A0021B7F1004F0DF143088DF8431013
:100B700024D002202B23002F01DA7F422D230A21CB
:100B8000021EA0F1010000DC5FB197FBF1FC97FBB6
:100B9000F1F201FB1C7C17460CF1300C08F801CD7A
:100BA000EEE7A8F1010003702188090501D5452170
:100BB00000E06521A0F1010800F8011C09980FA9C7
:100BC000A1EB0807FF1D00B10120411901EBEA70FC
:100BD000A1693844081A401EA0612078C00602D4DA
:100BE0002046AFF30080099828B1D4E9012190474D
:100BF000206A401C20622078C00622D52046AFF330
:100C000000801EE0002E04DBB34502DD01A8805DFC
:100C100000E03020D4E901219047206A401C206286
:100C2000761CAAF101005FEA000A0AD100F004F97B
:100C3000C0680168405CD4E901219047206A401CEB
:100C40002062281EA5F10105DCDC07E0D4E90121C2
:100C500018F8010B9047206A401C2062381EA7F14B
:100C60000107F3DC2046AFF30080032011B041E61A
:100C700001694A1C02610878704700B58FB0CDE960
:100C800001310021059105497944CDE90310114650
:100C90006846FFF7E5FB0FB000BD0000E5FFFFFF72
:100CA0000A6802F8010B0A6070472DE9F047914687
:100CB0000F4680460446002614F8015B2DB100F073
:100CC000B3F80068405DC007F6D12B2D02D02D2D62
:100CD00018D0641E4A463946204600F037F927B13D
:100CE0003968A14201D1C7F800804FF002047105B4
:100CF0000BD54042002803DDFFF744FD0460A00748
:100D0000BDE8F08746F48066E4E70028F8DAFFF7EC
:100D100039FD04606FF00040F2E7032A40F23080B2
:100D200010F0030C00F0158011F8013BBCF1020F2C
:100D3000624498BF11F801CB00F8013B38BF11F8AD
:100D4000013BA2F1040298BF00F801CB38BF00F8C4
:100D5000013B11F0030300F0BB81083AC0F00880AA
:100D600051F8043B083A51F804CBA0E80810F5E725
:100D7000121D5CBF51F8043B40F8043BAFF3008008
:100D8000D20724BF11F8013B11F801CB48BF11F87D
:100D9000012B24BF00F8013B00F801CB48BF00F84D
:100DA000012B7047431A28BF9A4240F291811044A8
:100DB000114410F0030F1EBF11F8013D521E00F840
:100DC000013D10F0030F7FF4F6AF103AC0F00A8037
:100DD00010B531E9185020E91850103ABFF4F9AFB6
:100DE000BDE81040530724BF31E9081020E908107E
:100DF00044BF51F8043D40F8043D12F0030F08BF12
:100E00007047D20728BF31F8023D48BF11F8012CC6
:100E100028BF20F8023D48BF00F8012C70470000B1
:100E2000004870471000002010B500F005F8001DC4
:100E300010BD00BF815C00000048704730000020FA
:100E400030B5B0F10A0271F100034FEA900E4EEA9C
:100E5000817EB0EB0E0061EB91014FEA101E4EEA6D
:100E6000017E10EB0E0041EB11114FEA102E4EEAFD
:100E7000016E10EB0E0041EB11214FEA104E4EEACD
:100E8000014E10EB0E0041EB1141401841F1000101
:100E90004FEAD00040EA41704FEAD1014FEA8104A5
:100EA00044EA907410EB800544EB01046D1944EBA7
:100EB0000404521BA3414FF0000348BF0A3200D57F
:100EC00030BD401C41F1000130BD00002DE9F04172
:100ED0001F46044603260168072A01F4006004DB6C
:100EE00008B116A505E016A503E008B115A500E0B8
:100EF00015A521F010002060A069C01EA0610FB1EF
:100F0000401EA0612046AFF300804FB1D4E901211B
:100F100038469047206A401C2062C01C206206E0D0
:100F2000206AFAE7D4E9012115F8010B9047761EF3
:100F3000F8D22046AFF30080BDE8F0814E414E006C
:100F40006E616E00494E4600696E66002DE9F05FE5
:100F5000824615468B4600270AF10104B9460078FF
:100F6000302801D09DB113E014F8010B0127782837
:100F700003D0582801D045B10AE00DB1102D07D19A
:100F8000002714F8010B102502E0082500E00A25CF
:100F90000026B0460EE005FB080005FB06F1012720
:100FA0001FFA80F801EB1046B6F5803F00D3B94632
:100FB00014F8010B294600F0E2F80028EBDABBF147
:100FC000000F05D00FB1641E00E05446CBF800407E
:100FD000B9F1000F06D0FFF7D5FB02210160C81E52
:100FE000BDE8F09F48EA0640FAE700002DE9F04727
:100FF000814616468AB0354878440DC88DE80D0004
:1010000032487844801C03AC0DC884E80D0041F6DA
:101010009B300844372190FBF1F290FBF1F5A5F1EC
:10102000800501FB12041B3C02D56442012000E054
:101030000020DFF898A080460027FA44AAF1BE0AF3
:101040000EE0E0070AD03246684607EB470101236D
:101050000AEB810104F03BFF8DE8070064107F1C60
:10106000002CEED1194F7F44AE3F19E0E80715D0B0
:1010700007EB04100DF1180A90E80E008AE80E0044
:10108000C068F04201D1981908903246012306A9A0
:1010900003A804F01CFF03AB83E807006D10641C79
:1010A000002DE3D14FF0010332466946B8F1000F3D
:1010B00003A802D004F0F6FE01E004F008FFC9E93D
:1010C0000001C9F808200AB0BDE8F087D865000023
:1010D00010B5203AC0F00B80B1E81850A0E81850C5
:1010E000B1E81850A0E81850203ABFF4F5AF5FEA15
:1010F000027C24BFB1E81850A0E8185044BF18C9BA
:1011000018C0BDE810405FEA827C24BF51F8043B60
:1011100040F8043B08BF7047D20728BF31F8023BB4
:1011200048BF11F8012B28BF20F8023B48BF00F848
:10113000012B70477546FFF773FEAE460500694602
:10114000534620F00700854618B020B5FFF7AEF8EB
:10115000BDE820404FF000064FF000074FF00008B8
:101160004FF0000BAC46ACE8C009ACE8C009ACE8F5
:10117000C009ACE8C00921F007018D4670473A2844
:1011800000D2303820F02002412A01D3A2F13700EA
:10119000884201D34FF0FF30704710B50446AFF3DB
:1011A00000802046BDE81040FFF76BB801491820C9
:1011B000ABBEFEE72600020070470000FEE700001D
:1011C00010B5846B204600F005FD0120207110BD94
:1011D00010B5846B204600F0D1FC0120207110BDB9
:1011E00010B5846B206940F004002061204600F0B7
:1011F000F5FC0120207110BD10B5846B206940F012
:1012000004002061204600F0BDFC0120207110BDCB
:10121000806B00F0E1BC0000806B00F0B1BC00000E
:101220002DE9F04FB9B009880446013989B2022985
:1012300006D847F2EC50C0F6000050F8216001E0FB
:101240004FF4806640F2A800C2F2000000210025A1
:1012500000F0BAFD012C00F0AB81022C40F09F821F
:1012600046F25710C6F27650219046F65310C6F259
:101270006E500024209070088DF8884005F09BFE89
:101280009FEDC50B9FEDC61BCDE91A1050EC101B4E
:101290009FEDC50B1691199050EC111B15911890EC
:1012A0006FF0270951EC100BCDE91D1020461F945B
:1012B00005F081FE199E169A3346904605F0A6FE6B
:1012C000159CDDF860B022465B4605F0BDFC41ECA4
:1012D000100B04F04DFFDDE91D7251EC100B3B4685
:1012E00005F00AFC1B9DDDF868A02A46534605F070
:1012F0008DFE05F033FE4946CDF8509040F270590E
:10130000C2F20009494488621F981791023005F023
:1013100052FE4246334605F079FE22465B4605F012
:1013200093FC41EC100B04F023FFDDF8789051ECB6
:10133000100B4A463B4605F0DFFB2A46534605F0B4
:1013400065FE05F00BFE1F9940F27052C2F20002DA
:1013500002EB410148601F981C91043005F02BFE00
:1013600042463346374605F051FE22465B4605F0BD
:101370006BFC41EC100B04F0FBFE1D9D51EC100BBF
:101380004A462B46CB4605F0B7FBDDF86C9053463A
:101390004A4605F03BFE05F0E1FDDDF870A0CAF815
:1013A00008001F98063005F006FE42463B464646BA
:1013B000B84605F02BFE189F22463B4605F044FC3C
:1013C00041EC100B04F0D4FE51EC100B5A462B46A6
:1013D00005F092FB1A9B4A461D4605F017FE05F0E4
:1013E000BDFDCAF80C001F98083005F0E4FD324638
:1013F0004346B246C34605F009FE22463B4605F089
:1014000023FC41EC100B04F0B3FE1E9F1D9E51EC1B
:10141000100B3A46334605F06FFB4A462B46C8464A
:10142000A94605F0F3FD05F099FD179DA8631F98E7
:101430000A3005F0C0FD52465B4605F0E7FDDDF8D9
:1014400060B022465B4605F0FFFB41EC100B04F058
:101450008FFE51EC100B3A463346374605F04CFBF5
:1014600042464B46464605F0D1FD05F077FDE86360
:101470001F980C3005F09FFDDDF86480524643460E
:10148000554605F0C3FD22465B4605F0DDFB41EC09
:10149000100B04F06DFEDDF8789051EC100B4A460D
:1014A0003B4605F029FB32461A9E334605F0AEFD59
:1014B00005F054FD1C9FB8611F980E3005F07BFDB0
:1014C0005246434605F0A2FD22465B46A2465C46D4
:1014D00005F0BAFB41EC100B04F04AFEDDF874B0E5
:1014E00051EC100B4A465B4605F006FB1B9D33464C
:1014F0002A4605F08BFD05F031FDF8611F9810308C
:1015000005F059FD169F43463A4605F07FFD5246C9
:10151000234605F099FB41EC100B04F029FE51EC39
:10152000100B4A465B4605F0E7FA2A463346AA46C0
:1015300005F06CFD05F012FD1C9908621F98123031
:1015400005F039FD199B3A4605F060FD159A2346D2
:101550001F9C05F079FB41EC100B04F009FE51ECE7
:10156000100B4A465B4605F0C7FA2A46334605F09B
:101570004DFD05F0F3FCDDF8509017991434C82C9C
:1015800009F12809C8647FF491AE40F27052C2F2AA
:10159000000208E100BF00BF4AD8124DFB210940FC
:1015A0000000000000005940000000000000F03F73
:1015B00046F25710C6F27650229046F66F70C6F685
:1015C0007400219046F25310C7F2774006EB860272
:1015D00020909000119070001090132070430F9095
:1015E00006EBC6000E9040000D9006EB06100C9026
:1015F00030010B90C6EB06100A90C6EBC6000990AE
:10160000400008900D2006EB4601704307908800CB
:1016100006900B207043059050000490F00003905A
:101620001391480048F21F5112920290B000C5F287
:10163000EB1100228DF88C50019000BFB018A0FB78
:10164000010B109837461044A0FB010313981F9319
:101650001044A0FB010301981E931044A0FB01035A
:1016600012981D931044A0FB010302981C93104490
:10167000A0FB010309981B931044A0FB01030398EE
:101680001A931044A0FB01030E9819931044A0FB79
:101690000103049818931044A0FB010305981793C5
:1016A0001044A0FB0103069816931044A0FB01030D
:1016B000079815931044A0FB010308981493104455
:1016C000A0FB010A0A981044A0FB01490B9884185A
:1016D0000C98A4FB014884180D98A4FB01468418BB
:1016E0000F98A4FB014E8418A4FB0143A2FB014CFC
:1016F000CBF34B1440F2E03BC2F2000B0BEB0500C6
:1017000044601F9CC3F34B13C4F34B1484601E9CB2
:10171000C364C4F34B14C4601D9CC4F34B14046134
:101720001C9CC4F34B1444611B9CC4F34B14846194
:101730001A9CC4F34B14C461199CC4F34B14046287
:10174000189CC4F34B144462179CC4F34B1484627A
:10175000169CC4F34B14C462159CC4F34B1404636D
:10176000149CC4F34B144463CAF34B148463C9F34D
:101770004B14C463C8F34B140464C6F34B143E46C5
:10178000CEF34B1744648764CCF34B104BF8050041
:1017900011985035B5F5C87F02447FF44FAF40F241
:1017A000E032C2F2000240F2A8000027C2F20000BC
:1017B00000216423009700F081FA40F27000C2F229
:1017C0000000826940F2BC0320A95327C2F2000343
:1017D0000EE000BFD2F880505755826911F8017FA2
:1017E000C2F880601E68F56845F08005F560BFB1FD
:1017F000D2F88060013606F07F0600BFD2F8845030
:10180000AE42E7D1D2F88450AE42E3D1D2F8845050
:10181000AE42DFD1D2F88450AE42EFD0DAE700BF5B
:1018200039B0BDE8F08F000040F24C10C2F2000069
:1018300000F04CBB70470000EFF3108072B600BFA1
:10184000FEE7000070B581B00022009290F83C20C5
:10185000012A03D10221084601B070BD0E680122A1
:101860000A2E80F83C2009D3B2B25200D0F800E032
:1018700012FA86F21E3A0EF10C0305E0D0F800E0F1
:1018800006EB46020EF110034FF0070C1D680CFA30
:1018900002F4A5431D608D681C6805FA02F222431C
:1018A0001A60496806290FD801EB81014A1F714669
:1018B0001F2351F8345F934025EA03030B60B3B252
:1018C00003FA02F214E000BF01EB81030C29B2B26B
:1018D00004D8714651F8304F233B03E0714651F86C
:1018E0002C4F413B1F259D4024EA05059A400D6081
:1018F0000B6842F2043CC4F2010C1A43ACF541738C
:101900009E450A6006D0002180F83C10084601B0D0
:1019100070BD00BF1221112EC1F2000118BF8E420E
:101920003AD1DCF800208E4222F48002CCF800206C
:10193000DCF8002042F40002CCF80020E3D140F2B1
:101940000801C2F2000109684DF68362C4F21B323D
:10195000A1FB0212910C01EB810149000091009959
:101960000029D0D000990139009100990029CAD0EE
:1019700000990139009100990029C4D000990139DA
:10198000009100990029BED0009901390091009979
:101990000029E7D1B7E700BF122EB4D1DCF8001060
:1019A00021F40001CCF80010DCF8001041F48001B3
:1019B000CCF80010A7E70000002804BF0120704702
:1019C00010B50446006C00283ED0206CC00645D4FB
:1019D000206C41F202118843023042F2043120644B
:1019E000C4F20101086820F4403008600A6894E8F5
:1019F00009101A43D4F810E00A604168012321F469
:101A0000807141604168C0F6007341EA0E21416077
:101A1000416821F040714160416841EA0C01416038
:101A2000816821F400618160E1688268114381600E
:101A3000A16A8268994222F070628260826813D142
:101A400022F0405119E000BF204600F065F8002068
:101A5000606484F83C00206CC006B9D501200021E8
:101A600084F83C1010BD00BF11438160816821F0F3
:101A700040518160E16A826811438160816821F090
:101A8000020181608168227E94F8203041EA42019F
:101A90008160416883B141F40061416041684EF268
:101AA000000221F460414160616ACFF6FF72436831
:101AB00002EB4131194301E021F400614160C16A48
:101AC00040F2000C21F47001C162E2696169CFF655
:101AD000F07CC36A0CEB02521A43C262826822F4A1
:101AE0000072826094F83020836843EA4222826068
:101AF000826822F480628260826842EA8121816089
:101B000000206064216C012262F301012164002144
:101B100084F83C1010BD000080B586B042F2000190
:101B20000068C4F20101002288420592049201D0AB
:101B300006B080BD43F630000092C4F20200436953
:101B400043F480734361436903F480730093009B03
:101B50000092036843F001030360006800F0010095
:101B6000009000980320CDE9010001F5604001A933
:101B7000039200F08DFB06B080BD000070470000AE
:101B8000704700007047000010B54379012B4FF0FB
:101B900002031DD00371036802F0100ED3F800C0D9
:101BA000D1E9004140F6FE7202FA0EF221432CEA1E
:101BB000020201FA0EF111431960C0211A6801FAFC
:101BC0000EF122EA01011960012100230171437124
:101BD000184610BD704700007047000070470000B5
:101BE000002804BF0120704710B50446007920B9D1
:101BF00000206071204600F007F8022020710020CC
:101C000001212061217110BDF0B587B0044647F273
:101C100000402168C4F20000002681420696059625
:101C200002D007B0F0BD00BF43F630010196C4F208
:101C300002010A6900F5C63042F000520A610A69E1
:101C400002F000520192019A01960A6842F00102E4
:101C50000A60096801F001010191019910210291C6
:101C60000321CDE9031602A900F012FB40F24C1546
:101C700046F28800C2F20005C4F202004FF0606133
:101C800040224FF4806385E8470005F110004FF4CF
:101C9000805C4FF4804E4FF4807780E808502846EF
:101CA000C5E907766E6200F0F1F9002818BFFFF76A
:101CB000C3FDA560AC6307B0F0BD00002DE9F041A5
:101CC0000446407901284FF0020008BFBDE8F081CA
:101CD000884606990126B8F1000F667120711FD061
:101CE000E06841F2D11541F21927C0F60005C0F6AF
:101CF0000007C0E90F5741F2F9172668C0F6000740
:101D0000C7643768082947F08057376028D004290E
:101D10002AD000290CBF06F11405002526E000BFDB
:101D2000A06841F2C11641F2112CC0F60006C0F6BF
:101D3000000CC0E90F6C41F2E1162568C0F6000600
:101D4000C6642E68082946F480562E6016D00429F1
:101D500018D000290CBF05F1080C4FF0000C13E05F
:101D600006F11C0502E000BF06F11805316841F0DC
:101D70000051316011462A460CE000BF05F1100CFD
:101D800002E000BF05F10C0C296841F40051296004
:101D90001146624600F02CFA0021617140B104F155
:101DA000100104220B681A430A60BDE8F08100BFED
:101DB00008F010020123216803FA02F20B681A43AB
:101DC0000A60BDE8F081000070B50446226801F0A9
:101DD00010004FF4805CD2F800E00CFA00F32EEA19
:101DE000030313600125136805FA00F023EA0000DD
:101DF00010600C20002908BF082020586FF0005602
:101E000008BF6FF4005600F007F820680168314001
:101E100001600020257170BD70B5866D044600F02C
:101E200019FB94F83510022928D105462068216C49
:101E3000026822F016020260426922F080024261CA
:101E400009B9A16C19B1016821F0080101600168AC
:101E500021F00101016000BF20680068C00715D0B3
:101E600000F0F8FA401B0628F6D320206065032016
:101E700084F83500002184F8341070BD802060653E
:101E80000120002184F8341070BD00BFE06D3F21B7
:101E900001FA00F0B060012084F835000020002134
:101EA00084F8341070BD000090F83510022909D173
:101EB000052180F835100068016821F001010160FA
:101EC000002070478021416501207047F0B581B046
:101ED00004460020009040F20800C2F200000268B0
:101EE000D4E9166048F2B51337680821C1F64E33BD
:101EF00081403942A2FB03250CD0226813685B079E
:101F000008D5136823F004031360B160616D41F0DC
:101F10000101616501218140394208D0226852697E
:101F2000120604D5B160616D41F0020161650421C2
:101F30008140394208D022681268920704D5B16006
:101F4000616D41F00401616510218140394217D073
:101F500020680268120713D5B16002680168520355
:101F600008D4C90508D4016821F008010160216C7A
:101F700021B905E008033FD4216C09B12046884708
:101F8000E16D202000FA01F23A4241D02068036856
:101F9000DB063DD5B26094F835300268052B1BD1C5
:101FA00022F016020260426922F080024261226C35
:101FB0000AB9A26C1AB1026822F0080202603F203E
:101FC0008840B060012084F83500216D0020002990
:101FD00084F8340052D157E00168520310D4C90587
:101FE00012D4016821F010010160012084F835004D
:101FF000002084F8340007E0A16C0029BED1BFE7BF
:10200000080301D4616C00E0E16B09B12046884708
:10201000606DC8B3606DC0072ED0052084F8350010
:102020002068A90A026822F001020260009A0132C7
:102030008A4200921AD80268D20717D0009A013259
:102040008A42009212D80268D2070FD0009A013259
:102050008A4200920AD80268D20707D0009A013259
:102060008A42009202D80268D207DFD1012084F8A8
:102070003500002084F83400E16C29B1204601B01D
:10208000BDE8F040084700BF01B0F0BD2DE9F041C8
:10209000044600F0DFF9ECB10546022084F8350073
:1020A0000020216884F83400086820F001000860EE
:1020B00021680868C00711D000F0CCF9401B052842
:1020C000F6D9032520230320636584F83550BDE845
:1020D000F08100BF0120BDE8F08100BF086848F230
:1020E0003F02CFF21002D4E9013500EA020C04F1FC
:1020F0000C0898E8C10143EA0C032B431843D4E9C8
:10210000072E304338431043626A40EA0E00042A27
:1021100040EA08031CD1206BD4E90A2E40EA0E00E5
:10212000184308604869BEF1000F20F0030040EA40
:10213000020040F0040C11D0B8F5005F36D0B8F1C1
:10214000000F45D1022A46D0012A3BD032B942E0E5
:102150000B60486920F0070040EA020C01F0F8002B
:102160004AF6AB221038CAF6AA22A0FB02231A09AB
:1021700047F21063C0F600039A5C40F2FF335F2819
:102180004FF03F00C1F814C021EA030100FA02F049
:1021900088BF0431C4E9161288600023012500209D
:1021A000636584F83550BDE8F08100BF032AD5D8B7
:1021B000012540230120DFE802F0030E030500BFE4
:1021C00082E700BFAEF1C070B0FA80F0400904E0D1
:1021D000032A04D3C2D1CEF300600028BED001256B
:1021E00040230120636584F83550BDE8F08100008C
:1021F00070B590F834C0BCF1010F46D04FF0010C1F
:1022000080F834C0D0F858E090F835C0BCF1010F28
:1022100038D14FF0020C80F835C04FF0000CC0F8F8
:1022200054C0D0F800C08468056CC06DDCF8006054
:10223000402C26F48026CCF80060CCF804300B4605
:1022400004BF13460A463F2101FA00F0CCF80830DB
:10225000CCF80C20CEF80800DCF8000040F01600A6
:10226000CCF800002DB1DCF8000040F00800CCF8FC
:102270000000DCF8000040F00100CCF80000002075
:1022800070BD00BF002180F83410022070BD000036
:102290002DE9F04F82B000F13E4241F6000502F117
:1022A000FF77C4F20205072243F6004E4FEAB72635
:1022B000A84208BF0622C4F2010E062E38BF4FEA1C
:1022C000B7220125002600274FF00008009208E001
:1022D00008F101080437B8F1100F06F1020600F00A
:1022E000A7800C6805FA08F914EA090FF0D0D1F8B4
:1022F00004B003220BF0030CACF10104B240012C3A
:102300006FEA020A10D88268CC6802EA0A02B44076
:10231000224382604268CBF3001422EA090204FAE5
:1023200008F42243426005E0BCF1030F02D14FF0F4
:10233000030C20E0C2688C6802EA0A02B44022431F
:10234000BCF1020FC26016D16FF0030202EA58021C
:102350000244D2F820C007F01C050F230C69AB40E3
:102360002CEA030304FA05F52B431362D1F804B0F9
:1023700001250BF0030C02680CFA06F302EA0A02CC
:102380001A431BF4403F0260A2D0002243F64403EC
:102390000192C4F202031A684FF6084C42F48042DC
:1023A0001A601A68CFF6FF7C02F480420192019A0B
:1023B00028F00302724452F80C3007F00C050F2489
:1023C000AC40A343009C04FA05F52B4342F80C30C3
:1023D000DEF808204B6842EA090543F60C4CDC02A3
:1023E00058BF22EA0905CEF80850C4F2010CDCF807
:1023F00000209C0242EA090558BF22EA0905CCF8F0
:102400000050DEF804209C0342EA090558BF22EA86
:102410000905CEF80450DEF80020DB0342EA090586
:1024200058BF22EA0905CEF80050012550E700BF49
:1024300002B0BDE8F08F0000426902EA0103914357
:1024400041EA034181617047002A08BF09048161A4
:102450007047000040F61000C2F2000000687047AC
:1024600040F2000040F61001C2F20000C2F200018A
:1024700000780A68104408607047000080B543F691
:102480000040C4F20200016841F40071016001687B
:1024900041F480610160016841F4807101600320B2
:1024A00000F08AF8002000F005F800F027F800207E
:1024B00080BD000070B540F20006C2F2000640F296
:1024C00008013278C2F200014FF47A730968B3FB55
:1024D000F2F20446B1FBF2F1084600F0BBFB0F2C10
:1024E0004FF0010508D838B94FF0FF3021460022DF
:1024F000002500F035F87460284670BD82B00020D9
:1025000043F640010190C4F202014A6842F480425D
:102510004A604A6802F480420192019A0090086879
:1025200040F080500860086800F0805000900098EB
:10253000072002B000F040B8002848BF7047C1B281
:1025400000F01F00012202FA00F04EF20012CEF25B
:10255000000242EAD10121F0030108607047000047
:1025600010B54EF60C5CCEF2000CDCF80030C3F374
:10257000022E8EF00704042C28BF0424BEF10303AE
:102580004FF0FF3E0EFA04F438BF0023A1439940F8
:102590000EFA03F39A43114300F00F0200F1604377
:1025A0000901043A03F564436244002848BF02F17C
:1025B0000C03197010BD00004EF60C51CEF2000154
:1025C0000A684FF6FF031A4060F30A2242F0806067
:1025D00040F0FD700860704770B582B00020019037
:1025E00043F64000C4F202000168402641F08051E9
:1025F00001600068C4F20E2600F08050019001983E
:1026000047F204050120C4F200053060FFF722FF05
:10261000044600BF2868C00306D4FFF71BFF001B59
:10262000B0F57A7FF6D90EE001207060FFF712FF57
:10263000044600BF2868800308D4FFF70BFF001B87
:10264000B0F57A7FF6D9032002B070BD002002B049
:1026500070BD00002DE9F041002800F08B8043F6AA
:102660000808C4F202080446D8F8F8030D4600F042
:102670000F00884207D288F8F853D8F8F80300F022
:102680000F00A84276D12068810717D5410705D5EC
:10269000D8F8001041F4E051C8F80010010705D542
:1026A000D8F8001041F46041C8F80010D8F80010C4
:1026B000A26821F0F0011143C8F80010C0073FD113
:1026C000D8F8F80300F00F00A84207D988F8F853AB
:1026D000D8F8F80300F00F00A8424BD1206841075A
:1026E00007D5D8F80010E26821F4E0511143C8F88A
:1026F0000010000708D5D8F80000216920F46040D8
:1027000040EAC100C8F8000000F07CF8D8F80010DA
:1027100047F2F852C1F30311C0F60002515C40F2D7
:10272000080220FA01F140F20400C2F20000006841
:10273000C2F200021160FFF7BDFE0020BDE8F0818B
:102740006068811E022907D258F8081C89015CBF05
:102750000120BDE8F08111E0012807D158F8081CDC
:1027600089035CBF0120BDE8F08107E058F8081C30
:10277000890703D40120BDE8F08100BFD8F800101C
:1027800021F003010843C8F80000FFF763FE064686
:1027900041F28837D8F80000616800F00C00B0EB17
:1027A000810F8DD0FFF756FE801BB842F2D903206F
:1027B000BDE8F08140F2080043F60801C2F20000D3
:1027C000C4F202010068096847F20862C1F382217D
:1027D000C0F60002515CC8407047000040F208009B
:1027E00043F60801C2F20000C4F202010068096861
:1027F00047F20862C1F34231C0F60002515CC840A2
:102800007047000010B543F60404C4F20204606887
:10281000C0F3810142F20040C0F2F400DFE801F0B1
:102820004402081841F20020C0F27A0010BD00BF37
:10283000216801F03F02216823684902C3F388112F
:1028400016D4A1FB00010023FDF742FD17E000BFF5
:10285000216801F03F02216823684902C3F388110F
:1028600016D4A1FB00010023FDF732FD17E000BFE5
:1028700041F20020C0F27A004843B0FBF2F0216838
:102880000222C1F3014102EB4101B0FBF1F010BDA6
:1028900041F20020C0F27A004843B0FBF2F0216818
:1028A000C1F30271B0FBF1F010BD00002DE9F04161
:1028B00082B0002800F096800446007843F60006B7
:1028C000C007C4F202062BD0B06800F00C00042848
:1028D00020D0B06800F00C00082802D170684002D7
:1028E00018D4B06800F00C000C2802D170684002C7
:1028F00010D46068B0F5803F07D0B0F5A02F40F04D
:102900003B81306840F480203060306840F4803093
:1029100030603BE13068800302D56068002861D0F8
:102920002078800722D5B06810F00C0F11D0B06865
:1029300000F00C00082802D17068400209D5B06888
:1029400000F00C000C2840F09F807068400200F1FD
:102950009B803068800702D5E068012842D130684A
:10296000216920F0F80040EAC100306020780007BB
:102970003CD42078400751D4A56985B3B06800F0F5
:102980000C00082840F0A880012D2BD07068E16968
:1029900000F480028A4225D1216A00F03F028A4277
:1029A00020D147F6C071626A0140B1EB821F19D194
:1029B000A16A4FF6FF73C903994300F44032A1F5B1
:1029C00080318A420ED1E16A00F07062B2EB016F91
:1029D00008D1216B00F0E040B0EB017F02D1002074
:1029E00034E100BF012002B0BDE8F0816069002839
:1029F00040F20000C4F247205ED00121C0F8801EE2
:102A0000FFF728FD054600BF706F8007B1D4FFF7C0
:102A100021FD401B0228F7D9C5E000BF306C10F043
:102A200080580AD100200190306C40F08050306412
:102A3000306C00F080500190019847F20007C4F21A
:102A400000073868C00511D4386840F480703860D9
:102A5000FFF700FD054600BF3868C00506D4FFF744
:102A6000F9FC401B0228F7D99DE000BFA0680128AF
:102A700005D0052852D1306F40F004003067306F28
:102A800040F00100306753E0E068002860D000208B
:102A9000C4F2472001210160FFF7DCFC054600BFBE
:102AA000306880073FF55BAFFFF7D4FC401B02287E
:102AB0004FF00300F4D9C9E00021C0F8801EFFF7F1
:102AC000C9FC0546706F80077FF553AFFFF7C2FC66
:102AD000401B0228F6D966E00027C4F247270020F1
:102AE0003866FFF7B7FC022D05460BD13068800130
:102AF0005ED5FFF7AFFC401B02284FF00300F5D96D
:102B0000A4E000BF306880017FF569AFFFF7A2FC49
:102B1000401B02284FF00300F4D997E0316F0028E2
:102B200021F001013167316F21F00401316763D079
:102B3000FFF790FC054641F2883700BF306F8007F1
:102B40006CD4FFF787FC401BB842F7D92BE000BFDD
:102B50000020C4F2472000210160FFF77BFC0546FE
:102B6000306880077FF502AFFFF774FC401B022836
:102B70004FF00300F4D969E03168002821F4803176
:102B80003160316821F48021316051D0FFF762FC5F
:102B9000054600BF306880033FF5C2AEFFF75AFC20
:102BA000401B6428F6D9032002B0BDE8F08100BFC5
:102BB00004F11C052FCD246B084340EA8210D90391
:102BC0004FF6FF729143A1F5803140EA056008435A
:102BD00040EA0470706001203866FFF73BFC044651
:102BE000306880013FF5FBAEFFF734FC001B022884
:102BF0004FF00300F4D929E0FFF72CFC054641F221
:102C0000883700BF306F800708D5FFF723FC401BD3
:102C1000B8424FF00300F5D918E000BFB8F1000F3B
:102C20007FF4AAAE306C20F080503064A4E600BF80
:102C3000FFF710FC0546306880037FF571AEFFF7A3
:102C400009FC401B64284FF00300F4D902B0BDE832
:102C5000F0810000411E0020B0EB116F1CBF01206D
:102C600070474EF21002CEF2000251604EF6235130
:102C7000CEF20001F0230B700721906011607047C5
:102C80007047000070470000B0B590F83C20012A62
:102C900004BF0220B0BD01F108053CCDD1E900CE52
:102CA00023F47C5322F470521A432EF4F0431A4357
:102CB0002CF4E0431A4324F4C0431A432A43C9695D
:102CC00022F48042036811435964002180F83C10CB
:102CD0000846B0BD10B590F83C20012A4FF0020222
:102CE00051D080F83D200268D2F804E0D2F808C044
:102CF0000C682EF07003234341F2FF74C4F2000409
:102D0000A24253600EDC40F2FF73C4F200039A4209
:102D100016DCB2F1804F2BD040F20043C4F2000326
:102D200024E000BF40F2FF33C4F201039A4213DCF7
:102D300041F60003C4F200039A4219D0002313E0C5
:102D400040F60003C4F200039A4211D040F600435B
:102D5000C4F200030AE000BF44F20003C4F201031E
:102D60009A4205D040F20043C4F201039A4204D1D2
:102D700049682CF08003194391600121002280F8FA
:102D80003D1080F83C20104610BD0000002804BF14
:102D90000120704710B5044690F83D0028B9002086
:102DA00084F83C00204600F01FF8022084F83D0023
:102DB0002068211D01F01AF9012084F8460084F8EA
:102DC0003E0084F83F0084F8400084F8410084F815
:102DD000420084F8430084F8440084F8450084F8F5
:102DE0003D00002010BD000010B582B0006844F224
:102DF0000041C4F20101884214D0B0F1804F2DD1BE
:102E00000020019043F64000C4F2020001681C2437
:102E100041F001010160006800F00100019001989B
:102E200010E000BF0020009043F64000C4F2020012
:102E30004168192441F400314160406800F40030D9
:102E400000900098204600210022FFF789FB2046D1
:102E500002B0BDE81040FFF76FBB00BF02B010BD6D
:102E600090F83D1001291CBF01207047022180F815
:102E70003D10006841F2FF71C4F2000188420DDC90
:102E800040F2FF71C4F20001884215DCB0F1804FBE
:102E90002AD040F20041C4F2000123E040F2FF31A9
:102EA000C4F20101884213DC41F60001C4F20001C2
:102EB000884219D0002113E040F60001C4F200015D
:102EC000884211D040F60041C4F200010AE000BF80
:102ED00044F20001C4F20101884205D040F20041F1
:102EE000C4F20101884206D1816801F00701062978
:102EF00004BF00207047016841F00101016000201B
:102F00007047000090F83D1001291CBF0120704758
:102F1000022180F83D10006841F2FF72C168C4F2DE
:102F20000002904241F00101C1600DDC40F2FF71EE
:102F3000C4F20001884215DCB0F1804F2AD040F283
:102F40000041C4F2000123E040F2FF31C4F201016C
:102F5000884213DC41F60001C4F20001884219D016
:102F6000002113E040F60001C4F20001884211D0B4
:102F700040F60041C4F200010AE000BF44F2000143
:102F8000C4F20101884205D040F20041C4F20101BF
:102F9000884206D1816801F00701062904BF00209C
:102FA0007047016841F00101016000207047000096
:102FB00080B590F83C20012A4FF0020200F0C28058
:102FC00080F83D20D0F800C04FF67772DCF808306A
:102FD00023EA0202CCF808200B684F2B28DC1F2BB9
:102FE00044DD202B45D0302B43D0402B40F0AC802B
:102FF000D1F804E0C968DCF82030DCF8202022F0A9
:103000000102CCF82020DCF8182022F0F00242EA7D
:10301000011123F00A0242EA0E02CCF81810CCF893
:103020002020DCF8081041F0470121F0300180E059
:103030006F2B27DDB3F5005F48D0B3F5805F7AD002
:10304000702B40F08180D1E901E3C968DCF80820E9
:1030500043EA0E0322F47F4243EA01211143CCF8F4
:103060000810DCF8081041F0770162E00BB1102B7A
:103070006AD1DCF8081021F07001194341F0070112
:1030800057E000BF502B35D0602B5DD1D1F804E064
:10309000C968DCF8203023F01003CCF82030DCF8CD
:1030A0001830DCF8202023F4704322F0A00243EA19
:1030B000013142EA0E12CCF81810CCF82020DCF8CE
:1030C000081041F0670121F0100132E0D1E901E37D
:1030D000C968DCF8082043EA0E0322F47F4243EA81
:1030E00001211143CCF80810DCF8081041F48041AC
:1030F0001FE000BFD1F804E0C968DCF82030DCF83C
:10310000202022F00102CCF82020DCF8182022F048
:10311000F00242EA011123F00A0242EA0E02CCF860
:103120001810CCF82020DCF8081041F0570121F0ED
:103130002001CCF808100022012180F83D10002168
:1031400080F83C10104680BD0122F5E77047000072
:1031500010B5016804460869800744BFC8685FEA83
:10316000807039D40869400744BFC8685FEA40707E
:103170003ED40869000744BFC8685FEA007045D4C0
:103180000869C00644BFC8685FEAC0604AD40869DD
:10319000C0071CBFC8685FEAC07051D1086900064B
:1031A00044BFC8685FEA006052D40869400644BF63
:1031B000C8685FEA406053D40869800646BFC868A3
:1031C0005FEA806010BD6FF0200220460A61BDE812
:1031D0001040FFF757BD00BF6FF0020008610120EB
:1031E00020778869800743D02046FFF7AFFF45E08E
:1031F0006FF00400086102202077886910F4407F96
:1032000040D02046FFF7A2FF42E000BF6FF0080069
:10321000086104202077C86980073DD02046FFF769
:1032200095FF3FE06FF01000086108202077C86923
:1032300010F4407F3AD02046FFF788FF3CE000BF03
:103240006FF001000861204600F056FA2168A5E7FA
:103250006FF0800008612046FFF712FD2168A4E7A7
:103260006FF040000861204600F058FA2168A3E79B
:10327000204600F04FF8204600F0B2F92168002007
:1032800020776FE7204600F045F8204600F0A8F9C7
:103290002168002020776CE7204600F03BF82046AC
:1032A00000F09EF921680020207769E7204600F0B1
:1032B00031F8204600F094F921680020207766E775
:1032C00080B586B001680020C4F20100814201D0BF
:1032D00006B080BD002143F630020191C4F2020223
:1032E000136800F5803043F001031360126802F0A8
:1032F00001020192019A4FF4E06201920222CDE9AB
:10330000022104910121059101A9FEF7C1FF06B038
:1033100080BD0000704700002DE9F04390F83C307C
:10332000012B04BF0220BDE8F0834FEAB202032A5A
:1033300000F2FC80DFE802F0023E7EBE036840F24D
:1033400000471A6A43F4806522F001021A621C6A7F
:103350001A46D3F804E052F818CF8E6824F002041D
:10336000C4F20107BD4244EA060405D1CE6824F048
:103370000C0426F0040634430E68BD4207D1D1E99F
:1033800005572EF4407E45EA0E0545EA070E2CF05F
:1033900073073743C3F804E09F614F6809695F63AF
:1033A0001C629F6947F008079F619F6927F0040727
:1033B0009F61B1E0036840F200481A6A43F48065F7
:1033C00022F010021A621C6A1A46D3F804C052F89E
:1033D00018EF8F6824F02004C4F20108454544EA40
:1033E000071407D1CF686FF0400624F0C00406EA46
:1033F00007163443D1F80090454506D1D1E905566A
:103400002CF440672E4347EA860C2EF4E64747EA41
:103410000927C3F804C09F614F6809699F631C6254
:103420009F6947F400679F619F6927F480679F61E8
:1034300071E000BF036840F200481A6A43F48065F7
:1034400022F480721A621C6A1A46D3F804C052F839
:103450001CEF8F6824F40074C4F20108454544EA67
:10346000072408D1CF6840F2FF463F0224F44064AD
:1034700027EA06063443D1F80090454506D1D1E944
:1034800005562CF440572E4347EA061C2EF07307CE
:1034900047EA0907C3F804C0DF614F680969DF63C1
:1034A0001C62DF6947F00807DF61DF6927F0040766
:1034B000DF6131E0036840F200451A6A43F4806737
:1034C00022F480521A621A46D3F820C05C6852F87F
:1034D0001CEFD1F800808E68C4F20105AF4204D120
:1034E0004D6924F4804444EA85142CF4005747EADB
:1034F00006372EF4E64646EA08265C60DE614E6832
:1035000009691E641F62DF6947F40067DF61DF69D4
:1035100027F48067DF6109021368194311600021F5
:10352000002280F83C200846BDE8F08301210022FB
:1035300080F83C200846BDE8F0830000002804BF66
:103540000120704710B5044690F83D0028B90020CE
:1035500084F83C00204600F01FF8022084F83D006B
:103560002068211D00F042FD012084F8460084F807
:103570003E0084F83F0084F8400084F8410084F85D
:10358000420084F8430084F8440084F8450084F83D
:103590003D00002010BD000080B582B00068002111
:1035A000C4F2010188421CBF02B080BD002001901E
:1035B00043F64400C4F202000168002241F0010118
:1035C00001600068002100F00100019001981920BD
:1035D000FEF7C6FF192002B0BDE88040FEF7ACBF81
:1035E0007047000041B1082910D0042914BF00F130
:1035F000410200F13F020BE090F83E20012A1CBF7F
:1036000001207047022280F83E2013E000F14002C2
:103610001278012A1CBF012070470222082907D016
:10362000042914BF80F8412080F83F2002E000BF49
:1036300080F84020006801F01F010122036A02FAAD
:1036400001F123EA01020262026A114341F2FF72B0
:10365000C4F20002904201620CDC40F2FF71C4F23D
:103660000001884214DCB0F1804F37D040F20041B5
:1036700016E000BF40F2FF31C4F20101884215DCC0
:1036800041F60001C4F20001884227D0002115E074
:1036900040F60001C4F2000188421FD040F600410C
:1036A000C4F20001884219D01FE000BF44F20001BB
:1036B000C4F20101884211D040F20041C4F201017C
:1036C000884212D1416C40F2004340F48062C4F25F
:1036D000010341F400419A42416406D1816801F03E
:1036E0000701062904BF00207047016841F001016D
:1036F000016000207047000040F2F411C2F20001A6
:10370000884218BF704780B50020C4F20200202113
:10371000FEF792FEBDE8804000F02CBF704700002D
:103720007047000070470000B0B582B004460068E2
:103730000168C368426901F02F05202D03F02005C0
:1037400006D12DB1204602B0BDE8B04000F0F2BC79
:103750005FEA017C1EBF02F0010E03F4907212EBCF
:103760000E0253D1226B012A05D111F0100218BFAD
:1037700013F0100236D10A0622D513F080021FD0B2
:1037800094F83D1021293FD1A168B1F5805F03D1A4
:103790002169002900F07282216A4A1C226209789C
:1037A0004160E18C01390A04E1842DD1C16821F026
:1037B0008001C160C16841F04001C16002B0B0BD8C
:1037C000490621D513F040011ED0C16821F0400107
:1037D000C1602021204684F83D1002B0BDE8B04011
:1037E00000F00CBB00210191016801914168019139
:1037F00001994069400613D4A08DE18DE28D002A25
:1038000018BF884240F0BE8102B0B0BDCA0718BFE1
:1038100013F4807240F0BA804A0700F1BD80C2E024
:10382000A16B0868426893B2002BEDD0A08D834253
:10383000EAD2E285C969B1F5807F00F09D802068F9
:1038400050E8030F216820F4807041E80302DAB1E8
:10385000206850E8030F216820F4807041E80302DB
:1038600092B1206850E8030F216820F4807041E88D
:1038700003024AB1206850E8030F216820F48070E9
:1038800041E80302002ADAD1206850E8050F2168D8
:1038900020F0010041E80502DAB1206850E8050F88
:1038A000216820F0010041E8050292B1206850E84B
:1038B000050F216820F0010041E805024AB12068A7
:1038C00050E8050F216820F0010041E80502002AB8
:1038D000DAD1206850E8050F216820F0400041E867
:1038E0000502DAB1206850E8050F216820F0400099
:1038F00041E8050292B1206850E8050F216820F0E8
:10390000400041E805024AB1206850E8050F2168EF
:1039100020F0400041E80502002ADAD1202084F896
:103920003E0000202063206850E8030F216820F04B
:10393000100041E80302DAB1206850E8030F216863
:1039400020F0100041E8030292B1206850E8030F14
:10395000216820F0100041E803024AB1206850E8D5
:10396000030F216820F0100041E80302002ADAD199
:10397000A06BFEF751FAA08DE18D401A81B220466E
:1039800002B0BDE8B040FFF7CBBE00BF226C42F0F2
:10399000010222644A0706D5BEF1000F03D0226C53
:1039A00042F0020222648A0706D5BEF1000F03D05E
:1039B000226C42F004022264BCF1000F09D545EAF2
:1039C0000E02B2FA82F2520903D1226C42F00802CE
:1039D0002264226C002A3FF417AF11F0200118BFB7
:1039E000002D03D0204600F0A5FB20684069216C23
:1039F00000F0400001F00801401800F0B58000BF61
:103A0000206850E8030F216820F4907041E8030219
:103A1000BAB3206850E8030F216820F4907041E8A1
:103A2000030272B3206850E8030F216820F49070FD
:103A300041E803022AB3206850E8030F216820F40C
:103A4000907041E80302002ADAD11AE0206850E8B9
:103A5000050F216820F0010041E80502DAB1206875
:103A600050E8050F216820F0010041E8050292B1FD
:103A7000206850E8050F216820F0010041E80502A8
:103A80004AB1206850E8050F216820F0010041E8A4
:103A90000502002ADAD1206B012824D1206850E8E1
:103AA000030F216820F0100041E80302DAB120681A
:103AB00050E8030F216820F0100041E8030292B1A2
:103AC000206850E8030F216820F0100041E803024D
:103AD0004AB1206850E8030F216820F0100041E847
:103AE0000302002ADAD1202084F83E00002020635F
:103AF0002068406940063FD5206850E8050F2168DE
:103B000020F0400041E80502DAB1206850E8050FD6
:103B1000216820F0400041E8050292B1206850E899
:103B2000050F216820F0400041E805024AB12068F5
:103B300050E8050F216820F0400041E80502002A06
:103B4000DAD1A06BC0B144F22911C0F600010165C1
:103B5000FEF7AAF900283FF457AEA06B016D02B042
:103B6000BDE8B040084700BF2046FFF7DBFD00205E
:103B7000206402B0B0BD00BF204602B0BDE8B04036
:103B8000FFF7D0BD401A216851E8031F226821F4D5
:103B9000907142E80313DBB1216851E8031F2268EA
:103BA00021F4907142E8031393B1216851E8031F97
:103BB000226821F4907142E803134BB1216851E867
:103BC000031F226821F4907142E80313002BDAD11D
:103BD000216851E8051F226821F0010142E8051320
:103BE000DBB1216851E8051F226821F0010142E89C
:103BF000051393B1216851E8051F226821F00101E6
:103C000042E805134BB1216851E8051F226821F0F5
:103C1000010142E80513002BDAD1202184F83E107F
:103C200000212163216851E8031F226821F010015F
:103C300042E80313002B3FF4A1AE216851E8031FB3
:103C4000226821F0100142E80313002B3FF496AEE6
:103C5000216851E8031F226821F0100142E8031394
:103C6000002B3FF48BAE216851E8031F226821F03E
:103C7000100142E80313002BD4D17FE6216A31F80A
:103C8000022B6FF35F22426021628AE5002804BFA5
:103C90000120704710B5044690F83D0028B9002077
:103CA00084F83C00204600F021F8242084F83D00F0
:103CB0002068C16821F40051C160204600F0BAFAC2
:103CC0002068016921F490410161416921F02A01D4
:103CD0004161C16841F40051C1600020202120648D
:103CE00084F83D1084F83E1010BD0000F0B587B098
:103CF000006844F60001C4F2000100248842CDE9C6
:103D00000544CDE9034402942AD044F20041C4F2B0
:103D1000000188426DD1002043F630010190C4F2C9
:103D200002010A69262442F400320A610A6902F497
:103D300000320192019A01900A6842F001020A6081
:103D4000096801F00101019101990C210291022100
:103D5000CDE90310032005900020C4F202003BE0EF
:103D600043F630000194C4F202000169002741F4D7
:103D7000802101610169C4F2020701F480210191EF
:103D8000019901940168022541F004010160016874
:103D9000032601F00401019101990194016841F0A9
:103DA00002010160006802A900F002000190019880
:103DB000202002900720069007F50060CDE903540B
:103DC0000596FEF765FA4FF48060CDE90205CDE96E
:103DD000044607F5806027240721069102A9FEF713
:103DE00057FA204600210022FEF7BAFB2046FEF7D4
:103DF000A3FB07B0F0BD0000704700007047000053
:103E0000FEE7000040F28C00C2F200000021C0E991
:103E10000011C0E90211C0E904118161704700007E
:103E200040F28421C2F20001884240F27001C2F2E5
:103E300000010BD040F2BC02C2F2000290421CBF53
:103E40004FF0FF30704701F1140001E001F10C0068
:103E50000068D0F88010D0F88400081A00F07F00C5
:103E600070470000FEE70000FEE70000704700001A
:103E700040F27000C2F200000021017040F2D02137
:103E8000C2F20001C16040F2842140F2007240F2AF
:103E9000583340F2887CC2F20001C2F20002C2F242
:103EA0000003C2F2000C096802614361C0F818C047
:103EB000486940F00100486140F2BC00C2F20000D5
:103EC0000068426942F001024261CA6842F0200281
:103ED000CA60C16841F02001C160704770470000AE
:103EE000FEF7BEBA80B594B0002043F640010C90B6
:103EF000CDE90A00CDE908000690CDE90400CDE93E
:103F000002000190C4F202010A6842F080520A6085
:103F1000096801F080510191019947F20001019077
:103F2000C4F200010A6842F440420A6009680122B2
:103F300001F44041019101990221CDE90D100820C1
:103F40000F90B4200A921022CDE9100107A8079122
:103F50000B92CDE91211FEF7A9FC28B1EFF3108006
:103F600072B600BFFEE700BFFEF736FB20B1EFF3ED
:103F7000108072B6FEE700BF0F200290022003906F
:103F8000002004904FF4A05005904FF4805006900C
:103F900002A80521FEF75EFB20B1EFF3108072B698
:103FA000FEE700BF14B080BD4EF68850CEF2000090
:103FB000016841F4700101607047000080B540F273
:103FC000AC10C2F20000FFF7C3F840F2F410C2F2E6
:103FD0000000BDE88040FFF7BBB8000040F23C2085
:103FE000C2F20000FFF7B4B87047000010B540F609
:103FF000FF3E0368C4F2000E40F2004C7045C4F26C
:10400000010C27DCB0F1804F31D040F20042C4F205
:10401000000290422BD040F60002C4F2000290420F
:1040200025D041F6FF72C4F20002904229DC7045AF
:104030003CDCB0F1804F5FD040F20042C4F200029D
:10404000904259D040F60002C4F20002904253D090
:1040500056E000BF40F60042C4F20002904206D093
:10406000604504D00022C4F201029042D9D14A68CE
:1040700023F07003134341F6FF72C4F20002904232
:10408000D5DD43F6FF72C4F20102904222DC42F217
:104090000002C4F2000290422ED00022C4F20102BB
:1040A000904229D0604527D02AE000BF40F6004268
:1040B000C4F2000290421FD041F60002C4F2000296
:1040C000904219D041F60042C4F20002904213D04F
:1040D00016E000BF44F20002C4F2010290420BD08D
:1040E00044F60002C4F20102904205D044F20042BC
:1040F000C4F20102904203D1CA6823F4407313430F
:1041000023F080024B69D1F800E08C681A4302600A
:10411000C46240F48062C0F828E0624504BF0969C7
:1041200001630121416110BD806B0021C185C18403
:10413000FFF7F8BA81B090F83E10222921D18368A8
:104140000246B3F5805F09D152F8281F52F8183C97
:10415000002B63D003685B680AE000BF52F8281F99
:1041600013B90369002BF5D003685B6803F07F0384
:104170000B70116801311160C18D01390A04C185CC
:1041800002D001B0704700BF0168CA6822F0200267
:10419000CA60CA6822F48072CA604A6922F00102C9
:1041A0004A61202180F83E10016B01293ED1002197
:1041B000016300BF016851E8031F026821F010018C
:1041C00042E80313DBB1016851E8031F026821F0E4
:1041D000100142E8031393B1016851E8031F02681C
:1041E00021F0100142E803134BB1016851E8031FAD
:1041F000026821F0100142E80313002BDAD10168B4
:104200000A68D20606D5002200920A680092496820
:1042100000910099818D01B0FFF782BA026852685F
:104220006FF35F2221F8022B8162A5E701B0FFF74F
:10423000E3BD000010B504460068D4E902C223695A
:10424000016921F4405111430161626943EA0C01A3
:10425000E3691143C268194349F20C639A4311435D
:10426000C1604169A26921F4407141F200431143E8
:1042700040F48062C4F201039A42416102D1FEF728
:10428000ADFA01E0FEF796FAE16963681922B1F52B
:10429000004FA0FB020123D15A00DB0FFCF718F8F6
:1042A00048F21F51C5F2EB11A0FB01235A094FF64A
:1042B0009C73C0F6FF7303F1805302FB03003223AB
:1042C00003EBC000A0FB01014FF4F87000EA1110ED
:1042D00000EB0210C1F3421108442168886010BD50
:1042E0009A009B0FFBF7F4FF48F21F51C5F2EB1148
:1042F000A0FB01235A094FF69C73C0F6FF7302FB23
:104300000300322303EB0010A0FB0101F02000EAC0
:10431000511000EB0210C1F343110844216888607A
:1043200010BD000010B540F28424C2F20004204603
:1043300000F014F82046BDE81040FFF7F5B9000082
:1043400010B540F2BC04C2F20004204600F006F8AA
:104350002046BDE81040FFF7E7B900000268136887
:10436000D2F80CC099061FD51CF020011CD0116892
:10437000516840F28422C2F20002904236D040F2EC
:10438000BC02C2F2000290423ED140F27000C2F282
:1043900000004069D0F88020D0F88430013202F06B
:1043A0007F029A4230D031E019062DD51CF08001F1
:1043B0002AD040F28421C2F2000188422CD040F27F
:1043C000BC01C2F20001884218BF704740F28870F9
:1043D000C2F20000D0F88020D0F884309A4225D173
:1043E0000868C16821F08001C160704740F2700028
:1043F000C2F20000C068D0F88020D0F884300132CA
:1044000002F07F029A4201D1704700BFD0F880309D
:10441000C154C0F88020704740F20070C2F2000022
:10442000D0F88020D0F884309A42D9D0D0F88420B7
:10443000825CD0F88430013303F07F03C0F884300D
:10444000086801684260704740F28421C2F20001AE
:10445000884213D040F2BC01C2F2000188420AD166
:1044600040F27000C2F200004169D1F88000D1F83A
:104470008420904210D14FF0FF30704740F270001E
:10448000C2F20000C168D1F88000D1F884209042C7
:1044900004BF4FF0FF307047D1F88400085CD1F8BA
:1044A0008420013202F07F02C1F8842070470000AE
:1044B00080B500285BD440F28422C2F2000291420F
:1044C00028D040F2BC02C2F20002914218BF80BD67
:1044D00040F27003C2F20003996940F2BC0CD1F8BB
:1044E000802003F1180E013202F07F02C2F2000CAC
:1044F000D1F884309A422DD1D1F884309A4229D112
:10450000D1F884309A4225D1D1F884309A42EFD044
:1045100020E000BF40F27003C2F20003196940F2CC
:10452000842CD1F8802003F1100E013202F07F02BA
:10453000C2F2000CD1F884309A420BD1D1F8843009
:104540009A4207D1D1F884309A4203D1D1F884300D
:104550009A42EFD0D1F88030C854DEF80000C0F89D
:104560008020DCF80000C16841F08001C16080BD9E
:10457000FEE700002DE9F04740F27008C2F20008A3
:10458000D8F814A05046FCF730F840F25839C2F27F
:104590000009064648465721FCF70BF8002818BFCB
:1045A000002E11D140F61800C2F200000021017067
:1045B0000020C9F88000C9F88400D8F814008021D0
:1045C000FCF774F8BDE8F08701787242731E002092
:1045D0001AF800708F421CD08342E3D00AEB000728
:1045E0007C788C420ED01418A51CDBD0BD788D428F
:1045F0000ED0E51CD6D0FF788F421FD00430864203
:10460000E6D1CFE7013086B2032E05D11AE000BF14
:10461000023086B2032E15D0042E03D104260220C8
:1046200011E000BF06B240F61800C2F200000021FF
:10463000B6F1FF3F01700BDCBAE700BF033086B272
:10464000032EE9D1012040F61801C2F200010870E2
:104650005046FBF7CAFF311D884209D90AEB060113
:10466000801B0431C21E5046FBF7DEFFD8F814A0B1
:1046700047F21C61C0F600015046FBF7A4FF00287A
:1046800041D047F218610646C0F600015046FBF7DC
:104690009AFFB8B10330351DFBF77EFF464646F85A
:1046A000040F2846FBF778FF40F61801C2F200011C
:1046B0000978424642F8080F0846314600F088FA69
:1046C00076E700BF5046FBF790FF05280ED340F673
:1046D00014040AF10401C21E5046C2F20004FBF7A2
:1046E000A3FFD8F81400FBF757FF208040F618000E
:1046F000C2F20000007840F61401C2F2000100F09E
:104700002FF8D8F814A047F21861C0F600015046FF
:10471000FBF759FF00283FF44BAF5046FBF765FF0E
:1047200004280ED340F616040AF10301821E5046F7
:10473000C2F20004FBF778FFD8F81400FBF72CFF57
:10474000208040F61800C2F20000007840F6160102
:10475000C2F20001FCF764FD2AE70000000000003F
:104760002DE9F04F8FB0044640F2A8008A46C2F20D
:1047700000000021FDF728FB012C00F0A581022C90
:1047800040F004829FEDC80B9FEDC91B51EC100B4C
:104790009FEDC90B0D91059051EC110B0A910C90F6
:1047A00051EC100B9FEDC60B0022099104906FF0A5
:1047B000270451EC100BCDF808A008910B9000BF16
:1047C00010460E9202F0F7FBDDF814800D9D424674
:1047D0002B4602F01BFC0C9FDDF828A03A465346FE
:1047E00002F032FA41EC100B01F0C2FCDDF810903F
:1047F000099E51EC100B4A46334602F07DF90B9AA4
:10480000089B02F003FC02F0A9FB40F27051C2F2D7
:104810000001214488620E9803940230079102F04F
:10482000CAFB42462B46444602F0F0FB3A4653464A
:1048300002F00AFA41EC100B01F09AFC51EC100B5B
:104840004A463346C84602F057F9DDF82CB0089FB7
:104850005A463B4602F0DAFB02F080FB40F2705110
:104860000E9AC2F2000101EB420148600E980691D7
:10487000043002F0A0FBDDF8349022464B4625467A
:1048800002F0C4FB0C9C5346224602F0DDF941ECD9
:10489000100B01F06DFC51EC100B4246334602F058
:1048A0002BF95A463B4602F0B1FB02F057FB069E3D
:1048B000B0600E98063002F07EFB2A464B4602F0AE
:1048C000A5FB22465346544602F0BEF941EC100BBC
:1048D00001F04EFCDDF824A051EC100B424653468B
:1048E000454602F009F95A463B46B84602F08EFBAF
:1048F00002F034FBF0600E98083002F05CFBDDF84B
:1049000014B04B465A4602F081FB0C9F23463A46B0
:1049100002F09AF941EC100B01F02AFC51EC100B5B
:104920002A465346544602F0E7F8DDF82CA04346E9
:10493000524602F06BFB02F011FB079EB0630E982B
:104940000A3002F038FB5A464B4602F05FFB0A9DE4
:104950003A462B4602F078F941EC100B01F008FCC6
:10496000DDF8109051EC100B4A46234602F0C4F8D3
:104970005246434602F04AFB02F0F0FAF0630E980A
:104980000C3002F018FB0D9E5A463346D84602F012
:104990003DFB3A462B46BB4602F056F941EC100B64
:1049A00001F0E6FB51EC100B4A4623464D4602F05F
:1049B000A3F8089C52462346D14602F027FB02F09A
:1049C000CDFA069FB8610E980E3002F0F4FA424616
:1049D000334602F01BFB0A9E5A463346DA4602F083
:1049E00033F941EC100B01F0C3FB2A46AB46099D9D
:1049F00051EC100B2B4602F07FF84A46234602F09A
:104A000005FB02F0ABFAF8610E98103002F0D3FA11
:104A1000C1464246DDF83480434602F0F7FA52467A
:104A2000334602F011F941EC100B01F0A1FB51ECFF
:104A3000100B5A462B46AA4602F05EF80B9D234601
:104A40002A4602F0E3FA02F089FA386240F2705026
:104A5000C2F2000006900E98123002F0ACFA4A46FC
:104A6000434602F0D3FA0C9A334602F0EDF841ECDB
:104A7000100B01F07DFB51EC100B5A46534602F02F
:104A80003BF82A46234602F0C1FA02F067FA0E9A72
:104A9000039C07991432C82A04F12804C8647FF4DF
:104AA0008FAEDDF808A076E04AD8124DFB21094010
:104AB0000000000000005940000000000000F03F2E
:104AC000000000000000A04040F2E031C2F200010E
:104AD00000200691002100BF40F2E033C2F2000343
:104AE0005A18585000F1280900F1510700F17A06D0
:104AF00000F1A30500F2471300F1CC04C2E90197CD
:104B0000C2E9036502F11405136200F5B87300F2FF
:104B1000991700F1F50C00F58F7E85E8105000F52F
:104B20000574C2E9093702F1340300F28F2800F559
:104B3000E17600F2EB1500F23D2C00F2662E83E8E0
:104B4000105000F52E7300F2E1276431C2E90B65C5
:104B5000C2F8408000F20A3600F2333500F557748F
:104B600000F2853C00F2AE3E00F2D738C2E91137C0
:104B700002F15403B1F5C87F00F58060C2E9136506
:104B800083E81050C2F86080A6D104E040F2E03023
:104B9000C2F200000690BAF8000049F640414843CE
:104BA0004AF68001C0F21211B1FBF0F02C21C4F2E0
:104BB0000001086040F2A800069A0027C2F2000037
:104BC000002164230097FDF779F80FB0BDE8F08F5E
:104BD0002DE9F04FD5B00D4609881646013989B246
:104BE0000229044606D847F2EC50C0F6000050F8FF
:104BF000219001E04FF4806940F2A800C2F2000069
:104C00000021FDF7E1F8012C00F09E81022C40F01C
:104C10008E824FEA5900CDE9026502F0CCF99FED92
:104C2000C40B21901F9151EC100B9FEDC30BCDE9EC
:104C30001D1051EC100B9FEDC20B002220911C9017
:104C40006FF0270B51EC100BCDE91A101046229291
:104C500002F0B1F9DDF874901E9A4B46164602F048
:104C6000D5F9DDF870A0DDF880805246434601F0AA
:104C7000EBFF41EC100B01F07BFADDE91A4251EC3D
:104C8000100B234601F038FF1F9D219A2B4602F09E
:104C9000BDF902F063F95946CDF85CB040F2705BA3
:104CA000C2F2000B5944886222981991023002F036
:104CB00082F932464B4602F0A9F95246434601F0CA
:104CC000C3FF41EC100B01F053FADDF86CB051EC6E
:104CD000100B5A46234601F00FFF219F2B463A4600
:104CE00002F094F902F03AF9229940F27052C2F2BD
:104CF000000202EB4101486022980D46043002F0A8
:104D00005AF932464B464E4602F080F95246434627
:104D100001F09AFF41EC100B01F02AFA51EC100B54
:104D20005A46234601F0E8FEDDF87CA03A46534699
:104D3000B94602F06BF902F011F9A86022982F46EB
:104D40000630189502F037F91E9D33462A4602F0C8
:104D50005DF9DDF87080209B424601F075FF41EC63
:104D6000100B01F005FA51EC100B5A46234601F0E6
:104D7000C3FE4A465346D14602F048F902F0EEF827
:104D8000F8602298083002F016F92A463346AB46FE
:104D9000B24602F03BF9209D42462B46444601F0C4
:104DA00053FF41EC100B01F0E3F91B9FDDF8688025
:104DB00051EC100B3A46434601F09EFE219A4B46B9
:104DC00002F024F902F0CAF8199EB06322980A3062
:104DD00002F0F1F85A46534602F018F922462B46E3
:104DE00001F032FF41EC100B01F0C2F951EC100B55
:104DF0003A464346BB4601F07FFEDDF884901F9F94
:104E00004A463B4602F002F902F0A8F8F063229805
:104E10000C3002F0D0F8DDF878A01D9E52463346E3
:104E200002F0F4F822462B462C4601F00DFF41EC2F
:104E3000100B01F09DF951EC100B5A46434601F05E
:104E40005BFE4A463B4602F0E1F802F087F8189D07
:104E5000A86122980E3002F0AEF85246334602F0B6
:104E6000D5F8DDF870802346424601F0EDFE41ECB6
:104E7000100B01F07DF91A9E51EC100B5A46334687
:104E800001F03AFE4A463B463C4602F0BFF802F0CB
:104E900065F8E8612298103002F08DF81D9F5246A7
:104EA0003B4602F0B3F8209D42462B4601F0CCFE73
:104EB00041EC100B01F05CF951EC100B5A463346F3
:104EC00001F01AFE4A46234602F0A0F802F046F826
:104ED000189908622298123002F06DF852463B464B
:104EE00002F094F842462B4601F0AEFE41EC100B66
:104EF00001F03EF951EC100B5A46334601F0FCFD2F
:104F00004A46234602F082F802F028F8229ADDF899
:104F10005CB019991432C82A0BF1280BC8647FF4CD
:104F200095AEDDE9026540F27052C2F2000202E184
:104F30004AD8124DFB2109400000000000005940F2
:104F4000000000000000F03F09EB8902900014907F
:104F50004FEA49001390132009FB00F0129009EB6F
:104F6000C90011904000109009EB09100F904FEA12
:104F700009100E90C9EB09100D90C9EBC9000C90F7
:104F800040000B900D2009EB490109FB00F00A904D
:104F9000880009900B2009FB00F008905000079052
:104FA0004FEAC90006901691480048F21F5105903B
:104FB0004FEA89004FF0000BC5F2EB110027CDE955
:104FC00002651592049000BF09EB07021398A2FB3B
:104FD000012AC219A2FB012022901698C219A2FB35
:104FE000012021900498C219A2FB0120209015985D
:104FF000C219A2FB01201F900598C219A2FB012033
:105000001E900C98C219A2FB01201D900698C2198F
:10501000A2FB01201C901198C219A2FB01201B9039
:105020000798C219A2FB01201A900898C219A2FB86
:10503000012019900998C219A2FB012018900A9822
:10504000C219A2FB012017900B98C2190D98A2FB60
:105050000128C2190E98A2FB0165C6190F98A6FB7C
:105060000164C6191098A6FB016EC6191298A6FB1A
:10507000016CC619A6FB0162A7FB0163CAF34B16BC
:1050800040F2E03AC2F2000A0AEB0B004660229EB0
:10509000C5F34B15C6F34B168660219EC4F34B1423
:1050A000C6F34B16C660209EC2F34B12C6F34B16D6
:1050B00006611F9EC563C6F34B1646611E9E0464BF
:1050C000C6F34B1686611D9EC264C6F34B16C661BD
:1050D0001C9EC6F34B1606621B9EC6F34B16466219
:1050E0001A9EC6F34B168662199EC6F34B16C6620D
:1050F000189EC6F34B160663179EC6F34B164663FF
:10510000C8F34B168663CEF34B164664CCF34B16AE
:105110008664C3F34B104AF80B0014980BF1500B44
:10512000BBF5C87F07447FF44FAFDDE9026540F26D
:10513000E032C2F20002308849F6404148434AF664
:105140008001C0F21211B1FBF0F02C21C4F2000179
:10515000086040F2A8000027C2F20000002164238A
:105160000097FCF7ABFD2A8833881EA123A8FBF724
:1051700027F99DF88C0088B340F27001C2F200015B
:105180008F6940F2BC0323AAC2F200030EE000BF05
:10519000D7F8805078558F6912F8010FC7F88060F2
:1051A0001E68F56845F08005F560B8B1D7F88060F5
:1051B000013606F07F0600BFD7F88450AE42E7D133
:1051C000D7F88450AE42E3D1D7F88450AE42DFD155
:1051D000D7F88450AE42EFD0DAE700BF55B0BDE853
:1051E000F08F00BF5670702069732025642C4672C2
:1051F0006571206973202564000000000000000034
:105200002DE9F04F8DB09FEDC60B9FEDC71B51EC04
:10521000100B9FEDC70B07910B9051EC110B0291F6
:10522000069051EC100B9FEDC40B0022CDE9091044
:105230006FF0270851EC100B0891059010460C9266
:1052400001F0B9FE0B9E079F32463B4601F0DEFEA1
:10525000DDF808A0069A5346154601F0F5FC41EC2E
:10526000100B00F085FFDDF828B0099B51EC100B06
:105270005A46994601F040FC059A089B01F0C6FE8B
:1052800001F06CFE4146CDF8048040F27058C2F245
:105290000008414488620C980491023001F08BFEB2
:1052A00032463B4601F0B2FE2A4653462F4601F0F5
:1052B000CBFC41EC100B00F05BFF51EC100B5A469D
:1052C0004B464D4601F018FCDDF81480089B424621
:1052D00001F09CFE01F042FE0C9940F27052C2F2C5
:1052E000000202EB410148600C980C460430039127
:1052F00001F061FEDDF81C9032464B4601F086FE5F
:105300003A46534601F0A0FC41EC100B00F030FF90
:1053100051EC100B5A462B465F4601F0EDFB089D01
:1053200042462B46C34601F071FE01F017FEA06015
:105330000C98063001F03FFE32464B464E4601F0D7
:1053400065FE069A5346D04601F07EFC41EC100BF8
:1053500000F00EFFDDF8249051EC100B3A464B465E
:1053600001F0CAFB5A462B46AA4601F04FFE01F057
:10537000F5FD0399C8600C98083001F01CFE0B9DE8
:1053800033462A4601F042FE069C4346224601F07F
:105390005BFC41EC100B00F0EBFE51EC100B3A46BD
:1053A0004B4601F0A9FB5A46534601F02FFE01F08F
:1053B000D5FDDDF81090C9F838000C980A3001F0DE
:1053C000FAFD2A46334601F021FE22464346254691
:1053D000474601F039FC41EC100B00F0C9FEDDF846
:1053E00028B0099C51EC100B5A46234601F084FB6F
:1053F000DDF814805346424601F008FE01F0AEFD90
:10540000C9F83C000C980C3001F0D5FD0B9A3346DE
:1054100001F0FCFD2A463B4601F016FC41EC100B66
:1054200000F0A6FE51EC100B5A462346A14601F0AF
:1054300063FB4246534601F0E9FD01F08FFD039EF8
:10544000B0610C980E3001F0B6FD0B9CDDF81CB07D
:1054500022465B4601F0DAFD2F462A46029D2B4686
:1054600001F0F2FB41EC100B00F082FE0A9A51ECC5
:10547000100B4B4601F040FB42465346C14601F03B
:10548000C5FD01F06BFDF0610C98103001F093FD4B
:1054900022465B4601F0BAFD3A462B4601F0D4FBAA
:1054A00041EC100B00F064FEDDF82880DDF824A04C
:1054B00051EC100B4246534601F01EFB089C4A4635
:1054C000234601F0A3FD01F049FD30620C98123033
:1054D00001F071FD0B9A5B4601F098FD3A462B46B0
:1054E00001F0B2FB41EC100B00F042FE51EC100B4E
:1054F0004246534601F000FB4A46234601F086FD32
:1055000001F02CFD0C9ADDF8048004991432C82AAD
:1055100008F12808C8647FF491AE0DB0BDE8F08FA3
:105520004AD8124DFB2109400000000000005940FC
:10553000000000000000F03F000000000000A0405C
:1055400040F208002C21C2F20000C4F20101006800
:1055500051F8042C0B6801325A43B0FBF2F044F6C8
:10556000D352C1F26202A0FB0202900940F2CE22A5
:10557000C2F20002108091ED020A91ED001AB8EE1D
:10558000400AB8EE411A80EE010A40F2C820C2F289
:10559000000080ED000A704794B043F6300640F2F8
:1055A0000008C4F20206C4F20208FCF767FFFEF727
:1055B00099FC0027CDE905770A973068202140F053
:1055C000040030603068002200F004000A900A985D
:1055D0000A973068202440F080003060306800F086
:1055E00080000A900A980A97306840F00100306005
:1055F000306800F001000A900A980A97306840F07D
:1056000002003060306800F002000A900A984046BC
:10561000FCF71AFF4FF4005002904FF4041002AD53
:10562000CDE9030708F500602946FCF731FE029436
:10563000012440462946CDE903470597FCF728FE9B
:1056400040F28420A8F5DE31C2F200000C234FF4B2
:10565000E13280E88600C0E90377C0E90537C76119
:10566000FEF714FB20B1EFF3108072B6FEE700BF27
:1056700040F204100123A8F56041C2F20000C0F618
:10568000007305974FF48032077680F82070C0E9E8
:105690000A37C46180F8307080E88600C0E903777B
:1056A0004461FCF789F928B1EFF3108072B600BFAE
:1056B000FEE700BF00240120CDE9030440F20410FE
:1056C000C2F2000002A90294FCF7BCF820B1EFF38B
:1056D000108072B6FEE700BF40F2F410A8F53C411E
:1056E000C2F2000044F24F6280E81600C0E90324D1
:1056F0008461FDF74BFB28B1EFF3108072B600BF59
:10570000FEE700BF40F2A805C2F20005A8F5DC31B3
:10571000284640F8141F4FF4E13100240C22C0E960
:105720000114C0E90344C0E90524C461FEF7AEFAE0
:1057300020B1EFF3108072B6FEE700BF029430682C
:10574000002140F4001030603068002200F40010A6
:10575000029002981020FCF703FF1020FCF7ECFEEB
:1057600024200290A8F5C630286028460394FCF750
:1057700037FA28B1EFF3108072B600BFFEE700BF22
:1057800040F2A805C2F2000502A928460022002422
:10579000FCF7FAF920B1EFF3108072B6FEE700BF14
:1057A00040F20800C2F2000000684EF22F3180097A
:1057B000C0F2BE01A0FB010140F2AC104FF0FF337C
:1057C000A8F58032C2F2000003EBD12140F2E733AA
:1057D000CDE912440894C0E90021C0E90243C0E9C0
:1057E00004448461FDF7AAFE20B1EFF3108072B685
:1057F000FEE700BF40F2AC10C2F2000012A9FDF7B4
:1058000069FA28B1EFF3108072B600BFFEE700BF5F
:1058100060200A904FF4FA700B900020CDE90C0044
:10582000CDE90E00109040F2AC10C2F200000AA9BF
:105830000022FDF771FD28B1EFF3108072B600BFB2
:10584000FEE700BF40F2AC10C2F200000AA9042239
:10585000FDF762FD20B1EFF3108072B6FEE700BFE6
:1058600040F2AC10C2F200000AA90822FDF754FD74
:1058700020B1EFF3108072B6FEE700BF4FF4005086
:10588000079040F2AC100024C2F2000002A9069476
:10589000CDE90444CDE902440994FDF7F5F918B1C6
:1058A000EFF3108072B6FEE7FFF74AFE40F2AC104D
:1058B000C2F20000FDF704FD20200A9040F23C20D7
:1058C000C2F200004FF0804105230594CDE9034466
:1058D0000B94012280E81600C0E903348461FDF7CF
:1058E00055FA18B1EFF3108072B6FEE74FF480500E
:1058F000029040F23C20C2F2000002A9FDF758FBE2
:1059000020B1EFF3108072B6FEE700BF40F23C20FA
:10591000C2F200000AA9FDF7DDF918B1EFF310801B
:1059200072B6FEE7FEF7A4FAFEF76CFA40F2CC205E
:10593000C2F200000121017040F20010C2F200002A
:105940004FF47A71016040F2F410C2F20000FDF7EA
:10595000D9FA40F23C20C2F20000FDF781FA40F291
:10596000AC14C2F20004204600210026FDF73AFEE6
:1059700020460421FDF736FEFFF742FC40F270524C
:10598000C2F200022846002164230096FCF796F933
:1059900005F114042046FEF743FA0028FAD0204609
:1059A000FEF752FD2146FEF783FDF3E75FEA400C68
:1059B00008BF91F0000F4FEA8C234FEAC12243EA5F
:1059C00051514FEA1C5018BF00F5F0404FEA30002B
:1059D00018BF41F000415FEA6C5C00F02980BCF127
:1059E000FF3F08BF40F080407047130C06BF120411
:1059F0004FF0100C4FF0000C130E04BF12020CF10C
:105A0000080C130F04BF12010CF1040C930F04BF18
:105A100092000CF1020CD30F04BF52000CF1010CE8
:105A200011464FF00002A0F11F00A0EB0C007047E0
:105A300011F0004F08BF704731F000413FF4D5AF7F
:105A40000B0C06BF09044FF0100C4FF0000C0B0EAE
:105A500004BF09020CF1080C0B0F04BF09010CF183
:105A6000040C8B0F04BF89000CF1020CCB0F04BF98
:105A700049000CF1010CCCF1200322FA03F341EAB6
:105A8000030102FA0CF2A0EB0C0000F101007047D8
:105A900023F07F4720F07F4C80EA030000F00040B5
:105AA000ACEB070303F57C5303F1FF032DE98049B9
:105AB00009B44FEA144324EA03484FEA154B25EA98
:105AC0000B4E0FF2042606EB13273E7803FB066706
:105AD000C7F5000707FB06F64FEAD64606F10206B1
